{
  "contractName": "EduScience",
  "abi": [
    {
      "constant": false,
      "inputs": [
        {
          "name": "newAccount",
          "type": "address"
        }
      ],
      "name": "grantAccess",
      "outputs": [],
      "payable": false,
      "stateMutability": "nonpayable",
      "type": "function"
    },
    {
      "constant": true,
      "inputs": [],
      "name": "numberOfAccounts",
      "outputs": [
        {
          "name": "",
          "type": "uint256"
        }
      ],
      "payable": false,
      "stateMutability": "view",
      "type": "function"
    },
    {
      "constant": false,
      "inputs": [],
      "name": "kill",
      "outputs": [],
      "payable": false,
      "stateMutability": "nonpayable",
      "type": "function"
    },
    {
      "constant": true,
      "inputs": [],
      "name": "accessFee",
      "outputs": [
        {
          "name": "",
          "type": "uint256"
        }
      ],
      "payable": false,
      "stateMutability": "view",
      "type": "function"
    },
    {
      "constant": true,
      "inputs": [],
      "name": "titlesCount",
      "outputs": [
        {
          "name": "",
          "type": "uint256"
        }
      ],
      "payable": false,
      "stateMutability": "view",
      "type": "function"
    },
    {
      "constant": true,
      "inputs": [],
      "name": "popularityFee",
      "outputs": [
        {
          "name": "",
          "type": "uint256"
        }
      ],
      "payable": false,
      "stateMutability": "view",
      "type": "function"
    },
    {
      "constant": true,
      "inputs": [
        {
          "name": "",
          "type": "address"
        }
      ],
      "name": "addressCount",
      "outputs": [
        {
          "name": "",
          "type": "uint256"
        }
      ],
      "payable": false,
      "stateMutability": "view",
      "type": "function"
    },
    {
      "constant": false,
      "inputs": [
        {
          "name": "removeAccount",
          "type": "address"
        }
      ],
      "name": "removeAccess",
      "outputs": [],
      "payable": false,
      "stateMutability": "nonpayable",
      "type": "function"
    },
    {
      "constant": true,
      "inputs": [],
      "name": "owner",
      "outputs": [
        {
          "name": "",
          "type": "address"
        }
      ],
      "payable": false,
      "stateMutability": "view",
      "type": "function"
    },
    {
      "constant": true,
      "inputs": [
        {
          "name": "",
          "type": "address"
        }
      ],
      "name": "userPurchasedCount",
      "outputs": [
        {
          "name": "",
          "type": "uint256"
        }
      ],
      "payable": false,
      "stateMutability": "view",
      "type": "function"
    },
    {
      "constant": true,
      "inputs": [
        {
          "name": "",
          "type": "address"
        }
      ],
      "name": "users",
      "outputs": [
        {
          "name": "name",
          "type": "bytes32"
        }
      ],
      "payable": false,
      "stateMutability": "view",
      "type": "function"
    },
    {
      "constant": true,
      "inputs": [
        {
          "name": "",
          "type": "address"
        }
      ],
      "name": "allowedAccounts",
      "outputs": [
        {
          "name": "",
          "type": "bool"
        }
      ],
      "payable": false,
      "stateMutability": "view",
      "type": "function"
    },
    {
      "constant": false,
      "inputs": [
        {
          "name": "newOwner",
          "type": "address"
        }
      ],
      "name": "transferOwnership",
      "outputs": [],
      "payable": false,
      "stateMutability": "nonpayable",
      "type": "function"
    },
    {
      "inputs": [
        {
          "name": "_tokenContract",
          "type": "address"
        }
      ],
      "payable": false,
      "stateMutability": "nonpayable",
      "type": "constructor"
    },
    {
      "anonymous": false,
      "inputs": [
        {
          "indexed": false,
          "name": "publisher",
          "type": "address"
        },
        {
          "indexed": false,
          "name": "ipfsHash",
          "type": "string"
        }
      ],
      "name": "Store",
      "type": "event"
    },
    {
      "anonymous": false,
      "inputs": [
        {
          "indexed": false,
          "name": "newAccount",
          "type": "address"
        }
      ],
      "name": "AccessGranted",
      "type": "event"
    },
    {
      "anonymous": false,
      "inputs": [
        {
          "indexed": false,
          "name": "removedAccount",
          "type": "address"
        }
      ],
      "name": "AccessRemoved",
      "type": "event"
    },
    {
      "constant": false,
      "inputs": [
        {
          "name": "_ipfsHash",
          "type": "string"
        },
        {
          "name": "_title",
          "type": "bytes32"
        }
      ],
      "name": "publish",
      "outputs": [],
      "payable": false,
      "stateMutability": "nonpayable",
      "type": "function"
    },
    {
      "constant": true,
      "inputs": [
        {
          "name": "_index",
          "type": "uint256"
        }
      ],
      "name": "getTitle",
      "outputs": [
        {
          "name": "",
          "type": "bytes32"
        }
      ],
      "payable": false,
      "stateMutability": "view",
      "type": "function"
    },
    {
      "constant": true,
      "inputs": [
        {
          "name": "_title",
          "type": "bytes32"
        }
      ],
      "name": "getPublisher",
      "outputs": [
        {
          "name": "",
          "type": "address"
        }
      ],
      "payable": false,
      "stateMutability": "view",
      "type": "function"
    },
    {
      "constant": true,
      "inputs": [
        {
          "name": "_title",
          "type": "bytes32"
        }
      ],
      "name": "getPopularity",
      "outputs": [
        {
          "name": "",
          "type": "uint256"
        }
      ],
      "payable": false,
      "stateMutability": "view",
      "type": "function"
    },
    {
      "constant": true,
      "inputs": [
        {
          "name": "_title",
          "type": "bytes32"
        }
      ],
      "name": "getPublishTime",
      "outputs": [
        {
          "name": "",
          "type": "uint256"
        }
      ],
      "payable": false,
      "stateMutability": "view",
      "type": "function"
    },
    {
      "constant": false,
      "inputs": [
        {
          "name": "_title",
          "type": "bytes32"
        }
      ],
      "name": "purchaseIpfsAfterTitle",
      "outputs": [],
      "payable": false,
      "stateMutability": "nonpayable",
      "type": "function"
    },
    {
      "constant": true,
      "inputs": [
        {
          "name": "_title",
          "type": "bytes32"
        }
      ],
      "name": "getIpfsAfterTitle",
      "outputs": [
        {
          "name": "",
          "type": "string"
        }
      ],
      "payable": false,
      "stateMutability": "view",
      "type": "function"
    },
    {
      "constant": false,
      "inputs": [
        {
          "name": "_title",
          "type": "bytes32"
        }
      ],
      "name": "votePopularity",
      "outputs": [],
      "payable": false,
      "stateMutability": "nonpayable",
      "type": "function"
    },
    {
      "constant": true,
      "inputs": [
        {
          "name": "_index",
          "type": "uint256"
        }
      ],
      "name": "getTitleAddress",
      "outputs": [
        {
          "name": "",
          "type": "bytes32"
        }
      ],
      "payable": false,
      "stateMutability": "view",
      "type": "function"
    },
    {
      "constant": true,
      "inputs": [
        {
          "name": "_index",
          "type": "uint256"
        }
      ],
      "name": "getPurchaseAddress",
      "outputs": [
        {
          "name": "",
          "type": "bytes32"
        }
      ],
      "payable": false,
      "stateMutability": "view",
      "type": "function"
    },
    {
      "constant": true,
      "inputs": [],
      "name": "login",
      "outputs": [
        {
          "name": "",
          "type": "bytes32"
        }
      ],
      "payable": false,
      "stateMutability": "view",
      "type": "function"
    },
    {
      "constant": true,
      "inputs": [
        {
          "name": "name",
          "type": "bytes32"
        }
      ],
      "name": "user",
      "outputs": [
        {
          "name": "",
          "type": "bytes32"
        }
      ],
      "payable": false,
      "stateMutability": "view",
      "type": "function"
    },
    {
      "constant": false,
      "inputs": [
        {
          "name": "name",
          "type": "bytes32"
        }
      ],
      "name": "signup",
      "outputs": [
        {
          "name": "",
          "type": "bytes32"
        }
      ],
      "payable": true,
      "stateMutability": "payable",
      "type": "function"
    },
    {
      "constant": false,
      "inputs": [
        {
          "name": "name",
          "type": "bytes32"
        }
      ],
      "name": "update",
      "outputs": [
        {
          "name": "",
          "type": "bytes32"
        }
      ],
      "payable": true,
      "stateMutability": "payable",
      "type": "function"
    }
  ],
  "bytecode": "0x60806040526006600c556002600d5534801561001a57600080fd5b50604051602080612d0783398101806040528101908080519060200190929190505050336000806101000a81548173ffffffffffffffffffffffffffffffffffffffff021916908373ffffffffffffffffffffffffffffffffffffffff16021790555080600360006101000a81548173ffffffffffffffffffffffffffffffffffffffff021916908373ffffffffffffffffffffffffffffffffffffffff16021790555050612c39806100ce6000396000f30060806040526004361061015f576000357c0100000000000000000000000000000000000000000000000000000000900463ffffffff16806307be02fe146101645780630ae5e739146101d55780630dfb6615146102185780630f03e4c31461026557806341c0e1b514610290578063492b85cd146102a75780635c1397de146102d25780636852a76a1461031257806369bc7bc91461033d5780636a7b988c146103685780638811a0ae146103995780638823da6c146103f05780638b147245146104335780638da5cb5b146104735780638e3177e1146104ca578063929a79b1146104fb5780639d500fe814610544578063a56e7bae1461059b578063a87430ba146105e4578063b34e97e814610643578063bfaec04e14610676578063cb6cec4b146106ed578063cd3c301114610797578063daf32370146107dc578063e04610ed14610825578063e775781b14610880578063f2fde38b146108c5575b600080fd5b34801561017057600080fd5b506101936004803603810190808035600019169060200190929190505050610908565b604051808273ffffffffffffffffffffffffffffffffffffffff1673ffffffffffffffffffffffffffffffffffffffff16815260200191505060405180910390f35b3480156101e157600080fd5b50610216600480360381019080803573ffffffffffffffffffffffffffffffffffffffff1690602001909291905050506109d6565b005b34801561022457600080fd5b506102476004803603810190808035600019169060200190929190505050610bf7565b60405180826000191660001916815260200191505060405180910390f35b34801561027157600080fd5b5061027a610cd7565b6040518082815260200191505060405180910390f35b34801561029c57600080fd5b506102a5610cdd565b005b3480156102b357600080fd5b506102bc610d6e565b6040518082815260200191505060405180910390f35b6102f46004803603810190808035600019169060200190929190505050610d74565b60405180826000191660001916815260200191505060405180910390f35b34801561031e57600080fd5b50610327610ec1565b6040518082815260200191505060405180910390f35b34801561034957600080fd5b50610352610ec7565b6040518082815260200191505060405180910390f35b34801561037457600080fd5b506103976004803603810190808035600019169060200190929190505050610ecd565b005b3480156103a557600080fd5b506103da600480360381019080803573ffffffffffffffffffffffffffffffffffffffff16906020019092919050505061117b565b6040518082815260200191505060405180910390f35b3480156103fc57600080fd5b50610431600480360381019080803573ffffffffffffffffffffffffffffffffffffffff169060200190929190505050611193565b005b610455600480360381019080803560001916906020019092919050505061137b565b60405180826000191660001916815260200191505060405180910390f35b34801561047f57600080fd5b506104886114dd565b604051808273ffffffffffffffffffffffffffffffffffffffff1673ffffffffffffffffffffffffffffffffffffffff16815260200191505060405180910390f35b3480156104d657600080fd5b506104f96004803603810190808035600019169060200190929190505050611502565b005b34801561050757600080fd5b5061052660048036038101908080359060200190929190505050611b61565b60405180826000191660001916815260200191505060405180910390f35b34801561055057600080fd5b50610585600480360381019080803573ffffffffffffffffffffffffffffffffffffffff169060200190929190505050611c0c565b6040518082815260200191505060405180910390f35b3480156105a757600080fd5b506105c660048036038101908080359060200190929190505050611c24565b60405180826000191660001916815260200191505060405180910390f35b3480156105f057600080fd5b50610625600480360381019080803573ffffffffffffffffffffffffffffffffffffffff169060200190929190505050611d3c565b60405180826000191660001916815260200191505060405180910390f35b34801561064f57600080fd5b50610658611d5a565b60405180826000191660001916815260200191505060405180910390f35b34801561068257600080fd5b506106eb600480360381019080803590602001908201803590602001908080601f01602080910402602001604051908101604052809392919081815260200183838082843782019150505050505091929192908035600019169060200190929190505050611dfc565b005b3480156106f957600080fd5b5061071c6004803603810190808035600019169060200190929190505050612349565b6040518080602001828103825283818151815260200191508051906020019080838360005b8381101561075c578082015181840152602081019050610741565b50505050905090810190601f1680156107895780820380516001836020036101000a031916815260200191505b509250505060405180910390f35b3480156107a357600080fd5b506107c66004803603810190808035600019169060200190929190505050612775565b6040518082815260200191505060405180910390f35b3480156107e857600080fd5b5061080760048036038101908080359060200190929190505050612823565b60405180826000191660001916815260200191505060405180910390f35b34801561083157600080fd5b50610866600480360381019080803573ffffffffffffffffffffffffffffffffffffffff16906020019092919050505061293b565b604051808215151515815260200191505060405180910390f35b34801561088c57600080fd5b506108af600480360381019080803560001916906020019092919050505061295b565b6040518082815260200191505060405180910390f35b3480156108d157600080fd5b50610906600480360381019080803573ffffffffffffffffffffffffffffffffffffffff169060200190929190505050612a09565b005b600080600102600460003373ffffffffffffffffffffffffffffffffffffffff1673ffffffffffffffffffffffffffffffffffffffff16815260200190815260200160002060000154600019161415151561096257600080fd5b6000600960008460001916600019168152602001908152602001600020600401541415151561099057600080fd5b60096000836000191660001916815260200190815260200160002060010160009054906101000a900473ffffffffffffffffffffffffffffffffffffffff169050919050565b6000809054906101000a900473ffffffffffffffffffffffffffffffffffffffff1673ffffffffffffffffffffffffffffffffffffffff163373ffffffffffffffffffffffffffffffffffffffff161480610a7a5750600160003373ffffffffffffffffffffffffffffffffffffffff1673ffffffffffffffffffffffffffffffffffffffff16815260200190815260200160002060009054906101000a900460ff165b1515610a8557600080fd5b600073ffffffffffffffffffffffffffffffffffffffff168173ffffffffffffffffffffffffffffffffffffffff1614158015610b0c5750600160008273ffffffffffffffffffffffffffffffffffffffff1673ffffffffffffffffffffffffffffffffffffffff16815260200190815260200160002060009054906101000a900460ff16155b1515610b1757600080fd5b60018060008373ffffffffffffffffffffffffffffffffffffffff1673ffffffffffffffffffffffffffffffffffffffff16815260200190815260200160002060006101000a81548160ff0219169083151502179055506001600260008282540192505081905550600060025414151515610b9157600080fd5b7fdeb5c31899474fe8c086c95ff9344480d19365676a6a1d22d37bb8e3e7c0ef1881604051808273ffffffffffffffffffffffffffffffffffffffff1673ffffffffffffffffffffffffffffffffffffffff16815260200191505060405180910390a150565b6000816000600102816000191614151515610c1157600080fd5b6000600102600460003373ffffffffffffffffffffffffffffffffffffffff1673ffffffffffffffffffffffffffffffffffffffff16815260200190815260200160002060000154600019161415610c8b577f6e756c6c000000000000000000000000000000000000000000000000000000009150610cd1565b600460003373ffffffffffffffffffffffffffffffffffffffff1673ffffffffffffffffffffffffffffffffffffffff1681526020019081526020016000206000015491505b50919050565b60025481565b6000809054906101000a900473ffffffffffffffffffffffffffffffffffffffff1673ffffffffffffffffffffffffffffffffffffffff163373ffffffffffffffffffffffffffffffffffffffff161415610d6c576000809054906101000a900473ffffffffffffffffffffffffffffffffffffffff1673ffffffffffffffffffffffffffffffffffffffff16ff5b565b600c5481565b6000816000600102816000191614151515610d8e57600080fd5b6000600102600460003373ffffffffffffffffffffffffffffffffffffffff1673ffffffffffffffffffffffffffffffffffffffff16815260200190815260200160002060000154600019161415610e755782600460003373ffffffffffffffffffffffffffffffffffffffff1673ffffffffffffffffffffffffffffffffffffffff1681526020019081526020016000206000018160001916905550600460003373ffffffffffffffffffffffffffffffffffffffff1673ffffffffffffffffffffffffffffffffffffffff168152602001908152602001600020600001549150610ebb565b600460003373ffffffffffffffffffffffffffffffffffffffff1673ffffffffffffffffffffffffffffffffffffffff1681526020019081526020016000206000015491505b50919050565b600b5481565b600d5481565b6000600102600460003373ffffffffffffffffffffffffffffffffffffffff1673ffffffffffffffffffffffffffffffffffffffff168152602001908152602001600020600001546000191614151515610f2657600080fd5b60006009600083600019166000191681526020019081526020016000206004015414151515610f5457600080fd5b3373ffffffffffffffffffffffffffffffffffffffff1660096000836000191660001916815260200190815260200160002060010160009054906101000a900473ffffffffffffffffffffffffffffffffffffffff1673ffffffffffffffffffffffffffffffffffffffff1614151515610fcd57600080fd5b600360009054906101000a900473ffffffffffffffffffffffffffffffffffffffff1673ffffffffffffffffffffffffffffffffffffffff1663beabacc83360096000856000191660001916815260200190815260200160002060010160009054906101000a900473ffffffffffffffffffffffffffffffffffffffff16600d546040518463ffffffff167c0100000000000000000000000000000000000000000000000000000000028152600401808473ffffffffffffffffffffffffffffffffffffffff1673ffffffffffffffffffffffffffffffffffffffff1681526020018373ffffffffffffffffffffffffffffffffffffffff1673ffffffffffffffffffffffffffffffffffffffff1681526020018281526020019350505050602060405180830381600087803b15801561110657600080fd5b505af115801561111a573d6000803e3d6000fd5b505050506040513d602081101561113057600080fd5b8101908080519060200190929190505050151561114c57600080fd5b600960008260001916600019168152602001908152602001600020600301600081546001019190508190555050565b60076020528060005260406000206000915090505481565b6000809054906101000a900473ffffffffffffffffffffffffffffffffffffffff1673ffffffffffffffffffffffffffffffffffffffff163373ffffffffffffffffffffffffffffffffffffffff1614806112375750600160003373ffffffffffffffffffffffffffffffffffffffff1673ffffffffffffffffffffffffffffffffffffffff16815260200190815260200160002060009054906101000a900460ff165b151561124257600080fd5b600160008273ffffffffffffffffffffffffffffffffffffffff1673ffffffffffffffffffffffffffffffffffffffff16815260200190815260200160002060009054906101000a900460ff16151561129a57600080fd5b6001600254101515156112ac57600080fd5b6000600160008373ffffffffffffffffffffffffffffffffffffffff1673ffffffffffffffffffffffffffffffffffffffff16815260200190815260200160002060006101000a81548160ff02191690831515021790555060016002600082825403925050819055507f98a545f8b57e4017a42966cbf54a29f1c763b0c567482422ce13802069c5935181604051808273ffffffffffffffffffffffffffffffffffffffff1673ffffffffffffffffffffffffffffffffffffffff16815260200191505060405180910390a150565b600081600060010281600019161415151561139557600080fd5b6000600102600460003373ffffffffffffffffffffffffffffffffffffffff1673ffffffffffffffffffffffffffffffffffffffff1681526020019081526020016000206000015460001916141515156113ee57600080fd5b6000600102600460003373ffffffffffffffffffffffffffffffffffffffff1673ffffffffffffffffffffffffffffffffffffffff16815260200190815260200160002060000154600019161415156114d65782600460003373ffffffffffffffffffffffffffffffffffffffff1673ffffffffffffffffffffffffffffffffffffffff1681526020019081526020016000206000018160001916905550600460003373ffffffffffffffffffffffffffffffffffffffff1673ffffffffffffffffffffffffffffffffffffffff1681526020019081526020016000206000015491506114d7565b5b50919050565b6000809054906101000a900473ffffffffffffffffffffffffffffffffffffffff1681565b6000806000600102600460003373ffffffffffffffffffffffffffffffffffffffff1673ffffffffffffffffffffffffffffffffffffffff16815260200190815260200160002060000154600019161415151561155e57600080fd5b6000600960008560001916600019168152602001908152602001600020600401541415151561158c57600080fd5b3373ffffffffffffffffffffffffffffffffffffffff1660096000856000191660001916815260200190815260200160002060010160009054906101000a900473ffffffffffffffffffffffffffffffffffffffff1673ffffffffffffffffffffffffffffffffffffffff161415151561160557600080fd5b600091505b600860003373ffffffffffffffffffffffffffffffffffffffff1673ffffffffffffffffffffffffffffffffffffffff168152602001908152602001600020548210156116c8578260001916600660003373ffffffffffffffffffffffffffffffffffffffff1673ffffffffffffffffffffffffffffffffffffffff16815260200190815260200160002060008481526020019081526020016000206002015460001916141515156116bb57600080fd5b818060010192505061160a565b600360009054906101000a900473ffffffffffffffffffffffffffffffffffffffff1673ffffffffffffffffffffffffffffffffffffffff1663beabacc83360096000876000191660001916815260200190815260200160002060010160009054906101000a900473ffffffffffffffffffffffffffffffffffffffff16600c546040518463ffffffff167c0100000000000000000000000000000000000000000000000000000000028152600401808473ffffffffffffffffffffffffffffffffffffffff1673ffffffffffffffffffffffffffffffffffffffff1681526020018373ffffffffffffffffffffffffffffffffffffffff1673ffffffffffffffffffffffffffffffffffffffff1681526020018281526020019350505050602060405180830381600087803b15801561180157600080fd5b505af1158015611815573d6000803e3d6000fd5b505050506040513d602081101561182b57600080fd5b8101908080519060200190929190505050151561184757600080fd5b600860003373ffffffffffffffffffffffffffffffffffffffff1673ffffffffffffffffffffffffffffffffffffffff168152602001908152602001600020600081546001019190508190559050600960008460001916600019168152602001908152602001600020600001600660003373ffffffffffffffffffffffffffffffffffffffff1673ffffffffffffffffffffffffffffffffffffffff16815260200190815260200160002060008381526020019081526020016000206000019080546001816001161561010002031660029004611925929190612ae1565b5060096000846000191660001916815260200190815260200160002060010160009054906101000a900473ffffffffffffffffffffffffffffffffffffffff16600660003373ffffffffffffffffffffffffffffffffffffffff1673ffffffffffffffffffffffffffffffffffffffff168152602001908152602001600020600083815260200190815260200160002060010160006101000a81548173ffffffffffffffffffffffffffffffffffffffff021916908373ffffffffffffffffffffffffffffffffffffffff16021790555060096000846000191660001916815260200190815260200160002060020154600660003373ffffffffffffffffffffffffffffffffffffffff1673ffffffffffffffffffffffffffffffffffffffff1681526020019081526020016000206000838152602001908152602001600020600201816000191690555060096000846000191660001916815260200190815260200160002060030154600660003373ffffffffffffffffffffffffffffffffffffffff1673ffffffffffffffffffffffffffffffffffffffff16815260200190815260200160002060008381526020019081526020016000206003018190555060096000846000191660001916815260200190815260200160002060040154600660003373ffffffffffffffffffffffffffffffffffffffff1673ffffffffffffffffffffffffffffffffffffffff168152602001908152602001600020600083815260200190815260200160002060040181905550505050565b600080600102600460003373ffffffffffffffffffffffffffffffffffffffff1673ffffffffffffffffffffffffffffffffffffffff168152602001908152602001600020600001546000191614151515611bbb57600080fd5b6000600102600a83815481101515611bcf57fe5b90600052602060002001546000191614151515611beb57600080fd5b600a82815481101515611bfa57fe5b90600052602060002001549050919050565b60086020528060005260406000206000915090505481565b600080600102600460003373ffffffffffffffffffffffffffffffffffffffff1673ffffffffffffffffffffffffffffffffffffffff168152602001908152602001600020600001546000191614151515611c7e57600080fd5b6000600560003373ffffffffffffffffffffffffffffffffffffffff1673ffffffffffffffffffffffffffffffffffffffff16815260200190815260200160002060008481526020019081526020016000206004015414151515611ce157600080fd5b600560003373ffffffffffffffffffffffffffffffffffffffff1673ffffffffffffffffffffffffffffffffffffffff1681526020019081526020016000206000838152602001908152602001600020600201549050919050565b60046020528060005260406000206000915090508060000154905081565b600080600102600460003373ffffffffffffffffffffffffffffffffffffffff1673ffffffffffffffffffffffffffffffffffffffff168152602001908152602001600020600001546000191614151515611db457600080fd5b600460003373ffffffffffffffffffffffffffffffffffffffff1673ffffffffffffffffffffffffffffffffffffffff16815260200190815260200160002060000154905090565b6000816000600102816000191614151515611e1657600080fd5b6000600102600460003373ffffffffffffffffffffffffffffffffffffffff1673ffffffffffffffffffffffffffffffffffffffff168152602001908152602001600020600001546000191614151515611e6f57600080fd5b60328451101515611e7f57600080fd5b600060096000856000191660001916815260200190815260200160002060040154141515611eac57600080fd5b600760003373ffffffffffffffffffffffffffffffffffffffff1673ffffffffffffffffffffffffffffffffffffffff168152602001908152602001600020600081546001019190508190559150600b6000815480929190600101919050555060008214151515611f1c57600080fd5b6000600b5414151515611f2e57600080fd5b83600560003373ffffffffffffffffffffffffffffffffffffffff1673ffffffffffffffffffffffffffffffffffffffff16815260200190815260200160002060008481526020019081526020016000206000019080519060200190611f95929190612b68565b5033600560003373ffffffffffffffffffffffffffffffffffffffff1673ffffffffffffffffffffffffffffffffffffffff168152602001908152602001600020600084815260200190815260200160002060010160006101000a81548173ffffffffffffffffffffffffffffffffffffffff021916908373ffffffffffffffffffffffffffffffffffffffff16021790555082600560003373ffffffffffffffffffffffffffffffffffffffff1673ffffffffffffffffffffffffffffffffffffffff168152602001908152602001600020600084815260200190815260200160002060020181600019169055506000600560003373ffffffffffffffffffffffffffffffffffffffff1673ffffffffffffffffffffffffffffffffffffffff1681526020019081526020016000206000848152602001908152602001600020600301819055506120e5612ad9565b600560003373ffffffffffffffffffffffffffffffffffffffff1673ffffffffffffffffffffffffffffffffffffffff16815260200190815260200160002060008481526020019081526020016000206004018190555083600960008560001916600019168152602001908152602001600020600001908051906020019061216e929190612b68565b503360096000856000191660001916815260200190815260200160002060010160006101000a81548173ffffffffffffffffffffffffffffffffffffffff021916908373ffffffffffffffffffffffffffffffffffffffff16021790555082600960008560001916600019168152602001908152602001600020600201816000191690555060006009600085600019166000191681526020019081526020016000206003018190555061221f612ad9565b60096000856000191660001916815260200190815260200160002060040181905550600a8390806001815401808255809150509060018203906000526020600020016000909192909190915090600019169055507fafcd305d01fcb20f07cdc4abcb1bebff5f85790e6d2143091c8b19d970e50b363385604051808373ffffffffffffffffffffffffffffffffffffffff1673ffffffffffffffffffffffffffffffffffffffff16815260200180602001828103825283818151815260200191508051906020019080838360005b838110156123085780820151818401526020810190506122ed565b50505050905090810190601f1680156123355780820380516001836020036101000a031916815260200191505b50935050505060405180910390a150505050565b60606000806000600102600460003373ffffffffffffffffffffffffffffffffffffffff1673ffffffffffffffffffffffffffffffffffffffff1681526020019081526020016000206000015460001916141515156123a757600080fd5b600060096000866000191660001916815260200190815260200160002060040154141515156123d557600080fd5b600191505b600860003373ffffffffffffffffffffffffffffffffffffffff1673ffffffffffffffffffffffffffffffffffffffff1681526020019081526020016000205482111515612585578360001916600660003373ffffffffffffffffffffffffffffffffffffffff1673ffffffffffffffffffffffffffffffffffffffff16815260200190815260200160002060008481526020019081526020016000206002015460001916141561257857600660003373ffffffffffffffffffffffffffffffffffffffff1673ffffffffffffffffffffffffffffffffffffffff16815260200190815260200160002060008381526020019081526020016000206000018054600181600116156101000203166002900480601f01602080910402602001604051908101604052809291908181526020018280546001816001161561010002031660029004801561256c5780601f106125415761010080835404028352916020019161256c565b820191906000526020600020905b81548152906001019060200180831161254f57829003601f168201915b5050505050925061276e565b81806001019250506123da565b600190505b600760003373ffffffffffffffffffffffffffffffffffffffff1673ffffffffffffffffffffffffffffffffffffffff1681526020019081526020016000205481111515612735578360001916600560003373ffffffffffffffffffffffffffffffffffffffff1673ffffffffffffffffffffffffffffffffffffffff16815260200190815260200160002060008381526020019081526020016000206002015460001916141561272857600560003373ffffffffffffffffffffffffffffffffffffffff1673ffffffffffffffffffffffffffffffffffffffff16815260200190815260200160002060008281526020019081526020016000206000018054600181600116156101000203166002900480601f01602080910402602001604051908101604052809291908181526020018280546001816001161561010002031660029004801561271c5780601f106126f15761010080835404028352916020019161271c565b820191906000526020600020905b8154815290600101906020018083116126ff57829003601f168201915b5050505050925061276e565b808060010191505061258a565b6040805190810160405280600281526020017f4e4100000000000000000000000000000000000000000000000000000000000081525092505b5050919050565b600080600102600460003373ffffffffffffffffffffffffffffffffffffffff1673ffffffffffffffffffffffffffffffffffffffff1681526020019081526020016000206000015460001916141515156127cf57600080fd5b600060096000846000191660001916815260200190815260200160002060040154141515156127fd57600080fd5b600960008360001916600019168152602001908152602001600020600401549050919050565b600080600102600460003373ffffffffffffffffffffffffffffffffffffffff1673ffffffffffffffffffffffffffffffffffffffff16815260200190815260200160002060000154600019161415151561287d57600080fd5b6000600660003373ffffffffffffffffffffffffffffffffffffffff1673ffffffffffffffffffffffffffffffffffffffff168152602001908152602001600020600084815260200190815260200160002060040154141515156128e057600080fd5b600660003373ffffffffffffffffffffffffffffffffffffffff1673ffffffffffffffffffffffffffffffffffffffff1681526020019081526020016000206000838152602001908152602001600020600201549050919050565b60016020528060005260406000206000915054906101000a900460ff1681565b600080600102600460003373ffffffffffffffffffffffffffffffffffffffff1673ffffffffffffffffffffffffffffffffffffffff1681526020019081526020016000206000015460001916141515156129b557600080fd5b600060096000846000191660001916815260200190815260200160002060040154141515156129e357600080fd5b600960008360001916600019168152602001908152602001600020600301549050919050565b6000809054906101000a900473ffffffffffffffffffffffffffffffffffffffff1673ffffffffffffffffffffffffffffffffffffffff163373ffffffffffffffffffffffffffffffffffffffff161415612ad657600073ffffffffffffffffffffffffffffffffffffffff168173ffffffffffffffffffffffffffffffffffffffff16141515612ad557806000806101000a81548173ffffffffffffffffffffffffffffffffffffffff021916908373ffffffffffffffffffffffffffffffffffffffff1602179055505b5b50565b600042905090565b828054600181600116156101000203166002900490600052602060002090601f016020900481019282601f10612b1a5780548555612b57565b82800160010185558215612b5757600052602060002091601f016020900482015b82811115612b56578254825591600101919060010190612b3b565b5b509050612b649190612be8565b5090565b828054600181600116156101000203166002900490600052602060002090601f016020900481019282601f10612ba957805160ff1916838001178555612bd7565b82800160010185558215612bd7579182015b82811115612bd6578251825591602001919060010190612bbb565b5b509050612be49190612be8565b5090565b612c0a91905b80821115612c06576000816000905550600101612bee565b5090565b905600a165627a7a723058201a71e6d2799df2fda8bed9a93e8ae36dbb84ff4752261c36fcab97f25727e1df0029",
  "source": "pragma solidity 0.4.23;\r\n\r\nimport \"./Accessible.sol\";\r\nimport \"./EduScienceToken.sol\";\r\n\r\ncontract EduScience is Accessible {\r\n\r\n  // All state variables have an initial state\r\n\r\n  struct User {\r\n    bytes32 name;\r\n  }\r\n\r\n  // Title must be bytes to use it as a key for mapping, string is not supported.\r\n  struct Data {\r\n    // The link to the stored data\r\n    string ipfsHash;\r\n    // Publisher unique address\r\n    address publisher;\r\n    // Title of the data\r\n    bytes32 title;\r\n    // Popularity, can be voted only up\r\n    uint256 popularity;\r\n    // For existence check\r\n    uint256 time;\r\n  }\r\n\r\n  EduScienceToken private tokenContract;\r\n\r\n  mapping (address => User) public users;\r\n  \r\n  // A\r\n  // 1 address -> 1,2,...n -> data1,data2,...datan\r\n  mapping (address => mapping (uint256 => Data)) private addressData;\r\n  mapping (address => mapping (uint256 => Data)) private userPurchasedData;\r\n  // 1 address -> n\r\n  mapping (address => uint256) public addressCount;\r\n  mapping (address => uint256) public userPurchasedCount;\r\n  // 1 title -> 1 data\r\n  \r\n  // B\r\n  mapping (bytes32 => Data) private titleData;\r\n  // All titles of data\r\n  bytes32[] private titles;\r\n  // Titles count\r\n  uint256 public titlesCount;\r\n\r\n  uint256 public accessFee = 6;\r\n  uint256 public popularityFee = 2;\r\n\r\n  // Bytes not supported for ipfsHash -> utf58 encoding, not utf8 provided by web3.\r\n  event Store(\r\n     address publisher,\r\n     string ipfsHash);\r\n\r\n  // modifier onlyExistingUser {\r\n  //   // Check if user exists or terminate\r\n  //   require(!(users[msg.sender].name == 0x0));\r\n  //   _;\r\n  // }\r\n\r\n  modifier onlyValidName(bytes32 name) {\r\n    // Only valid names allowed\r\n    require(!(name == 0x0));\r\n    _;\r\n  }\r\n\r\n  constructor(EduScienceToken _tokenContract) public {\r\n    tokenContract = _tokenContract;\r\n  }\r\n\r\n  function publish(string _ipfsHash, bytes32 _title) public onlyValidName(_title) {\r\n    require(!(users[msg.sender].name == 0x0));\r\n\r\n    require (bytes(_ipfsHash).length < 50);\r\n    // Must be an empty slot\r\n    require (titleData[_title].time == 0);\r\n\r\n    // On entry 0 nothing stored for maps\r\n    uint256 n = ++addressCount[msg.sender];\r\n    titlesCount++;\r\n\r\n    require (n != 0);\r\n    require (titlesCount != 0);\r\n\r\n    addressData[msg.sender][n].ipfsHash = _ipfsHash;\r\n    addressData[msg.sender][n].publisher = msg.sender;\r\n    addressData[msg.sender][n].title = _title;\r\n    addressData[msg.sender][n].popularity = 0;\r\n    addressData[msg.sender][n].time = getTimestamp();\r\n\r\n    titleData[_title].ipfsHash = _ipfsHash;\r\n    titleData[_title].publisher = msg.sender;\r\n    titleData[_title].title = _title;\r\n    titleData[_title].popularity = 0;\r\n    titleData[_title].time = getTimestamp();\r\n    titles.push(_title);\r\n\r\n    emit Store(msg.sender, _ipfsHash);\r\n  }\r\n\r\n  // For the list population.\r\n  function getTitle(uint256 _index) constant public returns (bytes32) {\r\n    require(!(users[msg.sender].name == 0x0));\r\n    // Check if data exists for this entry\r\n    require (titles[_index] != 0x0);\r\n    return titles[_index];\r\n  }\r\n\r\n  function getPublisher(bytes32 _title) constant public returns (address) {\r\n    require(!(users[msg.sender].name == 0x0));\r\n    // Check if data exists for this entry\r\n    require (titleData[_title].time != 0);\r\n    return titleData[_title].publisher;\r\n  }\r\n\r\n  function getPopularity(bytes32 _title) constant public returns (uint256) {\r\n    require(!(users[msg.sender].name == 0x0));\r\n    // Check if data exists for this entry\r\n    require (titleData[_title].time != 0);\r\n    return titleData[_title].popularity;\r\n  }\r\n\r\n  function getPublishTime(bytes32 _title) constant public returns (uint256) {\r\n    require(!(users[msg.sender].name == 0x0));\r\n    // Check if data exists for this entry\r\n    require (titleData[_title].time != 0);\r\n    return titleData[_title].time;\r\n  }\r\n\r\n  function purchaseIpfsAfterTitle(bytes32 _title) public {\r\n    require(!(users[msg.sender].name == 0x0));\r\n    // Check if data exists for this entry\r\n    require (titleData[_title].time != 0);\r\n    // Why to buy your own work?\r\n    require (titleData[_title].publisher != msg.sender);\r\n\r\n    // Check if not already purchased\r\n    for (uint256 i = 0; i < userPurchasedCount[msg.sender]; i++) {\r\n      // Title must be different, a new one.\r\n      require (userPurchasedData[msg.sender][i].title != _title);\r\n    }\r\n\r\n    // Make the transaction fee \r\n    require (tokenContract.transfer(msg.sender, titleData[_title].publisher, accessFee));\r\n    uint256 n = ++userPurchasedCount[msg.sender];\r\n    userPurchasedData[msg.sender][n].ipfsHash = titleData[_title].ipfsHash;\r\n    userPurchasedData[msg.sender][n].publisher = titleData[_title].publisher;\r\n    userPurchasedData[msg.sender][n].title = titleData[_title].title;\r\n    userPurchasedData[msg.sender][n].popularity = titleData[_title].popularity;\r\n    userPurchasedData[msg.sender][n].time = titleData[_title].time;\r\n  }\r\n\r\n  function getIpfsAfterTitle(bytes32 _title) public constant returns (string) {\r\n    require(!(users[msg.sender].name == 0x0));\r\n    // Check if data exists for this entry\r\n    require (titleData[_title].time != 0);\r\n    // Or purchased work\r\n    for (uint256 i = 1; i <= userPurchasedCount[msg.sender]; i++) {\r\n      if (userPurchasedData[msg.sender][i].title == _title) {\r\n        return userPurchasedData[msg.sender][i].ipfsHash;\r\n      }\r\n    }\r\n    // Or own work\r\n    for (uint256 j = 1; j <= addressCount[msg.sender]; j++) {\r\n      if (addressData[msg.sender][j].title == _title) {\r\n        return addressData[msg.sender][j].ipfsHash;\r\n      }\r\n    }\r\n    // Not available\r\n    return \"NA\";\r\n  }\r\n\r\n  function votePopularity(bytes32 _title) public {\r\n    require(!(users[msg.sender].name == 0x0));\r\n    // Check if data exists for this entry\r\n    require (titleData[_title].time != 0);\r\n    // Can't increase your own popularity\r\n    require (titleData[_title].publisher != msg.sender);\r\n    // Make the transaction fee first\r\n    require (tokenContract.transfer(msg.sender, titleData[_title].publisher, popularityFee));\r\n\r\n    ++titleData[_title].popularity;\r\n  }\r\n\r\n  function getTitleAddress(uint256 _index) constant public returns (bytes32) {\r\n    require(!(users[msg.sender].name == 0x0));\r\n    require (addressData[msg.sender][_index].time != 0);\r\n    return addressData[msg.sender][_index].title;\r\n  }\r\n\r\n  function getPurchaseAddress(uint256 _index) constant public returns (bytes32) {\r\n    require(!(users[msg.sender].name == 0x0));\r\n    require (userPurchasedData[msg.sender][_index].time != 0);\r\n    return userPurchasedData[msg.sender][_index].title;\r\n  }\r\n\r\n  function getTimestamp() internal view returns (uint256) {\r\n    return now;\r\n  }\r\n\r\n  function getBlockNumber() internal view returns (uint256) {\r\n    return block.number;\r\n  }\r\n\r\n  function login() public constant returns (bytes32) {\r\n    require(!(users[msg.sender].name == 0x0));\r\n    return (users[msg.sender].name);\r\n  }\r\n\r\n  // Precheck for user existance.\r\n  // constant -> do not modify the state of the contract (same as view).\r\n  function user(bytes32 name) public constant onlyValidName(name) returns (bytes32) {\r\n     if (users[msg.sender].name == 0x0) {\r\n        return \"null\";\r\n     }\r\n     return users[msg.sender].name;\r\n  }\r\n\r\n  function signup(bytes32 name) public payable onlyValidName(name) returns (bytes32) {\r\n    // Check if user exists\r\n    // If yes, return user name\r\n    // If no, check if name was sent\r\n    // If yes, create and return user\r\n    if (users[msg.sender].name == 0x0) {\r\n        users[msg.sender].name = name;\r\n        return (users[msg.sender].name);\r\n    }\r\n\r\n    return (users[msg.sender].name);\r\n  }\r\n\r\n  function update(bytes32 name) public payable onlyValidName(name) returns (bytes32) {\r\n    require(!(users[msg.sender].name == 0x0));\r\n    // Update user name\r\n    if (users[msg.sender].name != 0x0) {\r\n        users[msg.sender].name = name;\r\n        return (users[msg.sender].name);\r\n    }\r\n  }\r\n\r\n  // ----------------    IPFS test part    ---------------- //\r\n\r\n  // mapping (address => string) public datas;\r\n\r\n  // event Store(\r\n  //   address publisher,\r\n  //   string ipfsHash);\r\n\r\n  // function storeData(string _ipfsHash) public {\r\n  //   datas[msg.sender] = _ipfsHash;\r\n  //   emit Store(msg.sender, _ipfsHash);\r\n  // }\r\n\r\n  // function getData() public constant returns (string) {\r\n  //   return datas[msg.sender];\r\n  // }\r\n\r\n  // ----------------    IPFS test part    ---------------- //\r\n}",
  "sourcePath": "D:\\Thesis\\contracts\\EduScience.sol",
  "compiler": {
    "name": "solc",
    "version": "0.4.23+commit.124ca40d.Emscripten.clang"
  },
  "schemaVersion": "2.0.0",
  "updatedAt": "2018-06-22T10:41:43.926Z"
}