{
  "contractName": "EduScience",
  "abi": [
    {
      "constant": false,
      "inputs": [
        {
          "name": "newAccount",
          "type": "address"
        }
      ],
      "name": "grantAccess",
      "outputs": [],
      "payable": false,
      "stateMutability": "nonpayable",
      "type": "function"
    },
    {
      "constant": true,
      "inputs": [],
      "name": "numberOfAccounts",
      "outputs": [
        {
          "name": "",
          "type": "uint256"
        }
      ],
      "payable": false,
      "stateMutability": "view",
      "type": "function"
    },
    {
      "constant": false,
      "inputs": [],
      "name": "kill",
      "outputs": [],
      "payable": false,
      "stateMutability": "nonpayable",
      "type": "function"
    },
    {
      "constant": true,
      "inputs": [
        {
          "name": "",
          "type": "address"
        }
      ],
      "name": "datas",
      "outputs": [
        {
          "name": "",
          "type": "string"
        }
      ],
      "payable": false,
      "stateMutability": "view",
      "type": "function"
    },
    {
      "constant": false,
      "inputs": [
        {
          "name": "removeAccount",
          "type": "address"
        }
      ],
      "name": "removeAccess",
      "outputs": [],
      "payable": false,
      "stateMutability": "nonpayable",
      "type": "function"
    },
    {
      "constant": true,
      "inputs": [],
      "name": "owner",
      "outputs": [
        {
          "name": "",
          "type": "address"
        }
      ],
      "payable": false,
      "stateMutability": "view",
      "type": "function"
    },
    {
      "constant": true,
      "inputs": [
        {
          "name": "",
          "type": "address"
        }
      ],
      "name": "users",
      "outputs": [
        {
          "name": "name",
          "type": "bytes32"
        }
      ],
      "payable": false,
      "stateMutability": "view",
      "type": "function"
    },
    {
      "constant": true,
      "inputs": [
        {
          "name": "",
          "type": "address"
        }
      ],
      "name": "allowedAccounts",
      "outputs": [
        {
          "name": "",
          "type": "bool"
        }
      ],
      "payable": false,
      "stateMutability": "view",
      "type": "function"
    },
    {
      "constant": false,
      "inputs": [
        {
          "name": "newOwner",
          "type": "address"
        }
      ],
      "name": "transferOwnership",
      "outputs": [],
      "payable": false,
      "stateMutability": "nonpayable",
      "type": "function"
    },
    {
      "anonymous": false,
      "inputs": [
        {
          "indexed": false,
          "name": "publisher",
          "type": "address"
        },
        {
          "indexed": false,
          "name": "ipfsHash",
          "type": "string"
        }
      ],
      "name": "Store",
      "type": "event"
    },
    {
      "anonymous": false,
      "inputs": [
        {
          "indexed": false,
          "name": "newAccount",
          "type": "address"
        }
      ],
      "name": "AccessGranted",
      "type": "event"
    },
    {
      "anonymous": false,
      "inputs": [
        {
          "indexed": false,
          "name": "removedAccount",
          "type": "address"
        }
      ],
      "name": "AccessRemoved",
      "type": "event"
    },
    {
      "constant": true,
      "inputs": [],
      "name": "login",
      "outputs": [
        {
          "name": "",
          "type": "bytes32"
        }
      ],
      "payable": false,
      "stateMutability": "view",
      "type": "function"
    },
    {
      "constant": true,
      "inputs": [
        {
          "name": "name",
          "type": "bytes32"
        }
      ],
      "name": "user",
      "outputs": [
        {
          "name": "",
          "type": "bytes32"
        }
      ],
      "payable": false,
      "stateMutability": "view",
      "type": "function"
    },
    {
      "constant": false,
      "inputs": [
        {
          "name": "name",
          "type": "bytes32"
        }
      ],
      "name": "signup",
      "outputs": [
        {
          "name": "",
          "type": "bytes32"
        }
      ],
      "payable": true,
      "stateMutability": "payable",
      "type": "function"
    },
    {
      "constant": false,
      "inputs": [
        {
          "name": "name",
          "type": "bytes32"
        }
      ],
      "name": "update",
      "outputs": [
        {
          "name": "",
          "type": "bytes32"
        }
      ],
      "payable": true,
      "stateMutability": "payable",
      "type": "function"
    },
    {
      "constant": false,
      "inputs": [
        {
          "name": "_ipfsHash",
          "type": "string"
        }
      ],
      "name": "storeData",
      "outputs": [],
      "payable": false,
      "stateMutability": "nonpayable",
      "type": "function"
    },
    {
      "constant": true,
      "inputs": [],
      "name": "getData",
      "outputs": [
        {
          "name": "",
          "type": "string"
        }
      ],
      "payable": false,
      "stateMutability": "view",
      "type": "function"
    }
  ],
  "bytecode": "0x6080604052336000806101000a81548173ffffffffffffffffffffffffffffffffffffffff021916908373ffffffffffffffffffffffffffffffffffffffff160217905550611318806100536000396000f3006080604052600436106100db576000357c0100000000000000000000000000000000000000000000000000000000900463ffffffff1680630ae5e739146100e05780630dfb6615146101235780630f03e4c3146101705780633bc5de301461019b57806341c0e1b51461022b5780635c1397de1461024257806368a6cdf2146102825780638823da6c1461033e5780638b147245146103815780638da5cb5b146103c1578063a87430ba14610418578063b34e97e814610477578063e04610ed146104aa578063f2fde38b14610505578063fb218f5f14610548575b600080fd5b3480156100ec57600080fd5b50610121600480360381019080803573ffffffffffffffffffffffffffffffffffffffff1690602001909291905050506105b1565b005b34801561012f57600080fd5b5061015260048036038101908080356000191690602001909291905050506107c0565b60405180826000191660001916815260200191505060405180910390f35b34801561017c57600080fd5b506101856108a0565b6040518082815260200191505060405180910390f35b3480156101a757600080fd5b506101b06108a6565b6040518080602001828103825283818151815260200191508051906020019080838360005b838110156101f05780820151818401526020810190506101d5565b50505050905090810190601f16801561021d5780820380516001836020036101000a031916815260200191505b509250505060405180910390f35b34801561023757600080fd5b50610240610985565b005b6102646004803603810190808035600019169060200190929190505050610a16565b60405180826000191660001916815260200191505060405180910390f35b34801561028e57600080fd5b506102c3600480360381019080803573ffffffffffffffffffffffffffffffffffffffff169060200190929190505050610b63565b6040518080602001828103825283818151815260200191508051906020019080838360005b838110156103035780820151818401526020810190506102e8565b50505050905090810190601f1680156103305780820380516001836020036101000a031916815260200191505b509250505060405180910390f35b34801561034a57600080fd5b5061037f600480360381019080803573ffffffffffffffffffffffffffffffffffffffff169060200190929190505050610c13565b005b6103a36004803603810190808035600019169060200190929190505050610de9565b60405180826000191660001916815260200191505060405180910390f35b3480156103cd57600080fd5b506103d6610f4b565b604051808273ffffffffffffffffffffffffffffffffffffffff1673ffffffffffffffffffffffffffffffffffffffff16815260200191505060405180910390f35b34801561042457600080fd5b50610459600480360381019080803573ffffffffffffffffffffffffffffffffffffffff169060200190929190505050610f70565b60405180826000191660001916815260200191505060405180910390f35b34801561048357600080fd5b5061048c610f8e565b60405180826000191660001916815260200191505060405180910390f35b3480156104b657600080fd5b506104eb600480360381019080803573ffffffffffffffffffffffffffffffffffffffff169060200190929190505050611030565b604051808215151515815260200191505060405180910390f35b34801561051157600080fd5b50610546600480360381019080803573ffffffffffffffffffffffffffffffffffffffff169060200190929190505050611050565b005b34801561055457600080fd5b506105af600480360381019080803590602001908201803590602001908080601f0160208091040260200160405190810160405280939291908181526020018383808284378201915050505050509192919290505050611120565b005b6000809054906101000a900473ffffffffffffffffffffffffffffffffffffffff1673ffffffffffffffffffffffffffffffffffffffff163373ffffffffffffffffffffffffffffffffffffffff1614806106555750600160003373ffffffffffffffffffffffffffffffffffffffff1673ffffffffffffffffffffffffffffffffffffffff16815260200190815260200160002060009054906101000a900460ff165b151561066057600080fd5b600073ffffffffffffffffffffffffffffffffffffffff168173ffffffffffffffffffffffffffffffffffffffff16141580156106e75750600160008273ffffffffffffffffffffffffffffffffffffffff1673ffffffffffffffffffffffffffffffffffffffff16815260200190815260200160002060009054906101000a900460ff16155b15156106f257600080fd5b60018060008373ffffffffffffffffffffffffffffffffffffffff1673ffffffffffffffffffffffffffffffffffffffff16815260200190815260200160002060006101000a81548160ff02191690831515021790555060016002600082825401925050819055507fdeb5c31899474fe8c086c95ff9344480d19365676a6a1d22d37bb8e3e7c0ef1881604051808273ffffffffffffffffffffffffffffffffffffffff1673ffffffffffffffffffffffffffffffffffffffff16815260200191505060405180910390a150565b60008160006001028160001916141515156107da57600080fd5b6000600102600360003373ffffffffffffffffffffffffffffffffffffffff1673ffffffffffffffffffffffffffffffffffffffff16815260200190815260200160002060000154600019161415610854577f6e756c6c00000000000000000000000000000000000000000000000000000000915061089a565b600360003373ffffffffffffffffffffffffffffffffffffffff1673ffffffffffffffffffffffffffffffffffffffff1681526020019081526020016000206000015491505b50919050565b60025481565b6060600460003373ffffffffffffffffffffffffffffffffffffffff1673ffffffffffffffffffffffffffffffffffffffff1681526020019081526020016000208054600181600116156101000203166002900480601f01602080910402602001604051908101604052809291908181526020018280546001816001161561010002031660029004801561097b5780601f106109505761010080835404028352916020019161097b565b820191906000526020600020905b81548152906001019060200180831161095e57829003601f168201915b5050505050905090565b6000809054906101000a900473ffffffffffffffffffffffffffffffffffffffff1673ffffffffffffffffffffffffffffffffffffffff163373ffffffffffffffffffffffffffffffffffffffff161415610a14576000809054906101000a900473ffffffffffffffffffffffffffffffffffffffff1673ffffffffffffffffffffffffffffffffffffffff16ff5b565b6000816000600102816000191614151515610a3057600080fd5b6000600102600360003373ffffffffffffffffffffffffffffffffffffffff1673ffffffffffffffffffffffffffffffffffffffff16815260200190815260200160002060000154600019161415610b175782600360003373ffffffffffffffffffffffffffffffffffffffff1673ffffffffffffffffffffffffffffffffffffffff1681526020019081526020016000206000018160001916905550600360003373ffffffffffffffffffffffffffffffffffffffff1673ffffffffffffffffffffffffffffffffffffffff168152602001908152602001600020600001549150610b5d565b600360003373ffffffffffffffffffffffffffffffffffffffff1673ffffffffffffffffffffffffffffffffffffffff1681526020019081526020016000206000015491505b50919050565b60046020528060005260406000206000915090508054600181600116156101000203166002900480601f016020809104026020016040519081016040528092919081815260200182805460018160011615610100020316600290048015610c0b5780601f10610be057610100808354040283529160200191610c0b565b820191906000526020600020905b815481529060010190602001808311610bee57829003601f168201915b505050505081565b6000809054906101000a900473ffffffffffffffffffffffffffffffffffffffff1673ffffffffffffffffffffffffffffffffffffffff163373ffffffffffffffffffffffffffffffffffffffff161480610cb75750600160003373ffffffffffffffffffffffffffffffffffffffff1673ffffffffffffffffffffffffffffffffffffffff16815260200190815260200160002060009054906101000a900460ff165b1515610cc257600080fd5b600160008273ffffffffffffffffffffffffffffffffffffffff1673ffffffffffffffffffffffffffffffffffffffff16815260200190815260200160002060009054906101000a900460ff161515610d1a57600080fd5b6000600160008373ffffffffffffffffffffffffffffffffffffffff1673ffffffffffffffffffffffffffffffffffffffff16815260200190815260200160002060006101000a81548160ff02191690831515021790555060016002600082825403925050819055507f98a545f8b57e4017a42966cbf54a29f1c763b0c567482422ce13802069c5935181604051808273ffffffffffffffffffffffffffffffffffffffff1673ffffffffffffffffffffffffffffffffffffffff16815260200191505060405180910390a150565b6000816000600102816000191614151515610e0357600080fd5b6000600102600360003373ffffffffffffffffffffffffffffffffffffffff1673ffffffffffffffffffffffffffffffffffffffff168152602001908152602001600020600001546000191614151515610e5c57600080fd5b6000600102600360003373ffffffffffffffffffffffffffffffffffffffff1673ffffffffffffffffffffffffffffffffffffffff1681526020019081526020016000206000015460001916141515610f445782600360003373ffffffffffffffffffffffffffffffffffffffff1673ffffffffffffffffffffffffffffffffffffffff1681526020019081526020016000206000018160001916905550600360003373ffffffffffffffffffffffffffffffffffffffff1673ffffffffffffffffffffffffffffffffffffffff168152602001908152602001600020600001549150610f45565b5b50919050565b6000809054906101000a900473ffffffffffffffffffffffffffffffffffffffff1681565b60036020528060005260406000206000915090508060000154905081565b600080600102600360003373ffffffffffffffffffffffffffffffffffffffff1673ffffffffffffffffffffffffffffffffffffffff168152602001908152602001600020600001546000191614151515610fe857600080fd5b600360003373ffffffffffffffffffffffffffffffffffffffff1673ffffffffffffffffffffffffffffffffffffffff16815260200190815260200160002060000154905090565b60016020528060005260406000206000915054906101000a900460ff1681565b6000809054906101000a900473ffffffffffffffffffffffffffffffffffffffff1673ffffffffffffffffffffffffffffffffffffffff163373ffffffffffffffffffffffffffffffffffffffff16141561111d57600073ffffffffffffffffffffffffffffffffffffffff168173ffffffffffffffffffffffffffffffffffffffff1614151561111c57806000806101000a81548173ffffffffffffffffffffffffffffffffffffffff021916908373ffffffffffffffffffffffffffffffffffffffff1602179055505b5b50565b80600460003373ffffffffffffffffffffffffffffffffffffffff1673ffffffffffffffffffffffffffffffffffffffff1681526020019081526020016000209080519060200190611173929190611247565b507fafcd305d01fcb20f07cdc4abcb1bebff5f85790e6d2143091c8b19d970e50b363382604051808373ffffffffffffffffffffffffffffffffffffffff1673ffffffffffffffffffffffffffffffffffffffff16815260200180602001828103825283818151815260200191508051906020019080838360005b838110156112095780820151818401526020810190506111ee565b50505050905090810190601f1680156112365780820380516001836020036101000a031916815260200191505b50935050505060405180910390a150565b828054600181600116156101000203166002900490600052602060002090601f016020900481019282601f1061128857805160ff19168380011785556112b6565b828001600101855582156112b6579182015b828111156112b557825182559160200191906001019061129a565b5b5090506112c391906112c7565b5090565b6112e991905b808211156112e55760008160009055506001016112cd565b5090565b905600a165627a7a72305820abd8161cf9115d86516e6dfcd39846e251051443a851d1fb20a65efac60bd4800029",
  "source": "pragma solidity ^0.4.17;\r\n\r\nimport \"./Accessible.sol\";\r\n\r\ncontract EduScience is Accessible {\r\n\r\n  // ---------------- Aunthentication part ---------------- //\r\n  struct User {\r\n    bytes32 name;\r\n  }\r\n\r\n  mapping (address => User) public users;\r\n\r\n  modifier onlyExistingUser {\r\n    // Check if user exists or terminate\r\n    require(!(users[msg.sender].name == 0x0));\r\n    _;\r\n  }\r\n\r\n  modifier onlyValidName(bytes32 name) {\r\n    // Only valid names allowed\r\n    require(!(name == 0x0));\r\n    _;\r\n  }\r\n\r\n  function login() public constant onlyExistingUser returns (bytes32) {\r\n    return (users[msg.sender].name);\r\n  }\r\n\r\n  // Precheck for user existance.\r\n  // constant -> do not modify the state of the contract (same as view).\r\n  function user(bytes32 name) public constant onlyValidName(name) returns (bytes32) {\r\n     if (users[msg.sender].name == 0x0) {\r\n        return \"null\";\r\n     }\r\n     return users[msg.sender].name;\r\n  }\r\n\r\n  function signup(bytes32 name) public payable onlyValidName(name) returns (bytes32) {\r\n    // Check if user exists\r\n    // If yes, return user name\r\n    // If no, check if name was sent\r\n    // If yes, create and return user\r\n    if (users[msg.sender].name == 0x0) {\r\n        users[msg.sender].name = name;\r\n        return (users[msg.sender].name);\r\n    }\r\n\r\n    return (users[msg.sender].name);\r\n  }\r\n\r\n  function update(bytes32 name) public payable onlyValidName(name) onlyExistingUser returns (bytes32) {\r\n    // Update user name\r\n    if (users[msg.sender].name != 0x0) {\r\n        users[msg.sender].name = name;\r\n        return (users[msg.sender].name);\r\n    }\r\n  }\r\n  // ---------------- Aunthentication part ---------------- //\r\n  // ----------------    IPFS test part    ---------------- //\r\n\r\n  mapping (address => string) public datas;\r\n\r\n  event Store(\r\n    address publisher,\r\n    string ipfsHash);\r\n\r\n  function storeData(string _ipfsHash) public {\r\n    datas[msg.sender] = _ipfsHash;\r\n    emit Store(msg.sender, _ipfsHash);\r\n  }\r\n\r\n  function getData() public constant returns (string) {\r\n    return datas[msg.sender];\r\n  }\r\n  // ----------------    IPFS test part    ---------------- //\r\n\r\n}",
  "sourcePath": "D:\\Thesis\\contracts\\EduScience.sol",
  "compiler": {
    "name": "solc",
    "version": "0.4.23+commit.124ca40d.Emscripten.clang"
  },
  "schemaVersion": "2.0.0",
  "updatedAt": "2018-06-14T19:33:25.241Z"
}