{
  "contractName": "EduScience",
  "abi": [
    {
      "constant": false,
      "inputs": [
        {
          "name": "newAccount",
          "type": "address"
        }
      ],
      "name": "grantAccess",
      "outputs": [],
      "payable": false,
      "stateMutability": "nonpayable",
      "type": "function"
    },
    {
      "constant": true,
      "inputs": [],
      "name": "numberOfAccounts",
      "outputs": [
        {
          "name": "",
          "type": "uint256"
        }
      ],
      "payable": false,
      "stateMutability": "view",
      "type": "function"
    },
    {
      "constant": false,
      "inputs": [],
      "name": "kill",
      "outputs": [],
      "payable": false,
      "stateMutability": "nonpayable",
      "type": "function"
    },
    {
      "constant": true,
      "inputs": [],
      "name": "accessFee",
      "outputs": [
        {
          "name": "",
          "type": "uint256"
        }
      ],
      "payable": false,
      "stateMutability": "view",
      "type": "function"
    },
    {
      "constant": true,
      "inputs": [],
      "name": "titlesCount",
      "outputs": [
        {
          "name": "",
          "type": "uint256"
        }
      ],
      "payable": false,
      "stateMutability": "view",
      "type": "function"
    },
    {
      "constant": true,
      "inputs": [],
      "name": "popularityFee",
      "outputs": [
        {
          "name": "",
          "type": "uint256"
        }
      ],
      "payable": false,
      "stateMutability": "view",
      "type": "function"
    },
    {
      "constant": true,
      "inputs": [
        {
          "name": "",
          "type": "address"
        }
      ],
      "name": "addressCount",
      "outputs": [
        {
          "name": "",
          "type": "uint256"
        }
      ],
      "payable": false,
      "stateMutability": "view",
      "type": "function"
    },
    {
      "constant": false,
      "inputs": [
        {
          "name": "removeAccount",
          "type": "address"
        }
      ],
      "name": "removeAccess",
      "outputs": [],
      "payable": false,
      "stateMutability": "nonpayable",
      "type": "function"
    },
    {
      "constant": true,
      "inputs": [],
      "name": "owner",
      "outputs": [
        {
          "name": "",
          "type": "address"
        }
      ],
      "payable": false,
      "stateMutability": "view",
      "type": "function"
    },
    {
      "constant": true,
      "inputs": [
        {
          "name": "",
          "type": "address"
        }
      ],
      "name": "users",
      "outputs": [
        {
          "name": "name",
          "type": "bytes32"
        }
      ],
      "payable": false,
      "stateMutability": "view",
      "type": "function"
    },
    {
      "constant": true,
      "inputs": [
        {
          "name": "",
          "type": "address"
        }
      ],
      "name": "allowedAccounts",
      "outputs": [
        {
          "name": "",
          "type": "bool"
        }
      ],
      "payable": false,
      "stateMutability": "view",
      "type": "function"
    },
    {
      "constant": false,
      "inputs": [
        {
          "name": "newOwner",
          "type": "address"
        }
      ],
      "name": "transferOwnership",
      "outputs": [],
      "payable": false,
      "stateMutability": "nonpayable",
      "type": "function"
    },
    {
      "inputs": [
        {
          "name": "_tokenContract",
          "type": "address"
        }
      ],
      "payable": false,
      "stateMutability": "nonpayable",
      "type": "constructor"
    },
    {
      "anonymous": false,
      "inputs": [
        {
          "indexed": false,
          "name": "publisher",
          "type": "address"
        },
        {
          "indexed": false,
          "name": "ipfsHash",
          "type": "string"
        }
      ],
      "name": "Store",
      "type": "event"
    },
    {
      "anonymous": false,
      "inputs": [
        {
          "indexed": false,
          "name": "newAccount",
          "type": "address"
        }
      ],
      "name": "AccessGranted",
      "type": "event"
    },
    {
      "anonymous": false,
      "inputs": [
        {
          "indexed": false,
          "name": "removedAccount",
          "type": "address"
        }
      ],
      "name": "AccessRemoved",
      "type": "event"
    },
    {
      "constant": false,
      "inputs": [
        {
          "name": "_ipfsHash",
          "type": "string"
        },
        {
          "name": "_title",
          "type": "bytes32"
        }
      ],
      "name": "publish",
      "outputs": [],
      "payable": false,
      "stateMutability": "nonpayable",
      "type": "function"
    },
    {
      "constant": true,
      "inputs": [
        {
          "name": "_index",
          "type": "uint256"
        }
      ],
      "name": "getTitle",
      "outputs": [
        {
          "name": "",
          "type": "bytes32"
        }
      ],
      "payable": false,
      "stateMutability": "view",
      "type": "function"
    },
    {
      "constant": true,
      "inputs": [
        {
          "name": "_title",
          "type": "bytes32"
        }
      ],
      "name": "getPublisher",
      "outputs": [
        {
          "name": "",
          "type": "address"
        }
      ],
      "payable": false,
      "stateMutability": "view",
      "type": "function"
    },
    {
      "constant": true,
      "inputs": [
        {
          "name": "_title",
          "type": "bytes32"
        }
      ],
      "name": "getPopularity",
      "outputs": [
        {
          "name": "",
          "type": "uint256"
        }
      ],
      "payable": false,
      "stateMutability": "view",
      "type": "function"
    },
    {
      "constant": true,
      "inputs": [
        {
          "name": "_title",
          "type": "bytes32"
        }
      ],
      "name": "getPublishTime",
      "outputs": [
        {
          "name": "",
          "type": "uint256"
        }
      ],
      "payable": false,
      "stateMutability": "view",
      "type": "function"
    },
    {
      "constant": false,
      "inputs": [
        {
          "name": "_title",
          "type": "bytes32"
        }
      ],
      "name": "getIpfsAfterTitle",
      "outputs": [
        {
          "name": "",
          "type": "string"
        }
      ],
      "payable": false,
      "stateMutability": "nonpayable",
      "type": "function"
    },
    {
      "constant": false,
      "inputs": [
        {
          "name": "_title",
          "type": "bytes32"
        }
      ],
      "name": "votePopularity",
      "outputs": [
        {
          "name": "",
          "type": "uint256"
        }
      ],
      "payable": false,
      "stateMutability": "nonpayable",
      "type": "function"
    },
    {
      "constant": true,
      "inputs": [
        {
          "name": "_index",
          "type": "uint256"
        }
      ],
      "name": "getTitleAddress",
      "outputs": [
        {
          "name": "",
          "type": "bytes32"
        }
      ],
      "payable": false,
      "stateMutability": "view",
      "type": "function"
    },
    {
      "constant": true,
      "inputs": [],
      "name": "login",
      "outputs": [
        {
          "name": "",
          "type": "bytes32"
        }
      ],
      "payable": false,
      "stateMutability": "view",
      "type": "function"
    },
    {
      "constant": true,
      "inputs": [
        {
          "name": "name",
          "type": "bytes32"
        }
      ],
      "name": "user",
      "outputs": [
        {
          "name": "",
          "type": "bytes32"
        }
      ],
      "payable": false,
      "stateMutability": "view",
      "type": "function"
    },
    {
      "constant": false,
      "inputs": [
        {
          "name": "name",
          "type": "bytes32"
        }
      ],
      "name": "signup",
      "outputs": [
        {
          "name": "",
          "type": "bytes32"
        }
      ],
      "payable": true,
      "stateMutability": "payable",
      "type": "function"
    },
    {
      "constant": false,
      "inputs": [
        {
          "name": "name",
          "type": "bytes32"
        }
      ],
      "name": "update",
      "outputs": [
        {
          "name": "",
          "type": "bytes32"
        }
      ],
      "payable": true,
      "stateMutability": "payable",
      "type": "function"
    }
  ],
  "bytecode": "0x60806040526006600a556002600b5534801561001a57600080fd5b5060405160208061223883398101806040528101908080519060200190929190505050336000806101000a81548173ffffffffffffffffffffffffffffffffffffffff021916908373ffffffffffffffffffffffffffffffffffffffff16021790555080600360006101000a81548173ffffffffffffffffffffffffffffffffffffffff021916908373ffffffffffffffffffffffffffffffffffffffff1602179055505061216a806100ce6000396000f30060806040526004361061013e576000357c0100000000000000000000000000000000000000000000000000000000900463ffffffff16806307be02fe146101435780630ae5e739146101b45780630dfb6615146101f75780630f03e4c31461024457806341c0e1b51461026f578063492b85cd146102865780635c1397de146102b15780636852a76a146102f157806369bc7bc91461031c5780636a7b988c146103475780638811a0ae1461038c5780638823da6c146103e35780638b147245146104265780638da5cb5b14610466578063929a79b1146104bd578063a56e7bae14610506578063a87430ba1461054f578063b34e97e8146105ae578063bfaec04e146105e1578063cb6cec4b14610658578063cd3c301114610702578063e04610ed14610747578063e775781b146107a2578063f2fde38b146107e7575b600080fd5b34801561014f57600080fd5b50610172600480360381019080803560001916906020019092919050505061082a565b604051808273ffffffffffffffffffffffffffffffffffffffff1673ffffffffffffffffffffffffffffffffffffffff16815260200191505060405180910390f35b3480156101c057600080fd5b506101f5600480360381019080803573ffffffffffffffffffffffffffffffffffffffff1690602001909291905050506108f8565b005b34801561020357600080fd5b506102266004803603810190808035600019169060200190929190505050610b19565b60405180826000191660001916815260200191505060405180910390f35b34801561025057600080fd5b50610259610bf9565b6040518082815260200191505060405180910390f35b34801561027b57600080fd5b50610284610bff565b005b34801561029257600080fd5b5061029b610c90565b6040518082815260200191505060405180910390f35b6102d36004803603810190808035600019169060200190929190505050610c96565b60405180826000191660001916815260200191505060405180910390f35b3480156102fd57600080fd5b50610306610de3565b6040518082815260200191505060405180910390f35b34801561032857600080fd5b50610331610de9565b6040518082815260200191505060405180910390f35b34801561035357600080fd5b506103766004803603810190808035600019169060200190929190505050610def565b6040518082815260200191505060405180910390f35b34801561039857600080fd5b506103cd600480360381019080803573ffffffffffffffffffffffffffffffffffffffff169060200190929190505050611028565b6040518082815260200191505060405180910390f35b3480156103ef57600080fd5b50610424600480360381019080803573ffffffffffffffffffffffffffffffffffffffff169060200190929190505050611040565b005b6104486004803603810190808035600019169060200190929190505050611228565b60405180826000191660001916815260200191505060405180910390f35b34801561047257600080fd5b5061047b61138a565b604051808273ffffffffffffffffffffffffffffffffffffffff1673ffffffffffffffffffffffffffffffffffffffff16815260200191505060405180910390f35b3480156104c957600080fd5b506104e8600480360381019080803590602001909291905050506113af565b60405180826000191660001916815260200191505060405180910390f35b34801561051257600080fd5b506105316004803603810190808035906020019092919050505061145a565b60405180826000191660001916815260200191505060405180910390f35b34801561055b57600080fd5b50610590600480360381019080803573ffffffffffffffffffffffffffffffffffffffff169060200190929190505050611572565b60405180826000191660001916815260200191505060405180910390f35b3480156105ba57600080fd5b506105c3611590565b60405180826000191660001916815260200191505060405180910390f35b3480156105ed57600080fd5b50610656600480360381019080803590602001908201803590602001908080601f01602080910402602001604051908101604052809392919081815260200183838082843782019150505050505091929192908035600019169060200190929190505050611632565b005b34801561066457600080fd5b506106876004803603810190808035600019169060200190929190505050611b7f565b6040518080602001828103825283818151815260200191508051906020019080838360005b838110156106c75780820151818401526020810190506106ac565b50505050905090810190601f1680156106f45780820380516001836020036101000a031916815260200191505b509250505060405180910390f35b34801561070e57600080fd5b506107316004803603810190808035600019169060200190929190505050611e45565b6040518082815260200191505060405180910390f35b34801561075357600080fd5b50610788600480360381019080803573ffffffffffffffffffffffffffffffffffffffff169060200190929190505050611ef3565b604051808215151515815260200191505060405180910390f35b3480156107ae57600080fd5b506107d16004803603810190808035600019169060200190929190505050611f13565b6040518082815260200191505060405180910390f35b3480156107f357600080fd5b50610828600480360381019080803573ffffffffffffffffffffffffffffffffffffffff169060200190929190505050611fc1565b005b600080600102600460003373ffffffffffffffffffffffffffffffffffffffff1673ffffffffffffffffffffffffffffffffffffffff16815260200190815260200160002060000154600019161415151561088457600080fd5b600060076000846000191660001916815260200190815260200160002060040154141515156108b257600080fd5b60076000836000191660001916815260200190815260200160002060010160009054906101000a900473ffffffffffffffffffffffffffffffffffffffff169050919050565b6000809054906101000a900473ffffffffffffffffffffffffffffffffffffffff1673ffffffffffffffffffffffffffffffffffffffff163373ffffffffffffffffffffffffffffffffffffffff16148061099c5750600160003373ffffffffffffffffffffffffffffffffffffffff1673ffffffffffffffffffffffffffffffffffffffff16815260200190815260200160002060009054906101000a900460ff165b15156109a757600080fd5b600073ffffffffffffffffffffffffffffffffffffffff168173ffffffffffffffffffffffffffffffffffffffff1614158015610a2e5750600160008273ffffffffffffffffffffffffffffffffffffffff1673ffffffffffffffffffffffffffffffffffffffff16815260200190815260200160002060009054906101000a900460ff16155b1515610a3957600080fd5b60018060008373ffffffffffffffffffffffffffffffffffffffff1673ffffffffffffffffffffffffffffffffffffffff16815260200190815260200160002060006101000a81548160ff0219169083151502179055506001600260008282540192505081905550600060025414151515610ab357600080fd5b7fdeb5c31899474fe8c086c95ff9344480d19365676a6a1d22d37bb8e3e7c0ef1881604051808273ffffffffffffffffffffffffffffffffffffffff1673ffffffffffffffffffffffffffffffffffffffff16815260200191505060405180910390a150565b6000816000600102816000191614151515610b3357600080fd5b6000600102600460003373ffffffffffffffffffffffffffffffffffffffff1673ffffffffffffffffffffffffffffffffffffffff16815260200190815260200160002060000154600019161415610bad577f6e756c6c000000000000000000000000000000000000000000000000000000009150610bf3565b600460003373ffffffffffffffffffffffffffffffffffffffff1673ffffffffffffffffffffffffffffffffffffffff1681526020019081526020016000206000015491505b50919050565b60025481565b6000809054906101000a900473ffffffffffffffffffffffffffffffffffffffff1673ffffffffffffffffffffffffffffffffffffffff163373ffffffffffffffffffffffffffffffffffffffff161415610c8e576000809054906101000a900473ffffffffffffffffffffffffffffffffffffffff1673ffffffffffffffffffffffffffffffffffffffff16ff5b565b600a5481565b6000816000600102816000191614151515610cb057600080fd5b6000600102600460003373ffffffffffffffffffffffffffffffffffffffff1673ffffffffffffffffffffffffffffffffffffffff16815260200190815260200160002060000154600019161415610d975782600460003373ffffffffffffffffffffffffffffffffffffffff1673ffffffffffffffffffffffffffffffffffffffff1681526020019081526020016000206000018160001916905550600460003373ffffffffffffffffffffffffffffffffffffffff1673ffffffffffffffffffffffffffffffffffffffff168152602001908152602001600020600001549150610ddd565b600460003373ffffffffffffffffffffffffffffffffffffffff1673ffffffffffffffffffffffffffffffffffffffff1681526020019081526020016000206000015491505b50919050565b60095481565b600b5481565b600080600102600460003373ffffffffffffffffffffffffffffffffffffffff1673ffffffffffffffffffffffffffffffffffffffff168152602001908152602001600020600001546000191614151515610e4957600080fd5b60006007600084600019166000191681526020019081526020016000206004015414151515610e7757600080fd5b600360009054906101000a900473ffffffffffffffffffffffffffffffffffffffff1673ffffffffffffffffffffffffffffffffffffffff1663beabacc83360076000866000191660001916815260200190815260200160002060010160009054906101000a900473ffffffffffffffffffffffffffffffffffffffff16600b546040518463ffffffff167c0100000000000000000000000000000000000000000000000000000000028152600401808473ffffffffffffffffffffffffffffffffffffffff1673ffffffffffffffffffffffffffffffffffffffff1681526020018373ffffffffffffffffffffffffffffffffffffffff1673ffffffffffffffffffffffffffffffffffffffff1681526020018281526020019350505050602060405180830381600087803b158015610fb057600080fd5b505af1158015610fc4573d6000803e3d6000fd5b505050506040513d6020811015610fda57600080fd5b81019080805190602001909291905050501515610ff657600080fd5b600760008360001916600019168152602001908152602001600020600301600081546001019190508190559050919050565b60066020528060005260406000206000915090505481565b6000809054906101000a900473ffffffffffffffffffffffffffffffffffffffff1673ffffffffffffffffffffffffffffffffffffffff163373ffffffffffffffffffffffffffffffffffffffff1614806110e45750600160003373ffffffffffffffffffffffffffffffffffffffff1673ffffffffffffffffffffffffffffffffffffffff16815260200190815260200160002060009054906101000a900460ff165b15156110ef57600080fd5b600160008273ffffffffffffffffffffffffffffffffffffffff1673ffffffffffffffffffffffffffffffffffffffff16815260200190815260200160002060009054906101000a900460ff16151561114757600080fd5b60016002541015151561115957600080fd5b6000600160008373ffffffffffffffffffffffffffffffffffffffff1673ffffffffffffffffffffffffffffffffffffffff16815260200190815260200160002060006101000a81548160ff02191690831515021790555060016002600082825403925050819055507f98a545f8b57e4017a42966cbf54a29f1c763b0c567482422ce13802069c5935181604051808273ffffffffffffffffffffffffffffffffffffffff1673ffffffffffffffffffffffffffffffffffffffff16815260200191505060405180910390a150565b600081600060010281600019161415151561124257600080fd5b6000600102600460003373ffffffffffffffffffffffffffffffffffffffff1673ffffffffffffffffffffffffffffffffffffffff16815260200190815260200160002060000154600019161415151561129b57600080fd5b6000600102600460003373ffffffffffffffffffffffffffffffffffffffff1673ffffffffffffffffffffffffffffffffffffffff16815260200190815260200160002060000154600019161415156113835782600460003373ffffffffffffffffffffffffffffffffffffffff1673ffffffffffffffffffffffffffffffffffffffff1681526020019081526020016000206000018160001916905550600460003373ffffffffffffffffffffffffffffffffffffffff1673ffffffffffffffffffffffffffffffffffffffff168152602001908152602001600020600001549150611384565b5b50919050565b6000809054906101000a900473ffffffffffffffffffffffffffffffffffffffff1681565b600080600102600460003373ffffffffffffffffffffffffffffffffffffffff1673ffffffffffffffffffffffffffffffffffffffff16815260200190815260200160002060000154600019161415151561140957600080fd5b600060010260088381548110151561141d57fe5b9060005260206000200154600019161415151561143957600080fd5b60088281548110151561144857fe5b90600052602060002001549050919050565b600080600102600460003373ffffffffffffffffffffffffffffffffffffffff1673ffffffffffffffffffffffffffffffffffffffff1681526020019081526020016000206000015460001916141515156114b457600080fd5b6000600560003373ffffffffffffffffffffffffffffffffffffffff1673ffffffffffffffffffffffffffffffffffffffff1681526020019081526020016000206000848152602001908152602001600020600401541415151561151757600080fd5b600560003373ffffffffffffffffffffffffffffffffffffffff1673ffffffffffffffffffffffffffffffffffffffff1681526020019081526020016000206000838152602001908152602001600020600201549050919050565b60046020528060005260406000206000915090508060000154905081565b600080600102600460003373ffffffffffffffffffffffffffffffffffffffff1673ffffffffffffffffffffffffffffffffffffffff1681526020019081526020016000206000015460001916141515156115ea57600080fd5b600460003373ffffffffffffffffffffffffffffffffffffffff1673ffffffffffffffffffffffffffffffffffffffff16815260200190815260200160002060000154905090565b600081600060010281600019161415151561164c57600080fd5b6000600102600460003373ffffffffffffffffffffffffffffffffffffffff1673ffffffffffffffffffffffffffffffffffffffff1681526020019081526020016000206000015460001916141515156116a557600080fd5b603284511015156116b557600080fd5b6000600760008560001916600019168152602001908152602001600020600401541415156116e257600080fd5b600660003373ffffffffffffffffffffffffffffffffffffffff1673ffffffffffffffffffffffffffffffffffffffff1681526020019081526020016000206000815460010191905081905591506009600081548092919060010191905055506000821415151561175257600080fd5b60006009541415151561176457600080fd5b83600560003373ffffffffffffffffffffffffffffffffffffffff1673ffffffffffffffffffffffffffffffffffffffff168152602001908152602001600020600084815260200190815260200160002060000190805190602001906117cb929190612099565b5033600560003373ffffffffffffffffffffffffffffffffffffffff1673ffffffffffffffffffffffffffffffffffffffff168152602001908152602001600020600084815260200190815260200160002060010160006101000a81548173ffffffffffffffffffffffffffffffffffffffff021916908373ffffffffffffffffffffffffffffffffffffffff16021790555082600560003373ffffffffffffffffffffffffffffffffffffffff1673ffffffffffffffffffffffffffffffffffffffff168152602001908152602001600020600084815260200190815260200160002060020181600019169055506000600560003373ffffffffffffffffffffffffffffffffffffffff1673ffffffffffffffffffffffffffffffffffffffff16815260200190815260200160002060008481526020019081526020016000206003018190555061191b612091565b600560003373ffffffffffffffffffffffffffffffffffffffff1673ffffffffffffffffffffffffffffffffffffffff1681526020019081526020016000206000848152602001908152602001600020600401819055508360076000856000191660001916815260200190815260200160002060000190805190602001906119a4929190612099565b503360076000856000191660001916815260200190815260200160002060010160006101000a81548173ffffffffffffffffffffffffffffffffffffffff021916908373ffffffffffffffffffffffffffffffffffffffff160217905550826007600085600019166000191681526020019081526020016000206002018160001916905550600060076000856000191660001916815260200190815260200160002060030181905550611a55612091565b6007600085600019166000191681526020019081526020016000206004018190555060088390806001815401808255809150509060018203906000526020600020016000909192909190915090600019169055507fafcd305d01fcb20f07cdc4abcb1bebff5f85790e6d2143091c8b19d970e50b363385604051808373ffffffffffffffffffffffffffffffffffffffff1673ffffffffffffffffffffffffffffffffffffffff16815260200180602001828103825283818151815260200191508051906020019080838360005b83811015611b3e578082015181840152602081019050611b23565b50505050905090810190601f168015611b6b5780820380516001836020036101000a031916815260200191505b50935050505060405180910390a150505050565b60606000600102600460003373ffffffffffffffffffffffffffffffffffffffff1673ffffffffffffffffffffffffffffffffffffffff168152602001908152602001600020600001546000191614151515611bda57600080fd5b60006007600084600019166000191681526020019081526020016000206004015414151515611c0857600080fd5b600360009054906101000a900473ffffffffffffffffffffffffffffffffffffffff1673ffffffffffffffffffffffffffffffffffffffff1663beabacc83360076000866000191660001916815260200190815260200160002060010160009054906101000a900473ffffffffffffffffffffffffffffffffffffffff16600a546040518463ffffffff167c0100000000000000000000000000000000000000000000000000000000028152600401808473ffffffffffffffffffffffffffffffffffffffff1673ffffffffffffffffffffffffffffffffffffffff1681526020018373ffffffffffffffffffffffffffffffffffffffff1673ffffffffffffffffffffffffffffffffffffffff1681526020018281526020019350505050602060405180830381600087803b158015611d4157600080fd5b505af1158015611d55573d6000803e3d6000fd5b505050506040513d6020811015611d6b57600080fd5b81019080805190602001909291905050501515611d8757600080fd5b6007600083600019166000191681526020019081526020016000206000018054600181600116156101000203166002900480601f016020809104026020016040519081016040528092919081815260200182805460018160011615610100020316600290048015611e395780601f10611e0e57610100808354040283529160200191611e39565b820191906000526020600020905b815481529060010190602001808311611e1c57829003601f168201915b50505050509050919050565b600080600102600460003373ffffffffffffffffffffffffffffffffffffffff1673ffffffffffffffffffffffffffffffffffffffff168152602001908152602001600020600001546000191614151515611e9f57600080fd5b60006007600084600019166000191681526020019081526020016000206004015414151515611ecd57600080fd5b600760008360001916600019168152602001908152602001600020600401549050919050565b60016020528060005260406000206000915054906101000a900460ff1681565b600080600102600460003373ffffffffffffffffffffffffffffffffffffffff1673ffffffffffffffffffffffffffffffffffffffff168152602001908152602001600020600001546000191614151515611f6d57600080fd5b60006007600084600019166000191681526020019081526020016000206004015414151515611f9b57600080fd5b600760008360001916600019168152602001908152602001600020600301549050919050565b6000809054906101000a900473ffffffffffffffffffffffffffffffffffffffff1673ffffffffffffffffffffffffffffffffffffffff163373ffffffffffffffffffffffffffffffffffffffff16141561208e57600073ffffffffffffffffffffffffffffffffffffffff168173ffffffffffffffffffffffffffffffffffffffff1614151561208d57806000806101000a81548173ffffffffffffffffffffffffffffffffffffffff021916908373ffffffffffffffffffffffffffffffffffffffff1602179055505b5b50565b600042905090565b828054600181600116156101000203166002900490600052602060002090601f016020900481019282601f106120da57805160ff1916838001178555612108565b82800160010185558215612108579182015b828111156121075782518255916020019190600101906120ec565b5b5090506121159190612119565b5090565b61213b91905b8082111561213757600081600090555060010161211f565b5090565b905600a165627a7a723058204779adab491d1cd29bdf2462194999b2d28b279cd19185867edbe3fdb53d19760029",
  "source": "pragma solidity ^0.4.17;\r\n\r\nimport \"./Accessible.sol\";\r\nimport \"./EduScienceToken.sol\";\r\n\r\ncontract EduScience is Accessible {\r\n\r\n  // All state variables have an initial state!!!\r\n\r\n  struct User {\r\n    bytes32 name;\r\n  }\r\n\r\n  // ----------------    IPFS final part   ---------------- //\r\n\r\n  // title must be bytes to use it as a key for mapping, string is not supported\r\n  struct Data {\r\n    // The link to the stored data\r\n    string ipfsHash;\r\n    // Publisher unique address\r\n    address publisher;\r\n    // Title of the data\r\n    bytes32 title;\r\n    // Popularity, can be voted up/down\r\n    uint256 popularity;\r\n    // For existence check\r\n    uint256 time;\r\n  }\r\n\r\n  EduScienceToken private tokenContract;\r\n\r\n  mapping (address => User) public users;\r\n\r\n  // A\r\n  // 1 address -> 1,2,...n -> data1,data2,...datan\r\n  mapping (address => mapping (uint256 => Data)) private addressData;\r\n  // 1 address -> n\r\n  mapping (address => uint256) public addressCount;\r\n  // 1 title -> 1 data\r\n  \r\n  // B\r\n  mapping (bytes32 => Data) private titleData;\r\n  // All titles of data\r\n  bytes32[] private titles;\r\n  // Titles count\r\n  uint256 public titlesCount;\r\n  uint256 public accessFee = 6;\r\n  uint256 public popularityFee = 2;\r\n\r\n  // bytes not supported for ipfsHash -> utf58 encoding, not utf8 provided by web3\r\n  event Store(\r\n     address publisher,\r\n     string ipfsHash);\r\n\r\n  modifier onlyExistingUser {\r\n    // Check if user exists or terminate\r\n    require(!(users[msg.sender].name == 0x0));\r\n    _;\r\n  }\r\n\r\n  modifier onlyValidName(bytes32 name) {\r\n    // Only valid names allowed\r\n    require(!(name == 0x0));\r\n    _;\r\n  }\r\n\r\n  constructor(EduScienceToken _tokenContract) public {\r\n    tokenContract = _tokenContract;\r\n  }\r\n\r\n  function publish(string _ipfsHash, bytes32 _title) public onlyValidName(_title) onlyExistingUser {\r\n    require (bytes(_ipfsHash).length < 50);\r\n    // Must be an empty slot\r\n    require (titleData[_title].time == 0);\r\n\r\n    // on entry 0 nothing stored\r\n    uint256 n = ++addressCount[msg.sender];\r\n    titlesCount++;\r\n\r\n    require (n != 0);\r\n    require (titlesCount != 0);\r\n\r\n    addressData[msg.sender][n].ipfsHash = _ipfsHash;\r\n    addressData[msg.sender][n].publisher = msg.sender;\r\n    addressData[msg.sender][n].title = _title;\r\n    addressData[msg.sender][n].popularity = 0;\r\n    addressData[msg.sender][n].time = getTimestamp();\r\n\r\n    titleData[_title].ipfsHash = _ipfsHash;\r\n    titleData[_title].publisher = msg.sender;\r\n    titleData[_title].title = _title;\r\n    titleData[_title].popularity = 0;\r\n    titleData[_title].time = getTimestamp();\r\n\r\n    titles.push(_title);\r\n\r\n    emit Store(msg.sender, _ipfsHash);\r\n  }\r\n\r\n  // ~~~Search after Title~~~\r\n\r\n  // For the list population.\r\n  function getTitle(uint256 _index) constant public onlyExistingUser returns (bytes32) {\r\n    // Check if data exists for this entry\r\n    require (titles[_index] != 0x0);\r\n    return titles[_index];\r\n  }\r\n\r\n  function getPublisher(bytes32 _title) constant public onlyExistingUser returns (address) {\r\n    // Check if data exists for this entry\r\n    require (titleData[_title].time != 0);\r\n    return titleData[_title].publisher;\r\n  }\r\n\r\n  function getPopularity(bytes32 _title) constant public onlyExistingUser returns (uint256) {\r\n    // Check if data exists for this entry\r\n    require (titleData[_title].time != 0);\r\n    return titleData[_title].popularity;\r\n  }\r\n\r\n  function getPublishTime(bytes32 _title) constant public onlyExistingUser returns (uint256) {\r\n    // Check if data exists for this entry\r\n    require (titleData[_title].time != 0);\r\n    return titleData[_title].time;\r\n  }\r\n\r\n  function getIpfsAfterTitle(bytes32 _title) public onlyExistingUser returns (string) {\r\n    // Check if data exists for this entry\r\n    require (titleData[_title].time != 0);\r\n    // Make the transaction fee first\r\n    require (tokenContract.transfer(msg.sender, titleData[_title].publisher, accessFee));\r\n    return titleData[_title].ipfsHash;\r\n  }\r\n\r\n  function votePopularity(bytes32 _title) public onlyExistingUser returns (uint256) {\r\n    // Check if data exists for this entry\r\n    require (titleData[_title].time != 0);\r\n    // Make the transaction fee first\r\n    require (tokenContract.transfer(msg.sender, titleData[_title].publisher, popularityFee));\r\n    return ++titleData[_title].popularity;\r\n  }\r\n\r\n  // ~~~Search after Title~~~\r\n\r\n  // ~~~Search after Address~~~\r\n\r\n  function getTitleAddress(uint256 _index) constant public onlyExistingUser returns (bytes32) {\r\n    require (addressData[msg.sender][_index].time != 0);\r\n    return addressData[msg.sender][_index].title;\r\n  }\r\n\r\n  // ~~~Search after Address~~~\r\n\r\n  function getTimestamp() internal view returns (uint256) {\r\n    return now;\r\n  }\r\n\r\n  function getBlockNumber() internal view returns (uint256) {\r\n    return block.number;\r\n  }\r\n\r\n  // ----------------    IPFS final part   ---------------- //\r\n\r\n  // ---------------- Aunthentication part ---------------- //\r\n\r\n  function login() public constant onlyExistingUser returns (bytes32) {\r\n    return (users[msg.sender].name);\r\n  }\r\n\r\n  // Precheck for user existance.\r\n  // constant -> do not modify the state of the contract (same as view).\r\n  function user(bytes32 name) public constant onlyValidName(name) returns (bytes32) {\r\n     if (users[msg.sender].name == 0x0) {\r\n        return \"null\";\r\n     }\r\n     return users[msg.sender].name;\r\n  }\r\n\r\n  function signup(bytes32 name) public payable onlyValidName(name) returns (bytes32) {\r\n    // Check if user exists\r\n    // If yes, return user name\r\n    // If no, check if name was sent\r\n    // If yes, create and return user\r\n    if (users[msg.sender].name == 0x0) {\r\n        users[msg.sender].name = name;\r\n        return (users[msg.sender].name);\r\n    }\r\n\r\n    return (users[msg.sender].name);\r\n  }\r\n\r\n  function update(bytes32 name) public payable onlyValidName(name) onlyExistingUser returns (bytes32) {\r\n    // Update user name\r\n    if (users[msg.sender].name != 0x0) {\r\n        users[msg.sender].name = name;\r\n        return (users[msg.sender].name);\r\n    }\r\n  }\r\n  // ---------------- Aunthentication part ---------------- //\r\n\r\n  // ----------------    IPFS test part    ---------------- //\r\n\r\n  // mapping (address => string) public datas;\r\n\r\n  // event Store(\r\n  //   address publisher,\r\n  //   string ipfsHash);\r\n\r\n  // function storeData(string _ipfsHash) public {\r\n  //   datas[msg.sender] = _ipfsHash;\r\n  //   emit Store(msg.sender, _ipfsHash);\r\n  // }\r\n\r\n  // function getData() public constant returns (string) {\r\n  //   return datas[msg.sender];\r\n  // }\r\n\r\n  // ----------------    IPFS test part    ---------------- //\r\n}",
  "sourcePath": "D:\\Thesis\\contracts\\EduScience.sol",
  "compiler": {
    "name": "solc",
    "version": "0.4.23+commit.124ca40d.Emscripten.clang"
  },
  "schemaVersion": "2.0.0",
  "updatedAt": "2018-06-16T20:27:57.577Z"
}