{
  "contractName": "EduScience",
  "abi": [
    {
      "constant": false,
      "inputs": [
        {
          "name": "newAccount",
          "type": "address"
        }
      ],
      "name": "grantAccess",
      "outputs": [],
      "payable": false,
      "stateMutability": "nonpayable",
      "type": "function"
    },
    {
      "constant": true,
      "inputs": [],
      "name": "numberOfAccounts",
      "outputs": [
        {
          "name": "",
          "type": "uint256"
        }
      ],
      "payable": false,
      "stateMutability": "view",
      "type": "function"
    },
    {
      "constant": false,
      "inputs": [],
      "name": "kill",
      "outputs": [],
      "payable": false,
      "stateMutability": "nonpayable",
      "type": "function"
    },
    {
      "constant": true,
      "inputs": [],
      "name": "accessFee",
      "outputs": [
        {
          "name": "",
          "type": "uint256"
        }
      ],
      "payable": false,
      "stateMutability": "view",
      "type": "function"
    },
    {
      "constant": true,
      "inputs": [],
      "name": "titlesCount",
      "outputs": [
        {
          "name": "",
          "type": "uint256"
        }
      ],
      "payable": false,
      "stateMutability": "view",
      "type": "function"
    },
    {
      "constant": true,
      "inputs": [],
      "name": "popularityFee",
      "outputs": [
        {
          "name": "",
          "type": "uint256"
        }
      ],
      "payable": false,
      "stateMutability": "view",
      "type": "function"
    },
    {
      "constant": true,
      "inputs": [
        {
          "name": "",
          "type": "address"
        }
      ],
      "name": "addressCount",
      "outputs": [
        {
          "name": "",
          "type": "uint256"
        }
      ],
      "payable": false,
      "stateMutability": "view",
      "type": "function"
    },
    {
      "constant": false,
      "inputs": [
        {
          "name": "removeAccount",
          "type": "address"
        }
      ],
      "name": "removeAccess",
      "outputs": [],
      "payable": false,
      "stateMutability": "nonpayable",
      "type": "function"
    },
    {
      "constant": true,
      "inputs": [],
      "name": "owner",
      "outputs": [
        {
          "name": "",
          "type": "address"
        }
      ],
      "payable": false,
      "stateMutability": "view",
      "type": "function"
    },
    {
      "constant": true,
      "inputs": [
        {
          "name": "",
          "type": "address"
        }
      ],
      "name": "users",
      "outputs": [
        {
          "name": "name",
          "type": "bytes32"
        }
      ],
      "payable": false,
      "stateMutability": "view",
      "type": "function"
    },
    {
      "constant": true,
      "inputs": [
        {
          "name": "",
          "type": "address"
        }
      ],
      "name": "allowedAccounts",
      "outputs": [
        {
          "name": "",
          "type": "bool"
        }
      ],
      "payable": false,
      "stateMutability": "view",
      "type": "function"
    },
    {
      "constant": false,
      "inputs": [
        {
          "name": "newOwner",
          "type": "address"
        }
      ],
      "name": "transferOwnership",
      "outputs": [],
      "payable": false,
      "stateMutability": "nonpayable",
      "type": "function"
    },
    {
      "inputs": [
        {
          "name": "_tokenContract",
          "type": "address"
        }
      ],
      "payable": false,
      "stateMutability": "nonpayable",
      "type": "constructor"
    },
    {
      "anonymous": false,
      "inputs": [
        {
          "indexed": false,
          "name": "publisher",
          "type": "address"
        },
        {
          "indexed": false,
          "name": "ipfsHash",
          "type": "string"
        }
      ],
      "name": "Store",
      "type": "event"
    },
    {
      "anonymous": false,
      "inputs": [
        {
          "indexed": false,
          "name": "newAccount",
          "type": "address"
        }
      ],
      "name": "AccessGranted",
      "type": "event"
    },
    {
      "anonymous": false,
      "inputs": [
        {
          "indexed": false,
          "name": "removedAccount",
          "type": "address"
        }
      ],
      "name": "AccessRemoved",
      "type": "event"
    },
    {
      "constant": false,
      "inputs": [
        {
          "name": "_ipfsHash",
          "type": "string"
        },
        {
          "name": "_title",
          "type": "bytes32"
        }
      ],
      "name": "publish",
      "outputs": [],
      "payable": false,
      "stateMutability": "nonpayable",
      "type": "function"
    },
    {
      "constant": true,
      "inputs": [
        {
          "name": "_index",
          "type": "uint256"
        }
      ],
      "name": "getTitle",
      "outputs": [
        {
          "name": "",
          "type": "bytes32"
        }
      ],
      "payable": false,
      "stateMutability": "view",
      "type": "function"
    },
    {
      "constant": true,
      "inputs": [
        {
          "name": "_title",
          "type": "bytes32"
        }
      ],
      "name": "getPublisher",
      "outputs": [
        {
          "name": "",
          "type": "address"
        }
      ],
      "payable": false,
      "stateMutability": "view",
      "type": "function"
    },
    {
      "constant": true,
      "inputs": [
        {
          "name": "_title",
          "type": "bytes32"
        }
      ],
      "name": "getPopularity",
      "outputs": [
        {
          "name": "",
          "type": "uint256"
        }
      ],
      "payable": false,
      "stateMutability": "view",
      "type": "function"
    },
    {
      "constant": true,
      "inputs": [
        {
          "name": "_title",
          "type": "bytes32"
        }
      ],
      "name": "getPublishTime",
      "outputs": [
        {
          "name": "",
          "type": "uint256"
        }
      ],
      "payable": false,
      "stateMutability": "view",
      "type": "function"
    },
    {
      "constant": false,
      "inputs": [
        {
          "name": "_title",
          "type": "bytes32"
        }
      ],
      "name": "getIpfsAfterTitle",
      "outputs": [
        {
          "name": "",
          "type": "string"
        }
      ],
      "payable": false,
      "stateMutability": "nonpayable",
      "type": "function"
    },
    {
      "constant": false,
      "inputs": [
        {
          "name": "_title",
          "type": "bytes32"
        }
      ],
      "name": "votePopularity",
      "outputs": [
        {
          "name": "",
          "type": "uint256"
        }
      ],
      "payable": false,
      "stateMutability": "nonpayable",
      "type": "function"
    },
    {
      "constant": true,
      "inputs": [],
      "name": "login",
      "outputs": [
        {
          "name": "",
          "type": "bytes32"
        }
      ],
      "payable": false,
      "stateMutability": "view",
      "type": "function"
    },
    {
      "constant": true,
      "inputs": [
        {
          "name": "name",
          "type": "bytes32"
        }
      ],
      "name": "user",
      "outputs": [
        {
          "name": "",
          "type": "bytes32"
        }
      ],
      "payable": false,
      "stateMutability": "view",
      "type": "function"
    },
    {
      "constant": false,
      "inputs": [
        {
          "name": "name",
          "type": "bytes32"
        }
      ],
      "name": "signup",
      "outputs": [
        {
          "name": "",
          "type": "bytes32"
        }
      ],
      "payable": true,
      "stateMutability": "payable",
      "type": "function"
    },
    {
      "constant": false,
      "inputs": [
        {
          "name": "name",
          "type": "bytes32"
        }
      ],
      "name": "update",
      "outputs": [
        {
          "name": "",
          "type": "bytes32"
        }
      ],
      "payable": true,
      "stateMutability": "payable",
      "type": "function"
    }
  ],
  "bytecode": "0x60806040526006600a556002600b5534801561001a57600080fd5b5060405160208061209f83398101806040528101908080519060200190929190505050336000806101000a81548173ffffffffffffffffffffffffffffffffffffffff021916908373ffffffffffffffffffffffffffffffffffffffff16021790555080600360006101000a81548173ffffffffffffffffffffffffffffffffffffffff021916908373ffffffffffffffffffffffffffffffffffffffff16021790555050611fd1806100ce6000396000f300608060405260043610610133576000357c0100000000000000000000000000000000000000000000000000000000900463ffffffff16806307be02fe146101385780630ae5e739146101a95780630dfb6615146101ec5780630f03e4c31461023957806341c0e1b514610264578063492b85cd1461027b5780635c1397de146102a65780636852a76a146102e657806369bc7bc9146103115780636a7b988c1461033c5780638811a0ae146103815780638823da6c146103d85780638b1472451461041b5780638da5cb5b1461045b578063929a79b1146104b2578063a87430ba146104fb578063b34e97e81461055a578063bfaec04e1461058d578063cb6cec4b14610604578063cd3c3011146106ae578063e04610ed146106f3578063e775781b1461074e578063f2fde38b14610793575b600080fd5b34801561014457600080fd5b5061016760048036038101908080356000191690602001909291905050506107d6565b604051808273ffffffffffffffffffffffffffffffffffffffff1673ffffffffffffffffffffffffffffffffffffffff16815260200191505060405180910390f35b3480156101b557600080fd5b506101ea600480360381019080803573ffffffffffffffffffffffffffffffffffffffff1690602001909291905050506108a4565b005b3480156101f857600080fd5b5061021b6004803603810190808035600019169060200190929190505050610ac5565b60405180826000191660001916815260200191505060405180910390f35b34801561024557600080fd5b5061024e610ba5565b6040518082815260200191505060405180910390f35b34801561027057600080fd5b50610279610bab565b005b34801561028757600080fd5b50610290610c3c565b6040518082815260200191505060405180910390f35b6102c86004803603810190808035600019169060200190929190505050610c42565b60405180826000191660001916815260200191505060405180910390f35b3480156102f257600080fd5b506102fb610d8f565b6040518082815260200191505060405180910390f35b34801561031d57600080fd5b50610326610d95565b6040518082815260200191505060405180910390f35b34801561034857600080fd5b5061036b6004803603810190808035600019169060200190929190505050610d9b565b6040518082815260200191505060405180910390f35b34801561038d57600080fd5b506103c2600480360381019080803573ffffffffffffffffffffffffffffffffffffffff169060200190929190505050610fd4565b6040518082815260200191505060405180910390f35b3480156103e457600080fd5b50610419600480360381019080803573ffffffffffffffffffffffffffffffffffffffff169060200190929190505050610fec565b005b61043d60048036038101908080356000191690602001909291905050506111d4565b60405180826000191660001916815260200191505060405180910390f35b34801561046757600080fd5b50610470611336565b604051808273ffffffffffffffffffffffffffffffffffffffff1673ffffffffffffffffffffffffffffffffffffffff16815260200191505060405180910390f35b3480156104be57600080fd5b506104dd6004803603810190808035906020019092919050505061135b565b60405180826000191660001916815260200191505060405180910390f35b34801561050757600080fd5b5061053c600480360381019080803573ffffffffffffffffffffffffffffffffffffffff169060200190929190505050611406565b60405180826000191660001916815260200191505060405180910390f35b34801561056657600080fd5b5061056f611424565b60405180826000191660001916815260200191505060405180910390f35b34801561059957600080fd5b50610602600480360381019080803590602001908201803590602001908080601f016020809104026020016040519081016040528093929190818152602001838380828437820191505050505050919291929080356000191690602001909291905050506114c6565b005b34801561061057600080fd5b5061063360048036038101908080356000191690602001909291905050506119e6565b6040518080602001828103825283818151815260200191508051906020019080838360005b83811015610673578082015181840152602081019050610658565b50505050905090810190601f1680156106a05780820380516001836020036101000a031916815260200191505b509250505060405180910390f35b3480156106ba57600080fd5b506106dd6004803603810190808035600019169060200190929190505050611cac565b6040518082815260200191505060405180910390f35b3480156106ff57600080fd5b50610734600480360381019080803573ffffffffffffffffffffffffffffffffffffffff169060200190929190505050611d5a565b604051808215151515815260200191505060405180910390f35b34801561075a57600080fd5b5061077d6004803603810190808035600019169060200190929190505050611d7a565b6040518082815260200191505060405180910390f35b34801561079f57600080fd5b506107d4600480360381019080803573ffffffffffffffffffffffffffffffffffffffff169060200190929190505050611e28565b005b600080600102600460003373ffffffffffffffffffffffffffffffffffffffff1673ffffffffffffffffffffffffffffffffffffffff16815260200190815260200160002060000154600019161415151561083057600080fd5b6000600760008460001916600019168152602001908152602001600020600401541415151561085e57600080fd5b60076000836000191660001916815260200190815260200160002060010160009054906101000a900473ffffffffffffffffffffffffffffffffffffffff169050919050565b6000809054906101000a900473ffffffffffffffffffffffffffffffffffffffff1673ffffffffffffffffffffffffffffffffffffffff163373ffffffffffffffffffffffffffffffffffffffff1614806109485750600160003373ffffffffffffffffffffffffffffffffffffffff1673ffffffffffffffffffffffffffffffffffffffff16815260200190815260200160002060009054906101000a900460ff165b151561095357600080fd5b600073ffffffffffffffffffffffffffffffffffffffff168173ffffffffffffffffffffffffffffffffffffffff16141580156109da5750600160008273ffffffffffffffffffffffffffffffffffffffff1673ffffffffffffffffffffffffffffffffffffffff16815260200190815260200160002060009054906101000a900460ff16155b15156109e557600080fd5b60018060008373ffffffffffffffffffffffffffffffffffffffff1673ffffffffffffffffffffffffffffffffffffffff16815260200190815260200160002060006101000a81548160ff0219169083151502179055506001600260008282540192505081905550600060025414151515610a5f57600080fd5b7fdeb5c31899474fe8c086c95ff9344480d19365676a6a1d22d37bb8e3e7c0ef1881604051808273ffffffffffffffffffffffffffffffffffffffff1673ffffffffffffffffffffffffffffffffffffffff16815260200191505060405180910390a150565b6000816000600102816000191614151515610adf57600080fd5b6000600102600460003373ffffffffffffffffffffffffffffffffffffffff1673ffffffffffffffffffffffffffffffffffffffff16815260200190815260200160002060000154600019161415610b59577f6e756c6c000000000000000000000000000000000000000000000000000000009150610b9f565b600460003373ffffffffffffffffffffffffffffffffffffffff1673ffffffffffffffffffffffffffffffffffffffff1681526020019081526020016000206000015491505b50919050565b60025481565b6000809054906101000a900473ffffffffffffffffffffffffffffffffffffffff1673ffffffffffffffffffffffffffffffffffffffff163373ffffffffffffffffffffffffffffffffffffffff161415610c3a576000809054906101000a900473ffffffffffffffffffffffffffffffffffffffff1673ffffffffffffffffffffffffffffffffffffffff16ff5b565b600a5481565b6000816000600102816000191614151515610c5c57600080fd5b6000600102600460003373ffffffffffffffffffffffffffffffffffffffff1673ffffffffffffffffffffffffffffffffffffffff16815260200190815260200160002060000154600019161415610d435782600460003373ffffffffffffffffffffffffffffffffffffffff1673ffffffffffffffffffffffffffffffffffffffff1681526020019081526020016000206000018160001916905550600460003373ffffffffffffffffffffffffffffffffffffffff1673ffffffffffffffffffffffffffffffffffffffff168152602001908152602001600020600001549150610d89565b600460003373ffffffffffffffffffffffffffffffffffffffff1673ffffffffffffffffffffffffffffffffffffffff1681526020019081526020016000206000015491505b50919050565b60095481565b600b5481565b600080600102600460003373ffffffffffffffffffffffffffffffffffffffff1673ffffffffffffffffffffffffffffffffffffffff168152602001908152602001600020600001546000191614151515610df557600080fd5b60006007600084600019166000191681526020019081526020016000206004015414151515610e2357600080fd5b600360009054906101000a900473ffffffffffffffffffffffffffffffffffffffff1673ffffffffffffffffffffffffffffffffffffffff1663beabacc83360076000866000191660001916815260200190815260200160002060010160009054906101000a900473ffffffffffffffffffffffffffffffffffffffff16600b546040518463ffffffff167c0100000000000000000000000000000000000000000000000000000000028152600401808473ffffffffffffffffffffffffffffffffffffffff1673ffffffffffffffffffffffffffffffffffffffff1681526020018373ffffffffffffffffffffffffffffffffffffffff1673ffffffffffffffffffffffffffffffffffffffff1681526020018281526020019350505050602060405180830381600087803b158015610f5c57600080fd5b505af1158015610f70573d6000803e3d6000fd5b505050506040513d6020811015610f8657600080fd5b81019080805190602001909291905050501515610fa257600080fd5b600760008360001916600019168152602001908152602001600020600301600081546001019190508190559050919050565b60066020528060005260406000206000915090505481565b6000809054906101000a900473ffffffffffffffffffffffffffffffffffffffff1673ffffffffffffffffffffffffffffffffffffffff163373ffffffffffffffffffffffffffffffffffffffff1614806110905750600160003373ffffffffffffffffffffffffffffffffffffffff1673ffffffffffffffffffffffffffffffffffffffff16815260200190815260200160002060009054906101000a900460ff165b151561109b57600080fd5b600160008273ffffffffffffffffffffffffffffffffffffffff1673ffffffffffffffffffffffffffffffffffffffff16815260200190815260200160002060009054906101000a900460ff1615156110f357600080fd5b60016002541015151561110557600080fd5b6000600160008373ffffffffffffffffffffffffffffffffffffffff1673ffffffffffffffffffffffffffffffffffffffff16815260200190815260200160002060006101000a81548160ff02191690831515021790555060016002600082825403925050819055507f98a545f8b57e4017a42966cbf54a29f1c763b0c567482422ce13802069c5935181604051808273ffffffffffffffffffffffffffffffffffffffff1673ffffffffffffffffffffffffffffffffffffffff16815260200191505060405180910390a150565b60008160006001028160001916141515156111ee57600080fd5b6000600102600460003373ffffffffffffffffffffffffffffffffffffffff1673ffffffffffffffffffffffffffffffffffffffff16815260200190815260200160002060000154600019161415151561124757600080fd5b6000600102600460003373ffffffffffffffffffffffffffffffffffffffff1673ffffffffffffffffffffffffffffffffffffffff168152602001908152602001600020600001546000191614151561132f5782600460003373ffffffffffffffffffffffffffffffffffffffff1673ffffffffffffffffffffffffffffffffffffffff1681526020019081526020016000206000018160001916905550600460003373ffffffffffffffffffffffffffffffffffffffff1673ffffffffffffffffffffffffffffffffffffffff168152602001908152602001600020600001549150611330565b5b50919050565b6000809054906101000a900473ffffffffffffffffffffffffffffffffffffffff1681565b600080600102600460003373ffffffffffffffffffffffffffffffffffffffff1673ffffffffffffffffffffffffffffffffffffffff1681526020019081526020016000206000015460001916141515156113b557600080fd5b60006001026008838154811015156113c957fe5b906000526020600020015460001916141515156113e557600080fd5b6008828154811015156113f457fe5b90600052602060002001549050919050565b60046020528060005260406000206000915090508060000154905081565b600080600102600460003373ffffffffffffffffffffffffffffffffffffffff1673ffffffffffffffffffffffffffffffffffffffff16815260200190815260200160002060000154600019161415151561147e57600080fd5b600460003373ffffffffffffffffffffffffffffffffffffffff1673ffffffffffffffffffffffffffffffffffffffff16815260200190815260200160002060000154905090565b60008160006001028160001916141515156114e057600080fd5b6000600102600460003373ffffffffffffffffffffffffffffffffffffffff1673ffffffffffffffffffffffffffffffffffffffff16815260200190815260200160002060000154600019161415151561153957600080fd5b6032845110151561154957600080fd5b600660003373ffffffffffffffffffffffffffffffffffffffff1673ffffffffffffffffffffffffffffffffffffffff168152602001908152602001600020600081546001019190508190559150600960008154809291906001019190505550600082141515156115b957600080fd5b6000600954141515156115cb57600080fd5b83600560003373ffffffffffffffffffffffffffffffffffffffff1673ffffffffffffffffffffffffffffffffffffffff16815260200190815260200160002060008481526020019081526020016000206000019080519060200190611632929190611f00565b5033600560003373ffffffffffffffffffffffffffffffffffffffff1673ffffffffffffffffffffffffffffffffffffffff168152602001908152602001600020600084815260200190815260200160002060010160006101000a81548173ffffffffffffffffffffffffffffffffffffffff021916908373ffffffffffffffffffffffffffffffffffffffff16021790555082600560003373ffffffffffffffffffffffffffffffffffffffff1673ffffffffffffffffffffffffffffffffffffffff168152602001908152602001600020600084815260200190815260200160002060020181600019169055506000600560003373ffffffffffffffffffffffffffffffffffffffff1673ffffffffffffffffffffffffffffffffffffffff168152602001908152602001600020600084815260200190815260200160002060030181905550611782611ef8565b600560003373ffffffffffffffffffffffffffffffffffffffff1673ffffffffffffffffffffffffffffffffffffffff16815260200190815260200160002060008481526020019081526020016000206004018190555083600760008560001916600019168152602001908152602001600020600001908051906020019061180b929190611f00565b503360076000856000191660001916815260200190815260200160002060010160006101000a81548173ffffffffffffffffffffffffffffffffffffffff021916908373ffffffffffffffffffffffffffffffffffffffff1602179055508260076000856000191660001916815260200190815260200160002060020181600019169055506000600760008560001916600019168152602001908152602001600020600301819055506118bc611ef8565b6007600085600019166000191681526020019081526020016000206004018190555060088390806001815401808255809150509060018203906000526020600020016000909192909190915090600019169055507fafcd305d01fcb20f07cdc4abcb1bebff5f85790e6d2143091c8b19d970e50b363385604051808373ffffffffffffffffffffffffffffffffffffffff1673ffffffffffffffffffffffffffffffffffffffff16815260200180602001828103825283818151815260200191508051906020019080838360005b838110156119a557808201518184015260208101905061198a565b50505050905090810190601f1680156119d25780820380516001836020036101000a031916815260200191505b50935050505060405180910390a150505050565b60606000600102600460003373ffffffffffffffffffffffffffffffffffffffff1673ffffffffffffffffffffffffffffffffffffffff168152602001908152602001600020600001546000191614151515611a4157600080fd5b60006007600084600019166000191681526020019081526020016000206004015414151515611a6f57600080fd5b600360009054906101000a900473ffffffffffffffffffffffffffffffffffffffff1673ffffffffffffffffffffffffffffffffffffffff1663beabacc83360076000866000191660001916815260200190815260200160002060010160009054906101000a900473ffffffffffffffffffffffffffffffffffffffff16600a546040518463ffffffff167c0100000000000000000000000000000000000000000000000000000000028152600401808473ffffffffffffffffffffffffffffffffffffffff1673ffffffffffffffffffffffffffffffffffffffff1681526020018373ffffffffffffffffffffffffffffffffffffffff1673ffffffffffffffffffffffffffffffffffffffff1681526020018281526020019350505050602060405180830381600087803b158015611ba857600080fd5b505af1158015611bbc573d6000803e3d6000fd5b505050506040513d6020811015611bd257600080fd5b81019080805190602001909291905050501515611bee57600080fd5b6007600083600019166000191681526020019081526020016000206000018054600181600116156101000203166002900480601f016020809104026020016040519081016040528092919081815260200182805460018160011615610100020316600290048015611ca05780601f10611c7557610100808354040283529160200191611ca0565b820191906000526020600020905b815481529060010190602001808311611c8357829003601f168201915b50505050509050919050565b600080600102600460003373ffffffffffffffffffffffffffffffffffffffff1673ffffffffffffffffffffffffffffffffffffffff168152602001908152602001600020600001546000191614151515611d0657600080fd5b60006007600084600019166000191681526020019081526020016000206004015414151515611d3457600080fd5b600760008360001916600019168152602001908152602001600020600401549050919050565b60016020528060005260406000206000915054906101000a900460ff1681565b600080600102600460003373ffffffffffffffffffffffffffffffffffffffff1673ffffffffffffffffffffffffffffffffffffffff168152602001908152602001600020600001546000191614151515611dd457600080fd5b60006007600084600019166000191681526020019081526020016000206004015414151515611e0257600080fd5b600760008360001916600019168152602001908152602001600020600301549050919050565b6000809054906101000a900473ffffffffffffffffffffffffffffffffffffffff1673ffffffffffffffffffffffffffffffffffffffff163373ffffffffffffffffffffffffffffffffffffffff161415611ef557600073ffffffffffffffffffffffffffffffffffffffff168173ffffffffffffffffffffffffffffffffffffffff16141515611ef457806000806101000a81548173ffffffffffffffffffffffffffffffffffffffff021916908373ffffffffffffffffffffffffffffffffffffffff1602179055505b5b50565b600042905090565b828054600181600116156101000203166002900490600052602060002090601f016020900481019282601f10611f4157805160ff1916838001178555611f6f565b82800160010185558215611f6f579182015b82811115611f6e578251825591602001919060010190611f53565b5b509050611f7c9190611f80565b5090565b611fa291905b80821115611f9e576000816000905550600101611f86565b5090565b905600a165627a7a7230582070a2b6208d93eb6e6144a91b38b45ac1f723d4a139f023784ae0a919134d5e6e0029",
  "source": "pragma solidity ^0.4.17;\r\n\r\nimport \"./Accessible.sol\";\r\nimport \"./EduScienceToken.sol\";\r\n\r\ncontract EduScience is Accessible {\r\n\r\n  // All state variables have an initial state!!!\r\n\r\n  struct User {\r\n    bytes32 name;\r\n  }\r\n\r\n  // ----------------    IPFS final part   ---------------- //\r\n\r\n  // title must be bytes to use it as a key for mapping, string is not supported\r\n  struct Data {\r\n    // The link to the stored data\r\n    string ipfsHash;\r\n    // Publisher unique address\r\n    address publisher;\r\n    // Title of the data\r\n    bytes32 title;\r\n    // Popularity, can be voted up/down\r\n    uint256 popularity;\r\n    // For existence check\r\n    uint256 time;\r\n  }\r\n\r\n  EduScienceToken private tokenContract;\r\n\r\n  mapping (address => User) public users;\r\n\r\n  // A\r\n  // 1 address -> 1,2,...n -> data1,data2,...datan\r\n  mapping (address => mapping (uint256 => Data)) private addressData;\r\n  // 1 address -> n\r\n  mapping (address => uint256) public addressCount;\r\n  // 1 title -> 1 data\r\n  \r\n  // B\r\n  mapping (bytes32 => Data) private titleData;\r\n  // All titles of data\r\n  bytes32[] private titles;\r\n  // Titles count\r\n  uint256 public titlesCount;\r\n  uint256 public accessFee = 6;\r\n  uint256 public popularityFee = 2;\r\n\r\n  // bytes not supported for ipfsHash -> utf58 encoding, not utf8 provided by web3\r\n  event Store(\r\n     address publisher,\r\n     string ipfsHash);\r\n\r\n  modifier onlyExistingUser {\r\n    // Check if user exists or terminate\r\n    require(!(users[msg.sender].name == 0x0));\r\n    _;\r\n  }\r\n\r\n  modifier onlyValidName(bytes32 name) {\r\n    // Only valid names allowed\r\n    require(!(name == 0x0));\r\n    _;\r\n  }\r\n\r\n  constructor(EduScienceToken _tokenContract) public {\r\n    tokenContract = _tokenContract;\r\n  }\r\n\r\n  function publish(string _ipfsHash, bytes32 _title) public onlyValidName(_title) onlyExistingUser {\r\n    require (bytes(_ipfsHash).length < 50);\r\n    // on entry 0 nothing stored!\r\n    uint256 n = ++addressCount[msg.sender];\r\n    titlesCount++;\r\n\r\n    require (n != 0);\r\n    require (titlesCount != 0);\r\n\r\n    addressData[msg.sender][n].ipfsHash = _ipfsHash;\r\n    addressData[msg.sender][n].publisher = msg.sender;\r\n    addressData[msg.sender][n].title = _title;\r\n    addressData[msg.sender][n].popularity = 0;\r\n    addressData[msg.sender][n].time = getTimestamp();\r\n\r\n    titleData[_title].ipfsHash = _ipfsHash;\r\n    titleData[_title].publisher = msg.sender;\r\n    titleData[_title].title = _title;\r\n    titleData[_title].popularity = 0;\r\n    titleData[_title].time = getTimestamp();\r\n\r\n    titles.push(_title);\r\n\r\n    emit Store(msg.sender, _ipfsHash);\r\n  }\r\n\r\n  // ~~~Search after Title~~~\r\n\r\n  // For the list population.\r\n  function getTitle(uint256 _index) constant public onlyExistingUser returns (bytes32) {\r\n    // Check if data exists for this entry\r\n    require (titles[_index] != 0x0);\r\n    return titles[_index];\r\n  }\r\n\r\n  function getPublisher(bytes32 _title) constant public onlyExistingUser returns (address) {\r\n    // Check if data exists for this entry\r\n    require (titleData[_title].time != 0);\r\n    return titleData[_title].publisher;\r\n  }\r\n\r\n  function getPopularity(bytes32 _title) constant public onlyExistingUser returns (uint256) {\r\n    // Check if data exists for this entry\r\n    require (titleData[_title].time != 0);\r\n    return titleData[_title].popularity;\r\n  }\r\n\r\n  function getPublishTime(bytes32 _title) constant public onlyExistingUser returns (uint256) {\r\n    // Check if data exists for this entry\r\n    require (titleData[_title].time != 0);\r\n    return titleData[_title].time;\r\n  }\r\n\r\n  function getIpfsAfterTitle(bytes32 _title) public onlyExistingUser returns (string) {\r\n    // Check if data exists for this entry\r\n    require (titleData[_title].time != 0);\r\n    // Make the transaction fee first\r\n    require (tokenContract.transfer(msg.sender, titleData[_title].publisher, accessFee));\r\n    return titleData[_title].ipfsHash;\r\n  }\r\n\r\n  function votePopularity(bytes32 _title) public onlyExistingUser returns (uint256) {\r\n    // Check if data exists for this entry\r\n    require (titleData[_title].time != 0);\r\n    // Make the transaction fee first\r\n    require (tokenContract.transfer(msg.sender, titleData[_title].publisher, popularityFee));\r\n    return ++titleData[_title].popularity;\r\n  }\r\n\r\n  // ~~~Search after Title~~~\r\n\r\n  // ~~~Search after Address~~~\r\n\r\n  // ~~~Search after Address~~~\r\n\r\n  function getTimestamp() internal view returns (uint256) {\r\n    return now;\r\n  }\r\n\r\n  function getBlockNumber() internal view returns (uint256) {\r\n    return block.number;\r\n  }\r\n\r\n  // ----------------    IPFS final part   ---------------- //\r\n  \r\n  // ---------------- Aunthentication part ---------------- //\r\n\r\n  function login() public constant onlyExistingUser returns (bytes32) {\r\n    return (users[msg.sender].name);\r\n  }\r\n\r\n  // Precheck for user existance.\r\n  // constant -> do not modify the state of the contract (same as view).\r\n  function user(bytes32 name) public constant onlyValidName(name) returns (bytes32) {\r\n     if (users[msg.sender].name == 0x0) {\r\n        return \"null\";\r\n     }\r\n     return users[msg.sender].name;\r\n  }\r\n\r\n  function signup(bytes32 name) public payable onlyValidName(name) returns (bytes32) {\r\n    // Check if user exists\r\n    // If yes, return user name\r\n    // If no, check if name was sent\r\n    // If yes, create and return user\r\n    if (users[msg.sender].name == 0x0) {\r\n        users[msg.sender].name = name;\r\n        return (users[msg.sender].name);\r\n    }\r\n\r\n    return (users[msg.sender].name);\r\n  }\r\n\r\n  function update(bytes32 name) public payable onlyValidName(name) onlyExistingUser returns (bytes32) {\r\n    // Update user name\r\n    if (users[msg.sender].name != 0x0) {\r\n        users[msg.sender].name = name;\r\n        return (users[msg.sender].name);\r\n    }\r\n  }\r\n  // ---------------- Aunthentication part ---------------- //\r\n\r\n  // ----------------    IPFS test part    ---------------- //\r\n\r\n  // mapping (address => string) public datas;\r\n\r\n  // event Store(\r\n  //   address publisher,\r\n  //   string ipfsHash);\r\n\r\n  // function storeData(string _ipfsHash) public {\r\n  //   datas[msg.sender] = _ipfsHash;\r\n  //   emit Store(msg.sender, _ipfsHash);\r\n  // }\r\n\r\n  // function getData() public constant returns (string) {\r\n  //   return datas[msg.sender];\r\n  // }\r\n\r\n  // ----------------    IPFS test part    ---------------- //\r\n}",
  "sourcePath": "D:\\Thesis\\contracts\\EduScience.sol",
  "compiler": {
    "name": "solc",
    "version": "0.4.23+commit.124ca40d.Emscripten.clang"
  },
  "schemaVersion": "2.0.0",
  "updatedAt": "2018-06-16T18:07:59.739Z"
}