{
  "contractName": "EduScienceTokenSale",
  "abi": [
    {
      "constant": false,
      "inputs": [
        {
          "name": "newAccount",
          "type": "address"
        }
      ],
      "name": "grantAccess",
      "outputs": [],
      "payable": false,
      "stateMutability": "nonpayable",
      "type": "function"
    },
    {
      "constant": true,
      "inputs": [],
      "name": "numberOfAccounts",
      "outputs": [
        {
          "name": "",
          "type": "uint256"
        }
      ],
      "payable": false,
      "stateMutability": "view",
      "type": "function"
    },
    {
      "constant": true,
      "inputs": [],
      "name": "deadline",
      "outputs": [
        {
          "name": "",
          "type": "uint256"
        }
      ],
      "payable": false,
      "stateMutability": "view",
      "type": "function"
    },
    {
      "constant": false,
      "inputs": [],
      "name": "kill",
      "outputs": [],
      "payable": false,
      "stateMutability": "nonpayable",
      "type": "function"
    },
    {
      "constant": true,
      "inputs": [],
      "name": "tokensSold",
      "outputs": [
        {
          "name": "",
          "type": "uint256"
        }
      ],
      "payable": false,
      "stateMutability": "view",
      "type": "function"
    },
    {
      "constant": true,
      "inputs": [],
      "name": "tokenContract",
      "outputs": [
        {
          "name": "",
          "type": "address"
        }
      ],
      "payable": false,
      "stateMutability": "view",
      "type": "function"
    },
    {
      "constant": true,
      "inputs": [],
      "name": "tokensAvailable",
      "outputs": [
        {
          "name": "",
          "type": "uint256"
        }
      ],
      "payable": false,
      "stateMutability": "view",
      "type": "function"
    },
    {
      "constant": true,
      "inputs": [],
      "name": "tokenPrice",
      "outputs": [
        {
          "name": "",
          "type": "uint256"
        }
      ],
      "payable": false,
      "stateMutability": "view",
      "type": "function"
    },
    {
      "constant": false,
      "inputs": [
        {
          "name": "removeAccount",
          "type": "address"
        }
      ],
      "name": "removeAccess",
      "outputs": [],
      "payable": false,
      "stateMutability": "nonpayable",
      "type": "function"
    },
    {
      "constant": true,
      "inputs": [],
      "name": "owner",
      "outputs": [
        {
          "name": "",
          "type": "address"
        }
      ],
      "payable": false,
      "stateMutability": "view",
      "type": "function"
    },
    {
      "constant": true,
      "inputs": [],
      "name": "saleClosed",
      "outputs": [
        {
          "name": "",
          "type": "bool"
        }
      ],
      "payable": false,
      "stateMutability": "view",
      "type": "function"
    },
    {
      "constant": true,
      "inputs": [
        {
          "name": "",
          "type": "address"
        }
      ],
      "name": "allowedAccounts",
      "outputs": [
        {
          "name": "",
          "type": "bool"
        }
      ],
      "payable": false,
      "stateMutability": "view",
      "type": "function"
    },
    {
      "constant": false,
      "inputs": [
        {
          "name": "newOwner",
          "type": "address"
        }
      ],
      "name": "transferOwnership",
      "outputs": [],
      "payable": false,
      "stateMutability": "nonpayable",
      "type": "function"
    },
    {
      "inputs": [
        {
          "name": "_tokenContract",
          "type": "address"
        },
        {
          "name": "_tokensAvailable",
          "type": "uint256"
        },
        {
          "name": "_tokenPrice",
          "type": "uint256"
        },
        {
          "name": "_days",
          "type": "uint256"
        }
      ],
      "payable": false,
      "stateMutability": "nonpayable",
      "type": "constructor"
    },
    {
      "anonymous": false,
      "inputs": [
        {
          "indexed": false,
          "name": "_buyer",
          "type": "address"
        },
        {
          "indexed": false,
          "name": "_amount",
          "type": "uint256"
        },
        {
          "indexed": false,
          "name": "_tokensSold",
          "type": "uint256"
        },
        {
          "indexed": false,
          "name": "_tokensAvailable",
          "type": "uint256"
        },
        {
          "indexed": false,
          "name": "_balance",
          "type": "uint256"
        }
      ],
      "name": "Sell",
      "type": "event"
    },
    {
      "anonymous": false,
      "inputs": [
        {
          "indexed": false,
          "name": "recipient",
          "type": "address"
        },
        {
          "indexed": false,
          "name": "tokensSold",
          "type": "uint256"
        }
      ],
      "name": "SaleClosed",
      "type": "event"
    },
    {
      "anonymous": false,
      "inputs": [
        {
          "indexed": false,
          "name": "newAccount",
          "type": "address"
        }
      ],
      "name": "AccessGranted",
      "type": "event"
    },
    {
      "anonymous": false,
      "inputs": [
        {
          "indexed": false,
          "name": "removedAccount",
          "type": "address"
        }
      ],
      "name": "AccessRemoved",
      "type": "event"
    },
    {
      "constant": false,
      "inputs": [
        {
          "name": "_tokenAmount",
          "type": "uint256"
        }
      ],
      "name": "buyTokens",
      "outputs": [],
      "payable": true,
      "stateMutability": "payable",
      "type": "function"
    },
    {
      "constant": false,
      "inputs": [],
      "name": "endSale",
      "outputs": [],
      "payable": false,
      "stateMutability": "nonpayable",
      "type": "function"
    }
  ],
  "bytecode": "0x60806040526000600960006101000a81548160ff0219169083151502179055506000600960016101000a81548160ff02191690831515021790555034801561004657600080fd5b5060405160808061130e83398101806040528101908080519060200190929190805190602001909291908051906020019092919080519060200190929190505050336000806101000a81548173ffffffffffffffffffffffffffffffffffffffff021916908373ffffffffffffffffffffffffffffffffffffffff16021790555033600360006101000a81548173ffffffffffffffffffffffffffffffffffffffff021916908373ffffffffffffffffffffffffffffffffffffffff16021790555083600460006101000a81548173ffffffffffffffffffffffffffffffffffffffff021916908373ffffffffffffffffffffffffffffffffffffffff1602179055508260058190555081600681905550600060078190555062015180810242016008819055505050505061118e806101806000396000f3006080604052600436106100db576000357c0100000000000000000000000000000000000000000000000000000000900463ffffffff1680630ae5e739146100e05780630f03e4c31461012357806329dcb0cf1461014e5780633610724e14610179578063380d831b1461019957806341c0e1b5146101b0578063518ab2a8146101c757806355a373d6146101f257806360659a92146102495780637ff9b596146102745780638823da6c1461029f5780638da5cb5b146102e2578063b8c766b814610339578063e04610ed14610368578063f2fde38b146103c3575b600080fd5b3480156100ec57600080fd5b50610121600480360381019080803573ffffffffffffffffffffffffffffffffffffffff169060200190929190505050610406565b005b34801561012f57600080fd5b50610138610615565b6040518082815260200191505060405180910390f35b34801561015a57600080fd5b5061016361061b565b6040518082815260200191505060405180910390f35b61019760048036038101908080359060200190929190505050610621565b005b3480156101a557600080fd5b506101ae610a19565b005b3480156101bc57600080fd5b506101c5610d6b565b005b3480156101d357600080fd5b506101dc610dfc565b6040518082815260200191505060405180910390f35b3480156101fe57600080fd5b50610207610e02565b604051808273ffffffffffffffffffffffffffffffffffffffff1673ffffffffffffffffffffffffffffffffffffffff16815260200191505060405180910390f35b34801561025557600080fd5b5061025e610e28565b6040518082815260200191505060405180910390f35b34801561028057600080fd5b50610289610e2e565b6040518082815260200191505060405180910390f35b3480156102ab57600080fd5b506102e0600480360381019080803573ffffffffffffffffffffffffffffffffffffffff169060200190929190505050610e34565b005b3480156102ee57600080fd5b506102f761100a565b604051808273ffffffffffffffffffffffffffffffffffffffff1673ffffffffffffffffffffffffffffffffffffffff16815260200191505060405180910390f35b34801561034557600080fd5b5061034e61102f565b604051808215151515815260200191505060405180910390f35b34801561037457600080fd5b506103a9600480360381019080803573ffffffffffffffffffffffffffffffffffffffff169060200190929190505050611042565b604051808215151515815260200191505060405180910390f35b3480156103cf57600080fd5b50610404600480360381019080803573ffffffffffffffffffffffffffffffffffffffff169060200190929190505050611062565b005b6000809054906101000a900473ffffffffffffffffffffffffffffffffffffffff1673ffffffffffffffffffffffffffffffffffffffff163373ffffffffffffffffffffffffffffffffffffffff1614806104aa5750600160003373ffffffffffffffffffffffffffffffffffffffff1673ffffffffffffffffffffffffffffffffffffffff16815260200190815260200160002060009054906101000a900460ff165b15156104b557600080fd5b600073ffffffffffffffffffffffffffffffffffffffff168173ffffffffffffffffffffffffffffffffffffffff161415801561053c5750600160008273ffffffffffffffffffffffffffffffffffffffff1673ffffffffffffffffffffffffffffffffffffffff16815260200190815260200160002060009054906101000a900460ff16155b151561054757600080fd5b60018060008373ffffffffffffffffffffffffffffffffffffffff1673ffffffffffffffffffffffffffffffffffffffff16815260200190815260200160002060006101000a81548160ff02191690831515021790555060016002600082825401925050819055507fdeb5c31899474fe8c086c95ff9344480d19365676a6a1d22d37bb8e3e7c0ef1881604051808273ffffffffffffffffffffffffffffffffffffffff1673ffffffffffffffffffffffffffffffffffffffff16815260200191505060405180910390a150565b60025481565b60085481565b600960009054906101000a900460ff1615151561063d57600080fd5b600854421115151561064e57600080fd5b61065a81600654611132565b3414151561066757600080fd5b80600460009054906101000a900473ffffffffffffffffffffffffffffffffffffffff1673ffffffffffffffffffffffffffffffffffffffff166370a08231306040518263ffffffff167c0100000000000000000000000000000000000000000000000000000000028152600401808273ffffffffffffffffffffffffffffffffffffffff1673ffffffffffffffffffffffffffffffffffffffff168152602001915050602060405180830381600087803b15801561072557600080fd5b505af1158015610739573d6000803e3d6000fd5b505050506040513d602081101561074f57600080fd5b81019080805190602001909291905050501015151561076d57600080fd5b600460009054906101000a900473ffffffffffffffffffffffffffffffffffffffff1673ffffffffffffffffffffffffffffffffffffffff1663a9059cbb33836040518363ffffffff167c0100000000000000000000000000000000000000000000000000000000028152600401808373ffffffffffffffffffffffffffffffffffffffff1673ffffffffffffffffffffffffffffffffffffffff16815260200182815260200192505050602060405180830381600087803b15801561083257600080fd5b505af1158015610846573d6000803e3d6000fd5b505050506040513d602081101561085c57600080fd5b8101908080519060200190929190505050151561087857600080fd5b80600560008282540392505081905550806007600082825401925050819055507f483f8aec0fd892ac72ad1ba8d0e9c9e73db59c12d263fd71de480b5b3deeae3c3382600754600554600460009054906101000a900473ffffffffffffffffffffffffffffffffffffffff1673ffffffffffffffffffffffffffffffffffffffff166370a08231336040518263ffffffff167c0100000000000000000000000000000000000000000000000000000000028152600401808273ffffffffffffffffffffffffffffffffffffffff1673ffffffffffffffffffffffffffffffffffffffff168152602001915050602060405180830381600087803b15801561097e57600080fd5b505af1158015610992573d6000803e3d6000fd5b505050506040513d60208110156109a857600080fd5b8101908080519060200190929190505050604051808673ffffffffffffffffffffffffffffffffffffffff1673ffffffffffffffffffffffffffffffffffffffff1681526020018581526020018481526020018381526020018281526020019550505050505060405180910390a150565b3373ffffffffffffffffffffffffffffffffffffffff16600360009054906101000a900473ffffffffffffffffffffffffffffffffffffffff1673ffffffffffffffffffffffffffffffffffffffff16141515610a7557600080fd5b6008544210151515610a8657600080fd5b600960019054906101000a900460ff16151515610aa257600080fd5b600460009054906101000a900473ffffffffffffffffffffffffffffffffffffffff1673ffffffffffffffffffffffffffffffffffffffff1663a9059cbb600360009054906101000a900473ffffffffffffffffffffffffffffffffffffffff16600460009054906101000a900473ffffffffffffffffffffffffffffffffffffffff1673ffffffffffffffffffffffffffffffffffffffff166370a08231306040518263ffffffff167c0100000000000000000000000000000000000000000000000000000000028152600401808273ffffffffffffffffffffffffffffffffffffffff1673ffffffffffffffffffffffffffffffffffffffff168152602001915050602060405180830381600087803b158015610bc057600080fd5b505af1158015610bd4573d6000803e3d6000fd5b505050506040513d6020811015610bea57600080fd5b81019080805190602001909291905050506040518363ffffffff167c0100000000000000000000000000000000000000000000000000000000028152600401808373ffffffffffffffffffffffffffffffffffffffff1673ffffffffffffffffffffffffffffffffffffffff16815260200182815260200192505050602060405180830381600087803b158015610c8057600080fd5b505af1158015610c94573d6000803e3d6000fd5b505050506040513d6020811015610caa57600080fd5b81019080805190602001909291905050501515610cc657600080fd5b6001600960006101000a81548160ff0219169083151502179055507ff44f38254934ec3e17babe91defff7c1b767e7c7c7a626ba0fc3b40a23069ff633600754604051808373ffffffffffffffffffffffffffffffffffffffff1673ffffffffffffffffffffffffffffffffffffffff1681526020018281526020019250505060405180910390a16000600960016101000a81548160ff021916908315150217905550565b6000809054906101000a900473ffffffffffffffffffffffffffffffffffffffff1673ffffffffffffffffffffffffffffffffffffffff163373ffffffffffffffffffffffffffffffffffffffff161415610dfa576000809054906101000a900473ffffffffffffffffffffffffffffffffffffffff1673ffffffffffffffffffffffffffffffffffffffff16ff5b565b60075481565b600460009054906101000a900473ffffffffffffffffffffffffffffffffffffffff1681565b60055481565b60065481565b6000809054906101000a900473ffffffffffffffffffffffffffffffffffffffff1673ffffffffffffffffffffffffffffffffffffffff163373ffffffffffffffffffffffffffffffffffffffff161480610ed85750600160003373ffffffffffffffffffffffffffffffffffffffff1673ffffffffffffffffffffffffffffffffffffffff16815260200190815260200160002060009054906101000a900460ff165b1515610ee357600080fd5b600160008273ffffffffffffffffffffffffffffffffffffffff1673ffffffffffffffffffffffffffffffffffffffff16815260200190815260200160002060009054906101000a900460ff161515610f3b57600080fd5b6000600160008373ffffffffffffffffffffffffffffffffffffffff1673ffffffffffffffffffffffffffffffffffffffff16815260200190815260200160002060006101000a81548160ff02191690831515021790555060016002600082825403925050819055507f98a545f8b57e4017a42966cbf54a29f1c763b0c567482422ce13802069c5935181604051808273ffffffffffffffffffffffffffffffffffffffff1673ffffffffffffffffffffffffffffffffffffffff16815260200191505060405180910390a150565b6000809054906101000a900473ffffffffffffffffffffffffffffffffffffffff1681565b600960009054906101000a900460ff1681565b60016020528060005260406000206000915054906101000a900460ff1681565b6000809054906101000a900473ffffffffffffffffffffffffffffffffffffffff1673ffffffffffffffffffffffffffffffffffffffff163373ffffffffffffffffffffffffffffffffffffffff16141561112f57600073ffffffffffffffffffffffffffffffffffffffff168173ffffffffffffffffffffffffffffffffffffffff1614151561112e57806000806101000a81548173ffffffffffffffffffffffffffffffffffffffff021916908373ffffffffffffffffffffffffffffffffffffffff1602179055505b5b50565b6000808214806111515750828283850292508281151561114e57fe5b04145b151561115c57600080fd5b929150505600a165627a7a72305820acdbcf65f57bd35a6b3c5d587553ed4e73f9311db3994128062512680b23529f0029",
  "source": "pragma solidity ^0.4.17;\r\n// pragma -> instruction for the compiler to include only once in the compilation.\r\n// solidity <version> -> compiler.\r\n\r\nimport \"./Accessible.sol\";\r\nimport \"./EduScienceToken.sol\";\r\n\r\ncontract EduScienceTokenSale is Accessible {\r\n\t\r\n\taddress admin;\r\n\tEduScienceToken public tokenContract;\r\n\tuint256 public tokensAvailable;\r\n\tuint256 public tokenPrice;\r\n\tuint256 public tokensSold;\r\n\tuint256 public deadline;\r\n\tbool public saleClosed = false;\r\n\tbool endSaleOnce = false;\r\n\r\n\t// _; -> The function body where the modifier is used.\r\n\t// Can be use onlyOwner from Ownable.\r\n\tmodifier onlyAdmin() {\r\n\t\trequire (admin == msg.sender);\r\n\t\t_;\r\n\t}\r\n\r\n\tmodifier saleOpen() {\r\n\t\trequire (!saleClosed);\r\n\t\trequire (now <= deadline);\r\n\t\t_;\r\n\t}\r\n\r\n\tmodifier afterSale() {\r\n\t\trequire (now >= deadline);\r\n\t\t_;\r\n\t}\r\n\r\n    modifier noReentrancy() {\r\n        require(!endSaleOnce);\r\n        _;\r\n        endSaleOnce = false;\r\n    }\r\n\r\n    // Events are for the clients to react on changes effieciently.\r\n\tevent Sell(\r\n\t\taddress _buyer,\r\n\t\tuint256 _amount,\r\n\t\tuint256 _tokensSold,\r\n\t\tuint256 _tokensAvailable,\r\n\t\tuint256 _balance);\r\n\r\n\tevent SaleClosed(\r\n\t\taddress recipient,\r\n\t\tuint256 tokensSold);\r\n\r\n\tconstructor(EduScienceToken _tokenContract, uint256 _tokensAvailable, uint256 _tokenPrice, uint256 _days) public {\r\n\t\t// Assign an admin\r\n\t\tadmin = msg.sender;\r\n\t\t// Token contract\r\n\t\ttokenContract = _tokenContract;\r\n\t\ttokensAvailable = _tokensAvailable;\r\n\t\t// Token price\r\n\t\ttokenPrice = _tokenPrice;\r\n\t\ttokensSold = 0;\r\n\t\t// Time when the token sale ends\r\n\t\tdeadline = now + _days * 1 days;\r\n\t}\r\n\r\n\t// Buy tokens used by the client side only while sale is open.\r\n\t// Payable allows a function to receive ether while being called.\r\n\tfunction buyTokens(uint256 _tokenAmount) public payable saleOpen {\r\n\t\trequire (msg.value == mul(_tokenAmount, tokenPrice));\r\n\t\trequire (tokenContract.balanceOf(this) >= _tokenAmount);\r\n\t\t// revert if transaction unsuccessful\r\n\t\trequire (tokenContract.transfer(msg.sender, _tokenAmount));\r\n\t\t\r\n\t\ttokensAvailable -= _tokenAmount;\r\n\t\t// Keep track of the sold tokens\r\n\t\ttokensSold += _tokenAmount;\r\n\t\t// Trigger Sell event\r\n\t\temit Sell(msg.sender, _tokenAmount, tokensSold, tokensAvailable, tokenContract.balanceOf(msg.sender));\r\n\t}\r\n\r\n\t// Ending the token sale only after sale (deadline passed) and only once.\r\n\tfunction endSale() public onlyAdmin afterSale noReentrancy {\r\n\t\t// Require admin\r\n\t\t// Transfer remaining tokens to admin\r\n\t\trequire(tokenContract.transfer(admin, tokenContract.balanceOf(this)));\r\n\t\t\r\n\t\t// Destroy contract -> not anymore\r\n\t\t// Keep contract to see the 'saleClosed' variable in order to update the front end\r\n\t\tsaleClosed = true;\r\n\t\temit SaleClosed(msg.sender, tokensSold);\r\n\t\t// selfdestruct(admin);\r\n\t}\r\n\r\n\t// UTIL: multiply\r\n\t// https://github.com/dapphub/ds-math\r\n\t// Functions can be declared pure in which case they promise not to read from or modify the state.\r\n\t// internal -> visible only inside the contract.\r\n\t// pure -> not reading or writing data to the blockchain.\r\n\tfunction mul(uint x, uint y) internal pure returns (uint z) {\r\n\t\trequire(y == 0 || (z = x * y) / y == x);\r\n\t}\r\n\r\n}",
  "sourcePath": "D:\\Thesis\\contracts\\EduScienceTokenSale.sol",
  "compiler": {
    "name": "solc",
    "version": "0.4.23+commit.124ca40d.Emscripten.clang"
  },
  "schemaVersion": "2.0.0",
  "updatedAt": "2018-06-15T21:02:19.427Z"
}