{
  "contractName": "EduScience",
  "abi": [
    {
      "constant": false,
      "inputs": [
        {
          "name": "newAccount",
          "type": "address"
        }
      ],
      "name": "grantAccess",
      "outputs": [],
      "payable": false,
      "stateMutability": "nonpayable",
      "type": "function"
    },
    {
      "constant": true,
      "inputs": [],
      "name": "numberOfAccounts",
      "outputs": [
        {
          "name": "",
          "type": "uint256"
        }
      ],
      "payable": false,
      "stateMutability": "view",
      "type": "function"
    },
    {
      "constant": true,
      "inputs": [
        {
          "name": "",
          "type": "uint256"
        }
      ],
      "name": "titles",
      "outputs": [
        {
          "name": "",
          "type": "bytes32"
        }
      ],
      "payable": false,
      "stateMutability": "view",
      "type": "function"
    },
    {
      "constant": false,
      "inputs": [],
      "name": "kill",
      "outputs": [],
      "payable": false,
      "stateMutability": "nonpayable",
      "type": "function"
    },
    {
      "constant": true,
      "inputs": [],
      "name": "tokenContract",
      "outputs": [
        {
          "name": "",
          "type": "address"
        }
      ],
      "payable": false,
      "stateMutability": "view",
      "type": "function"
    },
    {
      "constant": true,
      "inputs": [],
      "name": "titlesCount",
      "outputs": [
        {
          "name": "",
          "type": "uint256"
        }
      ],
      "payable": false,
      "stateMutability": "view",
      "type": "function"
    },
    {
      "constant": true,
      "inputs": [
        {
          "name": "",
          "type": "address"
        }
      ],
      "name": "addressCount",
      "outputs": [
        {
          "name": "",
          "type": "uint256"
        }
      ],
      "payable": false,
      "stateMutability": "view",
      "type": "function"
    },
    {
      "constant": false,
      "inputs": [
        {
          "name": "removeAccount",
          "type": "address"
        }
      ],
      "name": "removeAccess",
      "outputs": [],
      "payable": false,
      "stateMutability": "nonpayable",
      "type": "function"
    },
    {
      "constant": true,
      "inputs": [],
      "name": "owner",
      "outputs": [
        {
          "name": "",
          "type": "address"
        }
      ],
      "payable": false,
      "stateMutability": "view",
      "type": "function"
    },
    {
      "constant": true,
      "inputs": [
        {
          "name": "",
          "type": "address"
        }
      ],
      "name": "users",
      "outputs": [
        {
          "name": "name",
          "type": "bytes32"
        }
      ],
      "payable": false,
      "stateMutability": "view",
      "type": "function"
    },
    {
      "constant": true,
      "inputs": [
        {
          "name": "",
          "type": "address"
        }
      ],
      "name": "allowedAccounts",
      "outputs": [
        {
          "name": "",
          "type": "bool"
        }
      ],
      "payable": false,
      "stateMutability": "view",
      "type": "function"
    },
    {
      "constant": false,
      "inputs": [
        {
          "name": "newOwner",
          "type": "address"
        }
      ],
      "name": "transferOwnership",
      "outputs": [],
      "payable": false,
      "stateMutability": "nonpayable",
      "type": "function"
    },
    {
      "inputs": [
        {
          "name": "_tokenContract",
          "type": "address"
        }
      ],
      "payable": false,
      "stateMutability": "nonpayable",
      "type": "constructor"
    },
    {
      "anonymous": false,
      "inputs": [
        {
          "indexed": false,
          "name": "publisher",
          "type": "address"
        },
        {
          "indexed": false,
          "name": "ipfsHash",
          "type": "string"
        }
      ],
      "name": "Store",
      "type": "event"
    },
    {
      "anonymous": false,
      "inputs": [
        {
          "indexed": false,
          "name": "newAccount",
          "type": "address"
        }
      ],
      "name": "AccessGranted",
      "type": "event"
    },
    {
      "anonymous": false,
      "inputs": [
        {
          "indexed": false,
          "name": "removedAccount",
          "type": "address"
        }
      ],
      "name": "AccessRemoved",
      "type": "event"
    },
    {
      "constant": false,
      "inputs": [
        {
          "name": "_ipfsHash",
          "type": "string"
        },
        {
          "name": "_title",
          "type": "bytes32"
        }
      ],
      "name": "publish",
      "outputs": [],
      "payable": false,
      "stateMutability": "nonpayable",
      "type": "function"
    },
    {
      "constant": true,
      "inputs": [],
      "name": "login",
      "outputs": [
        {
          "name": "",
          "type": "bytes32"
        }
      ],
      "payable": false,
      "stateMutability": "view",
      "type": "function"
    },
    {
      "constant": true,
      "inputs": [
        {
          "name": "name",
          "type": "bytes32"
        }
      ],
      "name": "user",
      "outputs": [
        {
          "name": "",
          "type": "bytes32"
        }
      ],
      "payable": false,
      "stateMutability": "view",
      "type": "function"
    },
    {
      "constant": false,
      "inputs": [
        {
          "name": "name",
          "type": "bytes32"
        }
      ],
      "name": "signup",
      "outputs": [
        {
          "name": "",
          "type": "bytes32"
        }
      ],
      "payable": true,
      "stateMutability": "payable",
      "type": "function"
    },
    {
      "constant": false,
      "inputs": [
        {
          "name": "name",
          "type": "bytes32"
        }
      ],
      "name": "update",
      "outputs": [
        {
          "name": "",
          "type": "bytes32"
        }
      ],
      "payable": true,
      "stateMutability": "payable",
      "type": "function"
    }
  ],
  "bytecode": "0x608060405234801561001057600080fd5b506040516020806116d383398101806040528101908080519060200190929190505050336000806101000a81548173ffffffffffffffffffffffffffffffffffffffff021916908373ffffffffffffffffffffffffffffffffffffffff16021790555080600360006101000a81548173ffffffffffffffffffffffffffffffffffffffff021916908373ffffffffffffffffffffffffffffffffffffffff1602179055505061160f806100c46000396000f3006080604052600436106100f1576000357c0100000000000000000000000000000000000000000000000000000000900463ffffffff1680630ae5e739146100f65780630dfb6615146101395780630f03e4c3146101865780632cda1bf7146101b157806341c0e1b5146101fa57806355a373d6146102115780635c1397de146102685780636852a76a146102a85780638811a0ae146102d35780638823da6c1461032a5780638b1472451461036d5780638da5cb5b146103ad578063a87430ba14610404578063b34e97e814610463578063bfaec04e14610496578063e04610ed1461050d578063f2fde38b14610568575b600080fd5b34801561010257600080fd5b50610137600480360381019080803573ffffffffffffffffffffffffffffffffffffffff1690602001909291905050506105ab565b005b34801561014557600080fd5b5061016860048036038101908080356000191690602001909291905050506107cc565b60405180826000191660001916815260200191505060405180910390f35b34801561019257600080fd5b5061019b6108ac565b6040518082815260200191505060405180910390f35b3480156101bd57600080fd5b506101dc600480360381019080803590602001909291905050506108b2565b60405180826000191660001916815260200191505060405180910390f35b34801561020657600080fd5b5061020f6108d5565b005b34801561021d57600080fd5b50610226610966565b604051808273ffffffffffffffffffffffffffffffffffffffff1673ffffffffffffffffffffffffffffffffffffffff16815260200191505060405180910390f35b61028a600480360381019080803560001916906020019092919050505061098c565b60405180826000191660001916815260200191505060405180910390f35b3480156102b457600080fd5b506102bd610ad9565b6040518082815260200191505060405180910390f35b3480156102df57600080fd5b50610314600480360381019080803573ffffffffffffffffffffffffffffffffffffffff169060200190929190505050610adf565b6040518082815260200191505060405180910390f35b34801561033657600080fd5b5061036b600480360381019080803573ffffffffffffffffffffffffffffffffffffffff169060200190929190505050610af7565b005b61038f6004803603810190808035600019169060200190929190505050610cdf565b60405180826000191660001916815260200191505060405180910390f35b3480156103b957600080fd5b506103c2610e41565b604051808273ffffffffffffffffffffffffffffffffffffffff1673ffffffffffffffffffffffffffffffffffffffff16815260200191505060405180910390f35b34801561041057600080fd5b50610445600480360381019080803573ffffffffffffffffffffffffffffffffffffffff169060200190929190505050610e66565b60405180826000191660001916815260200191505060405180910390f35b34801561046f57600080fd5b50610478610e84565b60405180826000191660001916815260200191505060405180910390f35b3480156104a257600080fd5b5061050b600480360381019080803590602001908201803590602001908080601f01602080910402602001604051908101604052809392919081815260200183838082843782019150505050505091929192908035600019169060200190929190505050610f26565b005b34801561051957600080fd5b5061054e600480360381019080803573ffffffffffffffffffffffffffffffffffffffff169060200190929190505050611446565b604051808215151515815260200191505060405180910390f35b34801561057457600080fd5b506105a9600480360381019080803573ffffffffffffffffffffffffffffffffffffffff169060200190929190505050611466565b005b6000809054906101000a900473ffffffffffffffffffffffffffffffffffffffff1673ffffffffffffffffffffffffffffffffffffffff163373ffffffffffffffffffffffffffffffffffffffff16148061064f5750600160003373ffffffffffffffffffffffffffffffffffffffff1673ffffffffffffffffffffffffffffffffffffffff16815260200190815260200160002060009054906101000a900460ff165b151561065a57600080fd5b600073ffffffffffffffffffffffffffffffffffffffff168173ffffffffffffffffffffffffffffffffffffffff16141580156106e15750600160008273ffffffffffffffffffffffffffffffffffffffff1673ffffffffffffffffffffffffffffffffffffffff16815260200190815260200160002060009054906101000a900460ff16155b15156106ec57600080fd5b60018060008373ffffffffffffffffffffffffffffffffffffffff1673ffffffffffffffffffffffffffffffffffffffff16815260200190815260200160002060006101000a81548160ff021916908315150217905550600160026000828254019250508190555060006002541415151561076657600080fd5b7fdeb5c31899474fe8c086c95ff9344480d19365676a6a1d22d37bb8e3e7c0ef1881604051808273ffffffffffffffffffffffffffffffffffffffff1673ffffffffffffffffffffffffffffffffffffffff16815260200191505060405180910390a150565b60008160006001028160001916141515156107e657600080fd5b6000600102600460003373ffffffffffffffffffffffffffffffffffffffff1673ffffffffffffffffffffffffffffffffffffffff16815260200190815260200160002060000154600019161415610860577f6e756c6c0000000000000000000000000000000000000000000000000000000091506108a6565b600460003373ffffffffffffffffffffffffffffffffffffffff1673ffffffffffffffffffffffffffffffffffffffff1681526020019081526020016000206000015491505b50919050565b60025481565b6008818154811015156108c157fe5b906000526020600020016000915090505481565b6000809054906101000a900473ffffffffffffffffffffffffffffffffffffffff1673ffffffffffffffffffffffffffffffffffffffff163373ffffffffffffffffffffffffffffffffffffffff161415610964576000809054906101000a900473ffffffffffffffffffffffffffffffffffffffff1673ffffffffffffffffffffffffffffffffffffffff16ff5b565b600360009054906101000a900473ffffffffffffffffffffffffffffffffffffffff1681565b60008160006001028160001916141515156109a657600080fd5b6000600102600460003373ffffffffffffffffffffffffffffffffffffffff1673ffffffffffffffffffffffffffffffffffffffff16815260200190815260200160002060000154600019161415610a8d5782600460003373ffffffffffffffffffffffffffffffffffffffff1673ffffffffffffffffffffffffffffffffffffffff1681526020019081526020016000206000018160001916905550600460003373ffffffffffffffffffffffffffffffffffffffff1673ffffffffffffffffffffffffffffffffffffffff168152602001908152602001600020600001549150610ad3565b600460003373ffffffffffffffffffffffffffffffffffffffff1673ffffffffffffffffffffffffffffffffffffffff1681526020019081526020016000206000015491505b50919050565b60095481565b60066020528060005260406000206000915090505481565b6000809054906101000a900473ffffffffffffffffffffffffffffffffffffffff1673ffffffffffffffffffffffffffffffffffffffff163373ffffffffffffffffffffffffffffffffffffffff161480610b9b5750600160003373ffffffffffffffffffffffffffffffffffffffff1673ffffffffffffffffffffffffffffffffffffffff16815260200190815260200160002060009054906101000a900460ff165b1515610ba657600080fd5b600160008273ffffffffffffffffffffffffffffffffffffffff1673ffffffffffffffffffffffffffffffffffffffff16815260200190815260200160002060009054906101000a900460ff161515610bfe57600080fd5b600160025410151515610c1057600080fd5b6000600160008373ffffffffffffffffffffffffffffffffffffffff1673ffffffffffffffffffffffffffffffffffffffff16815260200190815260200160002060006101000a81548160ff02191690831515021790555060016002600082825403925050819055507f98a545f8b57e4017a42966cbf54a29f1c763b0c567482422ce13802069c5935181604051808273ffffffffffffffffffffffffffffffffffffffff1673ffffffffffffffffffffffffffffffffffffffff16815260200191505060405180910390a150565b6000816000600102816000191614151515610cf957600080fd5b6000600102600460003373ffffffffffffffffffffffffffffffffffffffff1673ffffffffffffffffffffffffffffffffffffffff168152602001908152602001600020600001546000191614151515610d5257600080fd5b6000600102600460003373ffffffffffffffffffffffffffffffffffffffff1673ffffffffffffffffffffffffffffffffffffffff1681526020019081526020016000206000015460001916141515610e3a5782600460003373ffffffffffffffffffffffffffffffffffffffff1673ffffffffffffffffffffffffffffffffffffffff1681526020019081526020016000206000018160001916905550600460003373ffffffffffffffffffffffffffffffffffffffff1673ffffffffffffffffffffffffffffffffffffffff168152602001908152602001600020600001549150610e3b565b5b50919050565b6000809054906101000a900473ffffffffffffffffffffffffffffffffffffffff1681565b60046020528060005260406000206000915090508060000154905081565b600080600102600460003373ffffffffffffffffffffffffffffffffffffffff1673ffffffffffffffffffffffffffffffffffffffff168152602001908152602001600020600001546000191614151515610ede57600080fd5b600460003373ffffffffffffffffffffffffffffffffffffffff1673ffffffffffffffffffffffffffffffffffffffff16815260200190815260200160002060000154905090565b6000816000600102816000191614151515610f4057600080fd5b6000600102600460003373ffffffffffffffffffffffffffffffffffffffff1673ffffffffffffffffffffffffffffffffffffffff168152602001908152602001600020600001546000191614151515610f9957600080fd5b60328451101515610fa957600080fd5b600660003373ffffffffffffffffffffffffffffffffffffffff1673ffffffffffffffffffffffffffffffffffffffff1681526020019081526020016000206000815460010191905081905591506009600081548092919060010191905055506000821415151561101957600080fd5b60006009541415151561102b57600080fd5b83600560003373ffffffffffffffffffffffffffffffffffffffff1673ffffffffffffffffffffffffffffffffffffffff1681526020019081526020016000206000848152602001908152602001600020600001908051906020019061109292919061153e565b5033600560003373ffffffffffffffffffffffffffffffffffffffff1673ffffffffffffffffffffffffffffffffffffffff168152602001908152602001600020600084815260200190815260200160002060010160006101000a81548173ffffffffffffffffffffffffffffffffffffffff021916908373ffffffffffffffffffffffffffffffffffffffff16021790555082600560003373ffffffffffffffffffffffffffffffffffffffff1673ffffffffffffffffffffffffffffffffffffffff168152602001908152602001600020600084815260200190815260200160002060020181600019169055506000600560003373ffffffffffffffffffffffffffffffffffffffff1673ffffffffffffffffffffffffffffffffffffffff1681526020019081526020016000206000848152602001908152602001600020600301819055506111e2611536565b600560003373ffffffffffffffffffffffffffffffffffffffff1673ffffffffffffffffffffffffffffffffffffffff16815260200190815260200160002060008481526020019081526020016000206004018190555083600760008560001916600019168152602001908152602001600020600001908051906020019061126b92919061153e565b503360076000856000191660001916815260200190815260200160002060010160006101000a81548173ffffffffffffffffffffffffffffffffffffffff021916908373ffffffffffffffffffffffffffffffffffffffff16021790555082600760008560001916600019168152602001908152602001600020600201816000191690555060006007600085600019166000191681526020019081526020016000206003018190555061131c611536565b6007600085600019166000191681526020019081526020016000206004018190555060088390806001815401808255809150509060018203906000526020600020016000909192909190915090600019169055507fafcd305d01fcb20f07cdc4abcb1bebff5f85790e6d2143091c8b19d970e50b363385604051808373ffffffffffffffffffffffffffffffffffffffff1673ffffffffffffffffffffffffffffffffffffffff16815260200180602001828103825283818151815260200191508051906020019080838360005b838110156114055780820151818401526020810190506113ea565b50505050905090810190601f1680156114325780820380516001836020036101000a031916815260200191505b50935050505060405180910390a150505050565b60016020528060005260406000206000915054906101000a900460ff1681565b6000809054906101000a900473ffffffffffffffffffffffffffffffffffffffff1673ffffffffffffffffffffffffffffffffffffffff163373ffffffffffffffffffffffffffffffffffffffff16141561153357600073ffffffffffffffffffffffffffffffffffffffff168173ffffffffffffffffffffffffffffffffffffffff1614151561153257806000806101000a81548173ffffffffffffffffffffffffffffffffffffffff021916908373ffffffffffffffffffffffffffffffffffffffff1602179055505b5b50565b600042905090565b828054600181600116156101000203166002900490600052602060002090601f016020900481019282601f1061157f57805160ff19168380011785556115ad565b828001600101855582156115ad579182015b828111156115ac578251825591602001919060010190611591565b5b5090506115ba91906115be565b5090565b6115e091905b808211156115dc5760008160009055506001016115c4565b5090565b905600a165627a7a72305820b3e459818183f893feeeab33227eab82ea57f12a62171719d21b2e6a11ae33860029",
  "source": "pragma solidity ^0.4.17;\r\n\r\nimport \"./Accessible.sol\";\r\nimport \"./EduScienceToken.sol\";\r\n\r\ncontract EduScience is Accessible {\r\n\r\n  // All state variables have an initial state!!!\r\n\r\n  struct User {\r\n    bytes32 name;\r\n  }\r\n\r\n  // ----------------    IPFS final part   ---------------- //\r\n  // title must be bytes to use it as a key for mapping, string is not supported\r\n  struct Data {\r\n    // The link to the stored data\r\n    string ipfsHash;\r\n    // Publisher unique address\r\n    address publisher;\r\n    // Title of the data\r\n    bytes32 title;\r\n    // Popularity, can be voted up/down\r\n    uint256 popularity;\r\n    // For existence check\r\n    uint256 time;\r\n  }\r\n\r\n  EduScienceToken public tokenContract;\r\n\r\n  mapping (address => User) public users;\r\n\r\n  // A\r\n  // 1 address -> 1,2,...n -> data1,data2,...datan\r\n  mapping (address => mapping (uint256 => Data)) private addressData;\r\n  // 1 address -> n\r\n  mapping (address => uint256) public addressCount;\r\n  // 1 title -> 1 data\r\n  \r\n  // B\r\n  mapping (bytes32 => Data) private titleData;\r\n  // All titles of data\r\n  bytes32[] public titles;\r\n  // Titles count\r\n  uint256 public titlesCount;\r\n\r\n  // bytes not supported for ipfsHash -> utf58 encoding, not utf8 provided by web3\r\n  event Store(\r\n     address publisher,\r\n     string ipfsHash);\r\n\r\n  modifier onlyExistingUser {\r\n    // Check if user exists or terminate\r\n    require(!(users[msg.sender].name == 0x0));\r\n    _;\r\n  }\r\n\r\n  modifier onlyValidName(bytes32 name) {\r\n    // Only valid names allowed\r\n    require(!(name == 0x0));\r\n    _;\r\n  }\r\n\r\n  constructor(EduScienceToken _tokenContract) public {\r\n    tokenContract = _tokenContract;\r\n  }\r\n\r\n  function publish(string _ipfsHash, bytes32 _title) public onlyValidName(_title) onlyExistingUser {\r\n    require (bytes(_ipfsHash).length < 50);\r\n\r\n    uint256 n = ++addressCount[msg.sender];\r\n    titlesCount++;\r\n\r\n    require (n != 0);\r\n    require (titlesCount != 0);\r\n\r\n    addressData[msg.sender][n].ipfsHash = _ipfsHash;\r\n    addressData[msg.sender][n].publisher = msg.sender;\r\n    addressData[msg.sender][n].title = _title;\r\n    addressData[msg.sender][n].popularity = 0;\r\n    addressData[msg.sender][n].time = getTimestamp();\r\n\r\n    titleData[_title].ipfsHash = _ipfsHash;\r\n    titleData[_title].publisher = msg.sender;\r\n    titleData[_title].title = _title;\r\n    titleData[_title].popularity = 0;\r\n    titleData[_title].time = getTimestamp();\r\n\r\n    titles.push(_title);\r\n\r\n    emit Store(msg.sender, _ipfsHash);\r\n  }\r\n\r\n  function getTimestamp() internal view returns (uint256) {\r\n    return now;\r\n  }\r\n\r\n  function getBlockNumber() internal view returns (uint256) {\r\n    return block.number;\r\n  }\r\n\r\n  // ----------------    IPFS final part   ---------------- //\r\n  // ---------------- Aunthentication part ---------------- //\r\n\r\n  function login() public constant onlyExistingUser returns (bytes32) {\r\n    return (users[msg.sender].name);\r\n  }\r\n\r\n  // Precheck for user existance.\r\n  // constant -> do not modify the state of the contract (same as view).\r\n  function user(bytes32 name) public constant onlyValidName(name) returns (bytes32) {\r\n     if (users[msg.sender].name == 0x0) {\r\n        return \"null\";\r\n     }\r\n     return users[msg.sender].name;\r\n  }\r\n\r\n  function signup(bytes32 name) public payable onlyValidName(name) returns (bytes32) {\r\n    // Check if user exists\r\n    // If yes, return user name\r\n    // If no, check if name was sent\r\n    // If yes, create and return user\r\n    if (users[msg.sender].name == 0x0) {\r\n        users[msg.sender].name = name;\r\n        return (users[msg.sender].name);\r\n    }\r\n\r\n    return (users[msg.sender].name);\r\n  }\r\n\r\n  function update(bytes32 name) public payable onlyValidName(name) onlyExistingUser returns (bytes32) {\r\n    // Update user name\r\n    if (users[msg.sender].name != 0x0) {\r\n        users[msg.sender].name = name;\r\n        return (users[msg.sender].name);\r\n    }\r\n  }\r\n  // ---------------- Aunthentication part ---------------- //\r\n\r\n  // ----------------    IPFS test part    ---------------- //\r\n\r\n  // mapping (address => string) public datas;\r\n\r\n  // event Store(\r\n  //   address publisher,\r\n  //   string ipfsHash);\r\n\r\n  // function storeData(string _ipfsHash) public {\r\n  //   datas[msg.sender] = _ipfsHash;\r\n  //   emit Store(msg.sender, _ipfsHash);\r\n  // }\r\n\r\n  // function getData() public constant returns (string) {\r\n  //   return datas[msg.sender];\r\n  // }\r\n\r\n  // ----------------    IPFS test part    ---------------- //\r\n}",
  "sourcePath": "D:\\Thesis\\contracts\\EduScience.sol",
  "compiler": {
    "name": "solc",
    "version": "0.4.23+commit.124ca40d.Emscripten.clang"
  },
  "schemaVersion": "2.0.0",
  "updatedAt": "2018-06-16T12:57:42.876Z"
}