{
  "contractName": "EduScienceTokenSale",
  "abi": [
    {
      "constant": false,
      "inputs": [
        {
          "name": "newAccount",
          "type": "address"
        }
      ],
      "name": "grantAccess",
      "outputs": [],
      "payable": false,
      "stateMutability": "nonpayable",
      "type": "function"
    },
    {
      "constant": true,
      "inputs": [],
      "name": "numberOfAccounts",
      "outputs": [
        {
          "name": "",
          "type": "uint256"
        }
      ],
      "payable": false,
      "stateMutability": "view",
      "type": "function"
    },
    {
      "constant": true,
      "inputs": [],
      "name": "deadline",
      "outputs": [
        {
          "name": "",
          "type": "uint256"
        }
      ],
      "payable": false,
      "stateMutability": "view",
      "type": "function"
    },
    {
      "constant": false,
      "inputs": [],
      "name": "kill",
      "outputs": [],
      "payable": false,
      "stateMutability": "nonpayable",
      "type": "function"
    },
    {
      "constant": true,
      "inputs": [],
      "name": "tokensSold",
      "outputs": [
        {
          "name": "",
          "type": "uint256"
        }
      ],
      "payable": false,
      "stateMutability": "view",
      "type": "function"
    },
    {
      "constant": true,
      "inputs": [],
      "name": "tokensAvailable",
      "outputs": [
        {
          "name": "",
          "type": "uint256"
        }
      ],
      "payable": false,
      "stateMutability": "view",
      "type": "function"
    },
    {
      "constant": true,
      "inputs": [],
      "name": "tokenPrice",
      "outputs": [
        {
          "name": "",
          "type": "uint256"
        }
      ],
      "payable": false,
      "stateMutability": "view",
      "type": "function"
    },
    {
      "constant": false,
      "inputs": [
        {
          "name": "removeAccount",
          "type": "address"
        }
      ],
      "name": "removeAccess",
      "outputs": [],
      "payable": false,
      "stateMutability": "nonpayable",
      "type": "function"
    },
    {
      "constant": true,
      "inputs": [],
      "name": "owner",
      "outputs": [
        {
          "name": "",
          "type": "address"
        }
      ],
      "payable": false,
      "stateMutability": "view",
      "type": "function"
    },
    {
      "constant": true,
      "inputs": [],
      "name": "saleClosed",
      "outputs": [
        {
          "name": "",
          "type": "bool"
        }
      ],
      "payable": false,
      "stateMutability": "view",
      "type": "function"
    },
    {
      "constant": true,
      "inputs": [
        {
          "name": "",
          "type": "address"
        }
      ],
      "name": "allowedAccounts",
      "outputs": [
        {
          "name": "",
          "type": "bool"
        }
      ],
      "payable": false,
      "stateMutability": "view",
      "type": "function"
    },
    {
      "constant": false,
      "inputs": [
        {
          "name": "newOwner",
          "type": "address"
        }
      ],
      "name": "transferOwnership",
      "outputs": [],
      "payable": false,
      "stateMutability": "nonpayable",
      "type": "function"
    },
    {
      "inputs": [
        {
          "name": "_tokenContract",
          "type": "address"
        },
        {
          "name": "_tokensAvailable",
          "type": "uint256"
        },
        {
          "name": "_tokenPrice",
          "type": "uint256"
        },
        {
          "name": "_days",
          "type": "uint256"
        }
      ],
      "payable": false,
      "stateMutability": "nonpayable",
      "type": "constructor"
    },
    {
      "anonymous": false,
      "inputs": [
        {
          "indexed": false,
          "name": "_buyer",
          "type": "address"
        },
        {
          "indexed": false,
          "name": "_amount",
          "type": "uint256"
        },
        {
          "indexed": false,
          "name": "_tokensSold",
          "type": "uint256"
        },
        {
          "indexed": false,
          "name": "_tokensAvailable",
          "type": "uint256"
        },
        {
          "indexed": false,
          "name": "_balance",
          "type": "uint256"
        }
      ],
      "name": "Sell",
      "type": "event"
    },
    {
      "anonymous": false,
      "inputs": [
        {
          "indexed": false,
          "name": "recipient",
          "type": "address"
        },
        {
          "indexed": false,
          "name": "tokensSold",
          "type": "uint256"
        }
      ],
      "name": "SaleClosed",
      "type": "event"
    },
    {
      "anonymous": false,
      "inputs": [
        {
          "indexed": false,
          "name": "newAccount",
          "type": "address"
        }
      ],
      "name": "AccessGranted",
      "type": "event"
    },
    {
      "anonymous": false,
      "inputs": [
        {
          "indexed": false,
          "name": "removedAccount",
          "type": "address"
        }
      ],
      "name": "AccessRemoved",
      "type": "event"
    },
    {
      "constant": false,
      "inputs": [
        {
          "name": "_tokenAmount",
          "type": "uint256"
        }
      ],
      "name": "buyTokens",
      "outputs": [],
      "payable": true,
      "stateMutability": "payable",
      "type": "function"
    },
    {
      "constant": false,
      "inputs": [],
      "name": "endSale",
      "outputs": [],
      "payable": false,
      "stateMutability": "nonpayable",
      "type": "function"
    }
  ],
  "bytecode": "0x60806040526000600960006101000a81548160ff0219169083151502179055506000600960016101000a81548160ff02191690831515021790555034801561004657600080fd5b506040516080806112ce83398101806040528101908080519060200190929190805190602001909291908051906020019092919080519060200190929190505050336000806101000a81548173ffffffffffffffffffffffffffffffffffffffff021916908373ffffffffffffffffffffffffffffffffffffffff16021790555033600360006101000a81548173ffffffffffffffffffffffffffffffffffffffff021916908373ffffffffffffffffffffffffffffffffffffffff16021790555083600460006101000a81548173ffffffffffffffffffffffffffffffffffffffff021916908373ffffffffffffffffffffffffffffffffffffffff16021790555082600581905550816006819055506000600781905550620151808102420160088190555060006008541415151561017f57600080fd5b5050505061113c806101926000396000f3006080604052600436106100d0576000357c0100000000000000000000000000000000000000000000000000000000900463ffffffff1680630ae5e739146100d55780630f03e4c31461011857806329dcb0cf146101435780633610724e1461016e578063380d831b1461018e57806341c0e1b5146101a5578063518ab2a8146101bc57806360659a92146101e75780637ff9b596146102125780638823da6c1461023d5780638da5cb5b14610280578063b8c766b8146102d7578063e04610ed14610306578063f2fde38b14610361575b600080fd5b3480156100e157600080fd5b50610116600480360381019080803573ffffffffffffffffffffffffffffffffffffffff1690602001909291905050506103a4565b005b34801561012457600080fd5b5061012d6105c5565b6040518082815260200191505060405180910390f35b34801561014f57600080fd5b506101586105cb565b6040518082815260200191505060405180910390f35b61018c600480360381019080803590602001909291905050506105d1565b005b34801561019a57600080fd5b506101a36109db565b005b3480156101b157600080fd5b506101ba610d2d565b005b3480156101c857600080fd5b506101d1610dbe565b6040518082815260200191505060405180910390f35b3480156101f357600080fd5b506101fc610dc4565b6040518082815260200191505060405180910390f35b34801561021e57600080fd5b50610227610dca565b6040518082815260200191505060405180910390f35b34801561024957600080fd5b5061027e600480360381019080803573ffffffffffffffffffffffffffffffffffffffff169060200190929190505050610dd0565b005b34801561028c57600080fd5b50610295610fb8565b604051808273ffffffffffffffffffffffffffffffffffffffff1673ffffffffffffffffffffffffffffffffffffffff16815260200191505060405180910390f35b3480156102e357600080fd5b506102ec610fdd565b604051808215151515815260200191505060405180910390f35b34801561031257600080fd5b50610347600480360381019080803573ffffffffffffffffffffffffffffffffffffffff169060200190929190505050610ff0565b604051808215151515815260200191505060405180910390f35b34801561036d57600080fd5b506103a2600480360381019080803573ffffffffffffffffffffffffffffffffffffffff169060200190929190505050611010565b005b6000809054906101000a900473ffffffffffffffffffffffffffffffffffffffff1673ffffffffffffffffffffffffffffffffffffffff163373ffffffffffffffffffffffffffffffffffffffff1614806104485750600160003373ffffffffffffffffffffffffffffffffffffffff1673ffffffffffffffffffffffffffffffffffffffff16815260200190815260200160002060009054906101000a900460ff165b151561045357600080fd5b600073ffffffffffffffffffffffffffffffffffffffff168173ffffffffffffffffffffffffffffffffffffffff16141580156104da5750600160008273ffffffffffffffffffffffffffffffffffffffff1673ffffffffffffffffffffffffffffffffffffffff16815260200190815260200160002060009054906101000a900460ff16155b15156104e557600080fd5b60018060008373ffffffffffffffffffffffffffffffffffffffff1673ffffffffffffffffffffffffffffffffffffffff16815260200190815260200160002060006101000a81548160ff021916908315150217905550600160026000828254019250508190555060006002541415151561055f57600080fd5b7fdeb5c31899474fe8c086c95ff9344480d19365676a6a1d22d37bb8e3e7c0ef1881604051808273ffffffffffffffffffffffffffffffffffffffff1673ffffffffffffffffffffffffffffffffffffffff16815260200191505060405180910390a150565b60025481565b60085481565b600960009054906101000a900460ff161515156105ed57600080fd5b60085442111515156105fe57600080fd5b61060a816006546110e0565b3414151561061757600080fd5b80600460009054906101000a900473ffffffffffffffffffffffffffffffffffffffff1673ffffffffffffffffffffffffffffffffffffffff166370a08231306040518263ffffffff167c0100000000000000000000000000000000000000000000000000000000028152600401808273ffffffffffffffffffffffffffffffffffffffff1673ffffffffffffffffffffffffffffffffffffffff168152602001915050602060405180830381600087803b1580156106d557600080fd5b505af11580156106e9573d6000803e3d6000fd5b505050506040513d60208110156106ff57600080fd5b81019080805190602001909291905050501015151561071d57600080fd5b600460009054906101000a900473ffffffffffffffffffffffffffffffffffffffff1673ffffffffffffffffffffffffffffffffffffffff1663a9059cbb33836040518363ffffffff167c0100000000000000000000000000000000000000000000000000000000028152600401808373ffffffffffffffffffffffffffffffffffffffff1673ffffffffffffffffffffffffffffffffffffffff16815260200182815260200192505050602060405180830381600087803b1580156107e257600080fd5b505af11580156107f6573d6000803e3d6000fd5b505050506040513d602081101561080c57600080fd5b8101908080519060200190929190505050151561082857600080fd5b806005600082825403925050819055508060076000828254019250508190555060006007541415151561085a57600080fd5b7f483f8aec0fd892ac72ad1ba8d0e9c9e73db59c12d263fd71de480b5b3deeae3c3382600754600554600460009054906101000a900473ffffffffffffffffffffffffffffffffffffffff1673ffffffffffffffffffffffffffffffffffffffff166370a08231336040518263ffffffff167c0100000000000000000000000000000000000000000000000000000000028152600401808273ffffffffffffffffffffffffffffffffffffffff1673ffffffffffffffffffffffffffffffffffffffff168152602001915050602060405180830381600087803b15801561094057600080fd5b505af1158015610954573d6000803e3d6000fd5b505050506040513d602081101561096a57600080fd5b8101908080519060200190929190505050604051808673ffffffffffffffffffffffffffffffffffffffff1673ffffffffffffffffffffffffffffffffffffffff1681526020018581526020018481526020018381526020018281526020019550505050505060405180910390a150565b3373ffffffffffffffffffffffffffffffffffffffff16600360009054906101000a900473ffffffffffffffffffffffffffffffffffffffff1673ffffffffffffffffffffffffffffffffffffffff16141515610a3757600080fd5b6008544210151515610a4857600080fd5b600960019054906101000a900460ff16151515610a6457600080fd5b600460009054906101000a900473ffffffffffffffffffffffffffffffffffffffff1673ffffffffffffffffffffffffffffffffffffffff1663a9059cbb600360009054906101000a900473ffffffffffffffffffffffffffffffffffffffff16600460009054906101000a900473ffffffffffffffffffffffffffffffffffffffff1673ffffffffffffffffffffffffffffffffffffffff166370a08231306040518263ffffffff167c0100000000000000000000000000000000000000000000000000000000028152600401808273ffffffffffffffffffffffffffffffffffffffff1673ffffffffffffffffffffffffffffffffffffffff168152602001915050602060405180830381600087803b158015610b8257600080fd5b505af1158015610b96573d6000803e3d6000fd5b505050506040513d6020811015610bac57600080fd5b81019080805190602001909291905050506040518363ffffffff167c0100000000000000000000000000000000000000000000000000000000028152600401808373ffffffffffffffffffffffffffffffffffffffff1673ffffffffffffffffffffffffffffffffffffffff16815260200182815260200192505050602060405180830381600087803b158015610c4257600080fd5b505af1158015610c56573d6000803e3d6000fd5b505050506040513d6020811015610c6c57600080fd5b81019080805190602001909291905050501515610c8857600080fd5b6001600960006101000a81548160ff0219169083151502179055507ff44f38254934ec3e17babe91defff7c1b767e7c7c7a626ba0fc3b40a23069ff633600754604051808373ffffffffffffffffffffffffffffffffffffffff1673ffffffffffffffffffffffffffffffffffffffff1681526020018281526020019250505060405180910390a16000600960016101000a81548160ff021916908315150217905550565b6000809054906101000a900473ffffffffffffffffffffffffffffffffffffffff1673ffffffffffffffffffffffffffffffffffffffff163373ffffffffffffffffffffffffffffffffffffffff161415610dbc576000809054906101000a900473ffffffffffffffffffffffffffffffffffffffff1673ffffffffffffffffffffffffffffffffffffffff16ff5b565b60075481565b60055481565b60065481565b6000809054906101000a900473ffffffffffffffffffffffffffffffffffffffff1673ffffffffffffffffffffffffffffffffffffffff163373ffffffffffffffffffffffffffffffffffffffff161480610e745750600160003373ffffffffffffffffffffffffffffffffffffffff1673ffffffffffffffffffffffffffffffffffffffff16815260200190815260200160002060009054906101000a900460ff165b1515610e7f57600080fd5b600160008273ffffffffffffffffffffffffffffffffffffffff1673ffffffffffffffffffffffffffffffffffffffff16815260200190815260200160002060009054906101000a900460ff161515610ed757600080fd5b600160025410151515610ee957600080fd5b6000600160008373ffffffffffffffffffffffffffffffffffffffff1673ffffffffffffffffffffffffffffffffffffffff16815260200190815260200160002060006101000a81548160ff02191690831515021790555060016002600082825403925050819055507f98a545f8b57e4017a42966cbf54a29f1c763b0c567482422ce13802069c5935181604051808273ffffffffffffffffffffffffffffffffffffffff1673ffffffffffffffffffffffffffffffffffffffff16815260200191505060405180910390a150565b6000809054906101000a900473ffffffffffffffffffffffffffffffffffffffff1681565b600960009054906101000a900460ff1681565b60016020528060005260406000206000915054906101000a900460ff1681565b6000809054906101000a900473ffffffffffffffffffffffffffffffffffffffff1673ffffffffffffffffffffffffffffffffffffffff163373ffffffffffffffffffffffffffffffffffffffff1614156110dd57600073ffffffffffffffffffffffffffffffffffffffff168173ffffffffffffffffffffffffffffffffffffffff161415156110dc57806000806101000a81548173ffffffffffffffffffffffffffffffffffffffff021916908373ffffffffffffffffffffffffffffffffffffffff1602179055505b5b50565b6000808214806110ff575082828385029250828115156110fc57fe5b04145b151561110a57600080fd5b929150505600a165627a7a7230582008591373ec5b2e7982cbd0299f9dd3dd8c4e6a0aa737d617efe43caaa0326f4f0029",
  "source": "pragma solidity ^0.4.17;\r\n// pragma -> instruction for the compiler to include only once in the compilation.\r\n// solidity <version> -> compiler.\r\n\r\nimport \"./Accessible.sol\";\r\nimport \"./EduScienceToken.sol\";\r\n\r\ncontract EduScienceTokenSale is Accessible {\r\n\t\r\n\taddress admin;\r\n\tEduScienceToken private tokenContract;\r\n\tuint256 public tokensAvailable;\r\n\tuint256 public tokenPrice;\r\n\tuint256 public tokensSold;\r\n\tuint256 public deadline;\r\n\tbool public saleClosed = false;\r\n\tbool private endSaleOnce = false;\r\n\r\n\t// _; -> The function body where the modifier is used.\r\n\t// Can be use onlyOwner from Ownable.\r\n\tmodifier onlyAdmin() {\r\n\t\trequire (admin == msg.sender);\r\n\t\t_;\r\n\t}\r\n\r\n\tmodifier saleOpen() {\r\n\t\trequire (!saleClosed);\r\n\t\trequire (now <= deadline);\r\n\t\t_;\r\n\t}\r\n\r\n\tmodifier afterSale() {\r\n\t\trequire (now >= deadline);\r\n\t\t_;\r\n\t}\r\n\r\n    modifier noReentrancy() {\r\n        require(!endSaleOnce);\r\n        _;\r\n        endSaleOnce = false;\r\n    }\r\n\r\n    // Events are for the clients to react on changes effieciently.\r\n\tevent Sell(\r\n\t\taddress _buyer,\r\n\t\tuint256 _amount,\r\n\t\tuint256 _tokensSold,\r\n\t\tuint256 _tokensAvailable,\r\n\t\tuint256 _balance);\r\n\r\n\tevent SaleClosed(\r\n\t\taddress recipient,\r\n\t\tuint256 tokensSold);\r\n\r\n\tconstructor(EduScienceToken _tokenContract, uint256 _tokensAvailable, uint256 _tokenPrice, uint256 _days) public {\t\t\r\n\t\t// Assign an admin\r\n\t\tadmin = msg.sender;\r\n\t\t// Token contract\r\n\t\ttokenContract = _tokenContract;\r\n\t\ttokensAvailable = _tokensAvailable;\r\n\t\t// Token price\r\n\t\ttokenPrice = _tokenPrice;\r\n\t\ttokensSold = 0;\r\n\t\t// Time when the token sale ends\r\n\t\tdeadline = now + _days * 1 days;\r\n\t\trequire (deadline != 0);\r\n\t}\r\n\r\n\t// Buy tokens used by the client side only while sale is open.\r\n\t// Payable allows a function to receive ether while being called.\r\n\tfunction buyTokens(uint256 _tokenAmount) public payable saleOpen {\r\n\t\trequire (msg.value == mul(_tokenAmount, tokenPrice));\r\n\t\trequire (tokenContract.balanceOf(this) >= _tokenAmount);\r\n\t\t// revert if transaction unsuccessful\r\n\t\trequire (tokenContract.transfer(msg.sender, _tokenAmount));\r\n\t\t\r\n\t\ttokensAvailable -= _tokenAmount;\r\n\t\t// Keep track of the sold tokens\r\n\t\ttokensSold += _tokenAmount;\r\n\r\n\t\trequire (tokensSold != 0);\r\n\t\t// Trigger Sell event\r\n\t\temit Sell(msg.sender, _tokenAmount, tokensSold, tokensAvailable, tokenContract.balanceOf(msg.sender));\r\n\t}\r\n\r\n\t// Ending the token sale only after sale (deadline passed) and only once.\r\n\tfunction endSale() public onlyAdmin afterSale noReentrancy {\r\n\t\t// Require admin\r\n\t\t// Transfer remaining tokens to admin\r\n\t\trequire(tokenContract.transfer(admin, tokenContract.balanceOf(this)));\r\n\t\t\r\n\t\t// Destroy contract -> not anymore\r\n\t\t// Keep contract to see the 'saleClosed' variable in order to update the front end\r\n\t\tsaleClosed = true;\r\n\t\temit SaleClosed(msg.sender, tokensSold);\r\n\t\t// selfdestruct(admin);\r\n\t}\r\n\r\n\t// UTIL: multiply\r\n\t// https://github.com/dapphub/ds-math\r\n\t// Functions can be declared pure in which case they promise not to read from or modify the state.\r\n\t// internal -> visible only inside the contract.\r\n\t// pure -> not reading or writing data to the blockchain.\r\n\r\n\t// Considering it secure from overflow.\r\n\tfunction mul(uint x, uint y) internal pure returns (uint z) {\r\n\t\trequire(y == 0 || (z = x * y) / y == x);\r\n\t}\r\n}",
  "sourcePath": "D:\\Thesis\\contracts\\EduScienceTokenSale.sol",
  "compiler": {
    "name": "solc",
    "version": "0.4.23+commit.124ca40d.Emscripten.clang"
  },
  "schemaVersion": "2.0.0",
  "updatedAt": "2018-06-21T12:30:50.220Z"
}