{
  "contractName": "EduScience",
  "abi": [
    {
      "constant": false,
      "inputs": [
        {
          "name": "newAccount",
          "type": "address"
        }
      ],
      "name": "grantAccess",
      "outputs": [],
      "payable": false,
      "stateMutability": "nonpayable",
      "type": "function"
    },
    {
      "constant": true,
      "inputs": [],
      "name": "numberOfAccounts",
      "outputs": [
        {
          "name": "",
          "type": "uint256"
        }
      ],
      "payable": false,
      "stateMutability": "view",
      "type": "function"
    },
    {
      "constant": false,
      "inputs": [],
      "name": "kill",
      "outputs": [],
      "payable": false,
      "stateMutability": "nonpayable",
      "type": "function"
    },
    {
      "constant": true,
      "inputs": [],
      "name": "accessFee",
      "outputs": [
        {
          "name": "",
          "type": "uint256"
        }
      ],
      "payable": false,
      "stateMutability": "view",
      "type": "function"
    },
    {
      "constant": true,
      "inputs": [],
      "name": "titlesCount",
      "outputs": [
        {
          "name": "",
          "type": "uint256"
        }
      ],
      "payable": false,
      "stateMutability": "view",
      "type": "function"
    },
    {
      "constant": true,
      "inputs": [],
      "name": "popularityFee",
      "outputs": [
        {
          "name": "",
          "type": "uint256"
        }
      ],
      "payable": false,
      "stateMutability": "view",
      "type": "function"
    },
    {
      "constant": true,
      "inputs": [
        {
          "name": "",
          "type": "address"
        }
      ],
      "name": "addressCount",
      "outputs": [
        {
          "name": "",
          "type": "uint256"
        }
      ],
      "payable": false,
      "stateMutability": "view",
      "type": "function"
    },
    {
      "constant": false,
      "inputs": [
        {
          "name": "removeAccount",
          "type": "address"
        }
      ],
      "name": "removeAccess",
      "outputs": [],
      "payable": false,
      "stateMutability": "nonpayable",
      "type": "function"
    },
    {
      "constant": true,
      "inputs": [],
      "name": "owner",
      "outputs": [
        {
          "name": "",
          "type": "address"
        }
      ],
      "payable": false,
      "stateMutability": "view",
      "type": "function"
    },
    {
      "constant": true,
      "inputs": [
        {
          "name": "",
          "type": "address"
        }
      ],
      "name": "users",
      "outputs": [
        {
          "name": "name",
          "type": "bytes32"
        }
      ],
      "payable": false,
      "stateMutability": "view",
      "type": "function"
    },
    {
      "constant": true,
      "inputs": [
        {
          "name": "",
          "type": "address"
        }
      ],
      "name": "allowedAccounts",
      "outputs": [
        {
          "name": "",
          "type": "bool"
        }
      ],
      "payable": false,
      "stateMutability": "view",
      "type": "function"
    },
    {
      "constant": false,
      "inputs": [
        {
          "name": "newOwner",
          "type": "address"
        }
      ],
      "name": "transferOwnership",
      "outputs": [],
      "payable": false,
      "stateMutability": "nonpayable",
      "type": "function"
    },
    {
      "inputs": [
        {
          "name": "_tokenContract",
          "type": "address"
        }
      ],
      "payable": false,
      "stateMutability": "nonpayable",
      "type": "constructor"
    },
    {
      "anonymous": false,
      "inputs": [
        {
          "indexed": false,
          "name": "publisher",
          "type": "address"
        },
        {
          "indexed": false,
          "name": "ipfsHash",
          "type": "string"
        }
      ],
      "name": "Store",
      "type": "event"
    },
    {
      "anonymous": false,
      "inputs": [
        {
          "indexed": false,
          "name": "newAccount",
          "type": "address"
        }
      ],
      "name": "AccessGranted",
      "type": "event"
    },
    {
      "anonymous": false,
      "inputs": [
        {
          "indexed": false,
          "name": "removedAccount",
          "type": "address"
        }
      ],
      "name": "AccessRemoved",
      "type": "event"
    },
    {
      "constant": false,
      "inputs": [
        {
          "name": "_ipfsHash",
          "type": "string"
        },
        {
          "name": "_title",
          "type": "bytes32"
        }
      ],
      "name": "publish",
      "outputs": [],
      "payable": false,
      "stateMutability": "nonpayable",
      "type": "function"
    },
    {
      "constant": true,
      "inputs": [
        {
          "name": "_index",
          "type": "uint256"
        }
      ],
      "name": "getTitle",
      "outputs": [
        {
          "name": "",
          "type": "bytes32"
        }
      ],
      "payable": false,
      "stateMutability": "view",
      "type": "function"
    },
    {
      "constant": true,
      "inputs": [
        {
          "name": "_title",
          "type": "bytes32"
        }
      ],
      "name": "getPublisher",
      "outputs": [
        {
          "name": "",
          "type": "address"
        }
      ],
      "payable": false,
      "stateMutability": "view",
      "type": "function"
    },
    {
      "constant": true,
      "inputs": [
        {
          "name": "_title",
          "type": "bytes32"
        }
      ],
      "name": "getPopularity",
      "outputs": [
        {
          "name": "",
          "type": "uint256"
        }
      ],
      "payable": false,
      "stateMutability": "view",
      "type": "function"
    },
    {
      "constant": true,
      "inputs": [
        {
          "name": "_title",
          "type": "bytes32"
        }
      ],
      "name": "getPublishTime",
      "outputs": [
        {
          "name": "",
          "type": "uint256"
        }
      ],
      "payable": false,
      "stateMutability": "view",
      "type": "function"
    },
    {
      "constant": false,
      "inputs": [
        {
          "name": "_title",
          "type": "bytes32"
        }
      ],
      "name": "purchaseIpfsAfterTitle",
      "outputs": [],
      "payable": false,
      "stateMutability": "nonpayable",
      "type": "function"
    },
    {
      "constant": true,
      "inputs": [
        {
          "name": "_title",
          "type": "bytes32"
        }
      ],
      "name": "getIpfsAfterTitle",
      "outputs": [
        {
          "name": "",
          "type": "string"
        }
      ],
      "payable": false,
      "stateMutability": "view",
      "type": "function"
    },
    {
      "constant": false,
      "inputs": [
        {
          "name": "_title",
          "type": "bytes32"
        }
      ],
      "name": "votePopularity",
      "outputs": [],
      "payable": false,
      "stateMutability": "nonpayable",
      "type": "function"
    },
    {
      "constant": true,
      "inputs": [
        {
          "name": "_index",
          "type": "uint256"
        }
      ],
      "name": "getTitleAddress",
      "outputs": [
        {
          "name": "",
          "type": "bytes32"
        }
      ],
      "payable": false,
      "stateMutability": "view",
      "type": "function"
    },
    {
      "constant": true,
      "inputs": [],
      "name": "login",
      "outputs": [
        {
          "name": "",
          "type": "bytes32"
        }
      ],
      "payable": false,
      "stateMutability": "view",
      "type": "function"
    },
    {
      "constant": true,
      "inputs": [
        {
          "name": "name",
          "type": "bytes32"
        }
      ],
      "name": "user",
      "outputs": [
        {
          "name": "",
          "type": "bytes32"
        }
      ],
      "payable": false,
      "stateMutability": "view",
      "type": "function"
    },
    {
      "constant": false,
      "inputs": [
        {
          "name": "name",
          "type": "bytes32"
        }
      ],
      "name": "signup",
      "outputs": [
        {
          "name": "",
          "type": "bytes32"
        }
      ],
      "payable": true,
      "stateMutability": "payable",
      "type": "function"
    },
    {
      "constant": false,
      "inputs": [
        {
          "name": "name",
          "type": "bytes32"
        }
      ],
      "name": "update",
      "outputs": [
        {
          "name": "",
          "type": "bytes32"
        }
      ],
      "payable": true,
      "stateMutability": "payable",
      "type": "function"
    }
  ],
  "bytecode": "0x60806040526006600c556002600d5534801561001a57600080fd5b50604051602080612b2183398101806040528101908080519060200190929190505050336000806101000a81548173ffffffffffffffffffffffffffffffffffffffff021916908373ffffffffffffffffffffffffffffffffffffffff16021790555080600360006101000a81548173ffffffffffffffffffffffffffffffffffffffff021916908373ffffffffffffffffffffffffffffffffffffffff16021790555050612a53806100ce6000396000f300608060405260043610610149576000357c0100000000000000000000000000000000000000000000000000000000900463ffffffff16806307be02fe1461014e5780630ae5e739146101bf5780630dfb6615146102025780630f03e4c31461024f57806341c0e1b51461027a578063492b85cd146102915780635c1397de146102bc5780636852a76a146102fc57806369bc7bc9146103275780636a7b988c146103525780638811a0ae146103835780638823da6c146103da5780638b1472451461041d5780638da5cb5b1461045d5780638e3177e1146104b4578063929a79b1146104e5578063a56e7bae1461052e578063a87430ba14610577578063b34e97e8146105d6578063bfaec04e14610609578063cb6cec4b14610680578063cd3c30111461072a578063e04610ed1461076f578063e775781b146107ca578063f2fde38b1461080f575b600080fd5b34801561015a57600080fd5b5061017d6004803603810190808035600019169060200190929190505050610852565b604051808273ffffffffffffffffffffffffffffffffffffffff1673ffffffffffffffffffffffffffffffffffffffff16815260200191505060405180910390f35b3480156101cb57600080fd5b50610200600480360381019080803573ffffffffffffffffffffffffffffffffffffffff169060200190929190505050610920565b005b34801561020e57600080fd5b506102316004803603810190808035600019169060200190929190505050610b41565b60405180826000191660001916815260200191505060405180910390f35b34801561025b57600080fd5b50610264610c21565b6040518082815260200191505060405180910390f35b34801561028657600080fd5b5061028f610c27565b005b34801561029d57600080fd5b506102a6610cb8565b6040518082815260200191505060405180910390f35b6102de6004803603810190808035600019169060200190929190505050610cbe565b60405180826000191660001916815260200191505060405180910390f35b34801561030857600080fd5b50610311610e0b565b6040518082815260200191505060405180910390f35b34801561033357600080fd5b5061033c610e11565b6040518082815260200191505060405180910390f35b34801561035e57600080fd5b506103816004803603810190808035600019169060200190929190505050610e17565b005b34801561038f57600080fd5b506103c4600480360381019080803573ffffffffffffffffffffffffffffffffffffffff1690602001909291905050506110c5565b6040518082815260200191505060405180910390f35b3480156103e657600080fd5b5061041b600480360381019080803573ffffffffffffffffffffffffffffffffffffffff1690602001909291905050506110dd565b005b61043f60048036038101908080356000191690602001909291905050506112c5565b60405180826000191660001916815260200191505060405180910390f35b34801561046957600080fd5b50610472611427565b604051808273ffffffffffffffffffffffffffffffffffffffff1673ffffffffffffffffffffffffffffffffffffffff16815260200191505060405180910390f35b3480156104c057600080fd5b506104e3600480360381019080803560001916906020019092919050505061144c565b005b3480156104f157600080fd5b5061051060048036038101908080359060200190929190505050611aab565b60405180826000191660001916815260200191505060405180910390f35b34801561053a57600080fd5b5061055960048036038101908080359060200190929190505050611b56565b60405180826000191660001916815260200191505060405180910390f35b34801561058357600080fd5b506105b8600480360381019080803573ffffffffffffffffffffffffffffffffffffffff169060200190929190505050611c6e565b60405180826000191660001916815260200191505060405180910390f35b3480156105e257600080fd5b506105eb611c8c565b60405180826000191660001916815260200191505060405180910390f35b34801561061557600080fd5b5061067e600480360381019080803590602001908201803590602001908080601f01602080910402602001604051908101604052809392919081815260200183838082843782019150505050505091929192908035600019169060200190929190505050611d2e565b005b34801561068c57600080fd5b506106af600480360381019080803560001916906020019092919050505061227b565b6040518080602001828103825283818151815260200191508051906020019080838360005b838110156106ef5780820151818401526020810190506106d4565b50505050905090810190601f16801561071c5780820380516001836020036101000a031916815260200191505b509250505060405180910390f35b34801561073657600080fd5b5061075960048036038101908080356000191690602001909291905050506126a7565b6040518082815260200191505060405180910390f35b34801561077b57600080fd5b506107b0600480360381019080803573ffffffffffffffffffffffffffffffffffffffff169060200190929190505050612755565b604051808215151515815260200191505060405180910390f35b3480156107d657600080fd5b506107f96004803603810190808035600019169060200190929190505050612775565b6040518082815260200191505060405180910390f35b34801561081b57600080fd5b50610850600480360381019080803573ffffffffffffffffffffffffffffffffffffffff169060200190929190505050612823565b005b600080600102600460003373ffffffffffffffffffffffffffffffffffffffff1673ffffffffffffffffffffffffffffffffffffffff1681526020019081526020016000206000015460001916141515156108ac57600080fd5b600060096000846000191660001916815260200190815260200160002060040154141515156108da57600080fd5b60096000836000191660001916815260200190815260200160002060010160009054906101000a900473ffffffffffffffffffffffffffffffffffffffff169050919050565b6000809054906101000a900473ffffffffffffffffffffffffffffffffffffffff1673ffffffffffffffffffffffffffffffffffffffff163373ffffffffffffffffffffffffffffffffffffffff1614806109c45750600160003373ffffffffffffffffffffffffffffffffffffffff1673ffffffffffffffffffffffffffffffffffffffff16815260200190815260200160002060009054906101000a900460ff165b15156109cf57600080fd5b600073ffffffffffffffffffffffffffffffffffffffff168173ffffffffffffffffffffffffffffffffffffffff1614158015610a565750600160008273ffffffffffffffffffffffffffffffffffffffff1673ffffffffffffffffffffffffffffffffffffffff16815260200190815260200160002060009054906101000a900460ff16155b1515610a6157600080fd5b60018060008373ffffffffffffffffffffffffffffffffffffffff1673ffffffffffffffffffffffffffffffffffffffff16815260200190815260200160002060006101000a81548160ff0219169083151502179055506001600260008282540192505081905550600060025414151515610adb57600080fd5b7fdeb5c31899474fe8c086c95ff9344480d19365676a6a1d22d37bb8e3e7c0ef1881604051808273ffffffffffffffffffffffffffffffffffffffff1673ffffffffffffffffffffffffffffffffffffffff16815260200191505060405180910390a150565b6000816000600102816000191614151515610b5b57600080fd5b6000600102600460003373ffffffffffffffffffffffffffffffffffffffff1673ffffffffffffffffffffffffffffffffffffffff16815260200190815260200160002060000154600019161415610bd5577f6e756c6c000000000000000000000000000000000000000000000000000000009150610c1b565b600460003373ffffffffffffffffffffffffffffffffffffffff1673ffffffffffffffffffffffffffffffffffffffff1681526020019081526020016000206000015491505b50919050565b60025481565b6000809054906101000a900473ffffffffffffffffffffffffffffffffffffffff1673ffffffffffffffffffffffffffffffffffffffff163373ffffffffffffffffffffffffffffffffffffffff161415610cb6576000809054906101000a900473ffffffffffffffffffffffffffffffffffffffff1673ffffffffffffffffffffffffffffffffffffffff16ff5b565b600c5481565b6000816000600102816000191614151515610cd857600080fd5b6000600102600460003373ffffffffffffffffffffffffffffffffffffffff1673ffffffffffffffffffffffffffffffffffffffff16815260200190815260200160002060000154600019161415610dbf5782600460003373ffffffffffffffffffffffffffffffffffffffff1673ffffffffffffffffffffffffffffffffffffffff1681526020019081526020016000206000018160001916905550600460003373ffffffffffffffffffffffffffffffffffffffff1673ffffffffffffffffffffffffffffffffffffffff168152602001908152602001600020600001549150610e05565b600460003373ffffffffffffffffffffffffffffffffffffffff1673ffffffffffffffffffffffffffffffffffffffff1681526020019081526020016000206000015491505b50919050565b600b5481565b600d5481565b6000600102600460003373ffffffffffffffffffffffffffffffffffffffff1673ffffffffffffffffffffffffffffffffffffffff168152602001908152602001600020600001546000191614151515610e7057600080fd5b60006009600083600019166000191681526020019081526020016000206004015414151515610e9e57600080fd5b3373ffffffffffffffffffffffffffffffffffffffff1660096000836000191660001916815260200190815260200160002060010160009054906101000a900473ffffffffffffffffffffffffffffffffffffffff1673ffffffffffffffffffffffffffffffffffffffff1614151515610f1757600080fd5b600360009054906101000a900473ffffffffffffffffffffffffffffffffffffffff1673ffffffffffffffffffffffffffffffffffffffff1663beabacc83360096000856000191660001916815260200190815260200160002060010160009054906101000a900473ffffffffffffffffffffffffffffffffffffffff16600d546040518463ffffffff167c0100000000000000000000000000000000000000000000000000000000028152600401808473ffffffffffffffffffffffffffffffffffffffff1673ffffffffffffffffffffffffffffffffffffffff1681526020018373ffffffffffffffffffffffffffffffffffffffff1673ffffffffffffffffffffffffffffffffffffffff1681526020018281526020019350505050602060405180830381600087803b15801561105057600080fd5b505af1158015611064573d6000803e3d6000fd5b505050506040513d602081101561107a57600080fd5b8101908080519060200190929190505050151561109657600080fd5b600960008260001916600019168152602001908152602001600020600301600081546001019190508190555050565b60086020528060005260406000206000915090505481565b6000809054906101000a900473ffffffffffffffffffffffffffffffffffffffff1673ffffffffffffffffffffffffffffffffffffffff163373ffffffffffffffffffffffffffffffffffffffff1614806111815750600160003373ffffffffffffffffffffffffffffffffffffffff1673ffffffffffffffffffffffffffffffffffffffff16815260200190815260200160002060009054906101000a900460ff165b151561118c57600080fd5b600160008273ffffffffffffffffffffffffffffffffffffffff1673ffffffffffffffffffffffffffffffffffffffff16815260200190815260200160002060009054906101000a900460ff1615156111e457600080fd5b6001600254101515156111f657600080fd5b6000600160008373ffffffffffffffffffffffffffffffffffffffff1673ffffffffffffffffffffffffffffffffffffffff16815260200190815260200160002060006101000a81548160ff02191690831515021790555060016002600082825403925050819055507f98a545f8b57e4017a42966cbf54a29f1c763b0c567482422ce13802069c5935181604051808273ffffffffffffffffffffffffffffffffffffffff1673ffffffffffffffffffffffffffffffffffffffff16815260200191505060405180910390a150565b60008160006001028160001916141515156112df57600080fd5b6000600102600460003373ffffffffffffffffffffffffffffffffffffffff1673ffffffffffffffffffffffffffffffffffffffff16815260200190815260200160002060000154600019161415151561133857600080fd5b6000600102600460003373ffffffffffffffffffffffffffffffffffffffff1673ffffffffffffffffffffffffffffffffffffffff16815260200190815260200160002060000154600019161415156114205782600460003373ffffffffffffffffffffffffffffffffffffffff1673ffffffffffffffffffffffffffffffffffffffff1681526020019081526020016000206000018160001916905550600460003373ffffffffffffffffffffffffffffffffffffffff1673ffffffffffffffffffffffffffffffffffffffff168152602001908152602001600020600001549150611421565b5b50919050565b6000809054906101000a900473ffffffffffffffffffffffffffffffffffffffff1681565b6000806000600102600460003373ffffffffffffffffffffffffffffffffffffffff1673ffffffffffffffffffffffffffffffffffffffff1681526020019081526020016000206000015460001916141515156114a857600080fd5b600060096000856000191660001916815260200190815260200160002060040154141515156114d657600080fd5b3373ffffffffffffffffffffffffffffffffffffffff1660096000856000191660001916815260200190815260200160002060010160009054906101000a900473ffffffffffffffffffffffffffffffffffffffff1673ffffffffffffffffffffffffffffffffffffffff161415151561154f57600080fd5b600091505b600660003373ffffffffffffffffffffffffffffffffffffffff1673ffffffffffffffffffffffffffffffffffffffff16815260200190815260200160002054821015611612578260001916600560003373ffffffffffffffffffffffffffffffffffffffff1673ffffffffffffffffffffffffffffffffffffffff168152602001908152602001600020600084815260200190815260200160002060020154600019161415151561160557600080fd5b8180600101925050611554565b600360009054906101000a900473ffffffffffffffffffffffffffffffffffffffff1673ffffffffffffffffffffffffffffffffffffffff1663beabacc83360096000876000191660001916815260200190815260200160002060010160009054906101000a900473ffffffffffffffffffffffffffffffffffffffff16600c546040518463ffffffff167c0100000000000000000000000000000000000000000000000000000000028152600401808473ffffffffffffffffffffffffffffffffffffffff1673ffffffffffffffffffffffffffffffffffffffff1681526020018373ffffffffffffffffffffffffffffffffffffffff1673ffffffffffffffffffffffffffffffffffffffff1681526020018281526020019350505050602060405180830381600087803b15801561174b57600080fd5b505af115801561175f573d6000803e3d6000fd5b505050506040513d602081101561177557600080fd5b8101908080519060200190929190505050151561179157600080fd5b600660003373ffffffffffffffffffffffffffffffffffffffff1673ffffffffffffffffffffffffffffffffffffffff168152602001908152602001600020600081546001019190508190559050600960008460001916600019168152602001908152602001600020600001600560003373ffffffffffffffffffffffffffffffffffffffff1673ffffffffffffffffffffffffffffffffffffffff1681526020019081526020016000206000838152602001908152602001600020600001908054600181600116156101000203166002900461186f9291906128fb565b5060096000846000191660001916815260200190815260200160002060010160009054906101000a900473ffffffffffffffffffffffffffffffffffffffff16600560003373ffffffffffffffffffffffffffffffffffffffff1673ffffffffffffffffffffffffffffffffffffffff168152602001908152602001600020600083815260200190815260200160002060010160006101000a81548173ffffffffffffffffffffffffffffffffffffffff021916908373ffffffffffffffffffffffffffffffffffffffff16021790555060096000846000191660001916815260200190815260200160002060020154600560003373ffffffffffffffffffffffffffffffffffffffff1673ffffffffffffffffffffffffffffffffffffffff1681526020019081526020016000206000838152602001908152602001600020600201816000191690555060096000846000191660001916815260200190815260200160002060030154600560003373ffffffffffffffffffffffffffffffffffffffff1673ffffffffffffffffffffffffffffffffffffffff16815260200190815260200160002060008381526020019081526020016000206003018190555060096000846000191660001916815260200190815260200160002060040154600560003373ffffffffffffffffffffffffffffffffffffffff1673ffffffffffffffffffffffffffffffffffffffff168152602001908152602001600020600083815260200190815260200160002060040181905550505050565b600080600102600460003373ffffffffffffffffffffffffffffffffffffffff1673ffffffffffffffffffffffffffffffffffffffff168152602001908152602001600020600001546000191614151515611b0557600080fd5b6000600102600a83815481101515611b1957fe5b90600052602060002001546000191614151515611b3557600080fd5b600a82815481101515611b4457fe5b90600052602060002001549050919050565b600080600102600460003373ffffffffffffffffffffffffffffffffffffffff1673ffffffffffffffffffffffffffffffffffffffff168152602001908152602001600020600001546000191614151515611bb057600080fd5b6000600760003373ffffffffffffffffffffffffffffffffffffffff1673ffffffffffffffffffffffffffffffffffffffff16815260200190815260200160002060008481526020019081526020016000206004015414151515611c1357600080fd5b600760003373ffffffffffffffffffffffffffffffffffffffff1673ffffffffffffffffffffffffffffffffffffffff1681526020019081526020016000206000838152602001908152602001600020600201549050919050565b60046020528060005260406000206000915090508060000154905081565b600080600102600460003373ffffffffffffffffffffffffffffffffffffffff1673ffffffffffffffffffffffffffffffffffffffff168152602001908152602001600020600001546000191614151515611ce657600080fd5b600460003373ffffffffffffffffffffffffffffffffffffffff1673ffffffffffffffffffffffffffffffffffffffff16815260200190815260200160002060000154905090565b6000816000600102816000191614151515611d4857600080fd5b6000600102600460003373ffffffffffffffffffffffffffffffffffffffff1673ffffffffffffffffffffffffffffffffffffffff168152602001908152602001600020600001546000191614151515611da157600080fd5b60328451101515611db157600080fd5b600060096000856000191660001916815260200190815260200160002060040154141515611dde57600080fd5b600860003373ffffffffffffffffffffffffffffffffffffffff1673ffffffffffffffffffffffffffffffffffffffff168152602001908152602001600020600081546001019190508190559150600b6000815480929190600101919050555060008214151515611e4e57600080fd5b6000600b5414151515611e6057600080fd5b83600760003373ffffffffffffffffffffffffffffffffffffffff1673ffffffffffffffffffffffffffffffffffffffff16815260200190815260200160002060008481526020019081526020016000206000019080519060200190611ec7929190612982565b5033600760003373ffffffffffffffffffffffffffffffffffffffff1673ffffffffffffffffffffffffffffffffffffffff168152602001908152602001600020600084815260200190815260200160002060010160006101000a81548173ffffffffffffffffffffffffffffffffffffffff021916908373ffffffffffffffffffffffffffffffffffffffff16021790555082600760003373ffffffffffffffffffffffffffffffffffffffff1673ffffffffffffffffffffffffffffffffffffffff168152602001908152602001600020600084815260200190815260200160002060020181600019169055506000600760003373ffffffffffffffffffffffffffffffffffffffff1673ffffffffffffffffffffffffffffffffffffffff1681526020019081526020016000206000848152602001908152602001600020600301819055506120176128f3565b600760003373ffffffffffffffffffffffffffffffffffffffff1673ffffffffffffffffffffffffffffffffffffffff1681526020019081526020016000206000848152602001908152602001600020600401819055508360096000856000191660001916815260200190815260200160002060000190805190602001906120a0929190612982565b503360096000856000191660001916815260200190815260200160002060010160006101000a81548173ffffffffffffffffffffffffffffffffffffffff021916908373ffffffffffffffffffffffffffffffffffffffff1602179055508260096000856000191660001916815260200190815260200160002060020181600019169055506000600960008560001916600019168152602001908152602001600020600301819055506121516128f3565b60096000856000191660001916815260200190815260200160002060040181905550600a8390806001815401808255809150509060018203906000526020600020016000909192909190915090600019169055507fafcd305d01fcb20f07cdc4abcb1bebff5f85790e6d2143091c8b19d970e50b363385604051808373ffffffffffffffffffffffffffffffffffffffff1673ffffffffffffffffffffffffffffffffffffffff16815260200180602001828103825283818151815260200191508051906020019080838360005b8381101561223a57808201518184015260208101905061221f565b50505050905090810190601f1680156122675780820380516001836020036101000a031916815260200191505b50935050505060405180910390a150505050565b60606000806000600102600460003373ffffffffffffffffffffffffffffffffffffffff1673ffffffffffffffffffffffffffffffffffffffff1681526020019081526020016000206000015460001916141515156122d957600080fd5b6000600960008660001916600019168152602001908152602001600020600401541415151561230757600080fd5b600191505b600660003373ffffffffffffffffffffffffffffffffffffffff1673ffffffffffffffffffffffffffffffffffffffff16815260200190815260200160002054821115156124b7578360001916600560003373ffffffffffffffffffffffffffffffffffffffff1673ffffffffffffffffffffffffffffffffffffffff1681526020019081526020016000206000848152602001908152602001600020600201546000191614156124aa57600560003373ffffffffffffffffffffffffffffffffffffffff1673ffffffffffffffffffffffffffffffffffffffff16815260200190815260200160002060008381526020019081526020016000206000018054600181600116156101000203166002900480601f01602080910402602001604051908101604052809291908181526020018280546001816001161561010002031660029004801561249e5780601f106124735761010080835404028352916020019161249e565b820191906000526020600020905b81548152906001019060200180831161248157829003601f168201915b505050505092506126a0565b818060010192505061230c565b600190505b600860003373ffffffffffffffffffffffffffffffffffffffff1673ffffffffffffffffffffffffffffffffffffffff1681526020019081526020016000205481111515612667578360001916600760003373ffffffffffffffffffffffffffffffffffffffff1673ffffffffffffffffffffffffffffffffffffffff16815260200190815260200160002060008381526020019081526020016000206002015460001916141561265a57600760003373ffffffffffffffffffffffffffffffffffffffff1673ffffffffffffffffffffffffffffffffffffffff16815260200190815260200160002060008281526020019081526020016000206000018054600181600116156101000203166002900480601f01602080910402602001604051908101604052809291908181526020018280546001816001161561010002031660029004801561264e5780601f106126235761010080835404028352916020019161264e565b820191906000526020600020905b81548152906001019060200180831161263157829003601f168201915b505050505092506126a0565b80806001019150506124bc565b6040805190810160405280600281526020017f4e4100000000000000000000000000000000000000000000000000000000000081525092505b5050919050565b600080600102600460003373ffffffffffffffffffffffffffffffffffffffff1673ffffffffffffffffffffffffffffffffffffffff16815260200190815260200160002060000154600019161415151561270157600080fd5b6000600960008460001916600019168152602001908152602001600020600401541415151561272f57600080fd5b600960008360001916600019168152602001908152602001600020600401549050919050565b60016020528060005260406000206000915054906101000a900460ff1681565b600080600102600460003373ffffffffffffffffffffffffffffffffffffffff1673ffffffffffffffffffffffffffffffffffffffff1681526020019081526020016000206000015460001916141515156127cf57600080fd5b600060096000846000191660001916815260200190815260200160002060040154141515156127fd57600080fd5b600960008360001916600019168152602001908152602001600020600301549050919050565b6000809054906101000a900473ffffffffffffffffffffffffffffffffffffffff1673ffffffffffffffffffffffffffffffffffffffff163373ffffffffffffffffffffffffffffffffffffffff1614156128f057600073ffffffffffffffffffffffffffffffffffffffff168173ffffffffffffffffffffffffffffffffffffffff161415156128ef57806000806101000a81548173ffffffffffffffffffffffffffffffffffffffff021916908373ffffffffffffffffffffffffffffffffffffffff1602179055505b5b50565b600042905090565b828054600181600116156101000203166002900490600052602060002090601f016020900481019282601f106129345780548555612971565b8280016001018555821561297157600052602060002091601f016020900482015b82811115612970578254825591600101919060010190612955565b5b50905061297e9190612a02565b5090565b828054600181600116156101000203166002900490600052602060002090601f016020900481019282601f106129c357805160ff19168380011785556129f1565b828001600101855582156129f1579182015b828111156129f05782518255916020019190600101906129d5565b5b5090506129fe9190612a02565b5090565b612a2491905b80821115612a20576000816000905550600101612a08565b5090565b905600a165627a7a723058208402fc607633e1cc67915d9687b300960fe263bc00930778cbe41f0851f268d10029",
  "source": "pragma solidity ^0.4.17;\r\n\r\nimport \"./Accessible.sol\";\r\nimport \"./EduScienceToken.sol\";\r\n\r\ncontract EduScience is Accessible {\r\n\r\n  // All state variables have an initial state!!!\r\n\r\n  struct User {\r\n    bytes32 name;\r\n  }\r\n\r\n  // ----------------    IPFS final part   ---------------- //\r\n\r\n  // title must be bytes to use it as a key for mapping, string is not supported\r\n  struct Data {\r\n    // The link to the stored data\r\n    string ipfsHash;\r\n    // Publisher unique address\r\n    address publisher;\r\n    // Title of the data\r\n    bytes32 title;\r\n    // Popularity, can be voted up/down\r\n    uint256 popularity;\r\n    // For existence check\r\n    uint256 time;\r\n  }\r\n\r\n  EduScienceToken private tokenContract;\r\n\r\n  mapping (address => User) public users;\r\n  mapping (address => mapping (uint256 => Data)) userPurchasedData;\r\n  mapping (address => uint256) userPurchasedCount;\r\n\r\n  // A\r\n  // 1 address -> 1,2,...n -> data1,data2,...datan\r\n  mapping (address => mapping (uint256 => Data)) private addressData;\r\n  // 1 address -> n\r\n  mapping (address => uint256) public addressCount;\r\n  // 1 title -> 1 data\r\n  \r\n  // B\r\n  mapping (bytes32 => Data) private titleData;\r\n  // All titles of data\r\n  bytes32[] private titles;\r\n  // Titles count\r\n  uint256 public titlesCount;\r\n  uint256 public accessFee = 6;\r\n  uint256 public popularityFee = 2;\r\n\r\n  // bytes not supported for ipfsHash -> utf58 encoding, not utf8 provided by web3\r\n  event Store(\r\n     address publisher,\r\n     string ipfsHash);\r\n\r\n  modifier onlyExistingUser {\r\n    // Check if user exists or terminate\r\n    require(!(users[msg.sender].name == 0x0));\r\n    _;\r\n  }\r\n\r\n  modifier onlyValidName(bytes32 name) {\r\n    // Only valid names allowed\r\n    require(!(name == 0x0));\r\n    _;\r\n  }\r\n\r\n  constructor(EduScienceToken _tokenContract) public {\r\n    tokenContract = _tokenContract;\r\n  }\r\n\r\n  function publish(string _ipfsHash, bytes32 _title) public onlyValidName(_title) onlyExistingUser {\r\n    require (bytes(_ipfsHash).length < 50);\r\n    // Must be an empty slot\r\n    require (titleData[_title].time == 0);\r\n\r\n    // on entry 0 nothing stored\r\n    uint256 n = ++addressCount[msg.sender];\r\n    titlesCount++;\r\n\r\n    require (n != 0);\r\n    require (titlesCount != 0);\r\n\r\n    addressData[msg.sender][n].ipfsHash = _ipfsHash;\r\n    addressData[msg.sender][n].publisher = msg.sender;\r\n    addressData[msg.sender][n].title = _title;\r\n    addressData[msg.sender][n].popularity = 0;\r\n    addressData[msg.sender][n].time = getTimestamp();\r\n\r\n    titleData[_title].ipfsHash = _ipfsHash;\r\n    titleData[_title].publisher = msg.sender;\r\n    titleData[_title].title = _title;\r\n    titleData[_title].popularity = 0;\r\n    titleData[_title].time = getTimestamp();\r\n    titles.push(_title);\r\n\r\n    emit Store(msg.sender, _ipfsHash);\r\n  }\r\n\r\n  // ~~~Search after Title~~~\r\n\r\n  // For the list population.\r\n  function getTitle(uint256 _index) constant public onlyExistingUser returns (bytes32) {\r\n    // Check if data exists for this entry\r\n    require (titles[_index] != 0x0);\r\n    return titles[_index];\r\n  }\r\n\r\n  function getPublisher(bytes32 _title) constant public onlyExistingUser returns (address) {\r\n    // Check if data exists for this entry\r\n    require (titleData[_title].time != 0);\r\n    return titleData[_title].publisher;\r\n  }\r\n\r\n  function getPopularity(bytes32 _title) constant public onlyExistingUser returns (uint256) {\r\n    // Check if data exists for this entry\r\n    require (titleData[_title].time != 0);\r\n    return titleData[_title].popularity;\r\n  }\r\n\r\n  function getPublishTime(bytes32 _title) constant public onlyExistingUser returns (uint256) {\r\n    // Check if data exists for this entry\r\n    require (titleData[_title].time != 0);\r\n    return titleData[_title].time;\r\n  }\r\n\r\n  function purchaseIpfsAfterTitle(bytes32 _title) public onlyExistingUser {\r\n    // Check if data exists for this entry\r\n    require (titleData[_title].time != 0);\r\n    // Why to buy your own work\r\n    require (titleData[_title].publisher != msg.sender);\r\n\r\n    // Check if not already purchased\r\n    for (uint256 i = 0; i < userPurchasedCount[msg.sender]; i++) {\r\n      // Title must be different, a new one.\r\n      require (userPurchasedData[msg.sender][i].title != _title);\r\n    }\r\n\r\n    // Make the transaction fee \r\n    require (tokenContract.transfer(msg.sender, titleData[_title].publisher, accessFee));\r\n    uint256 n = ++userPurchasedCount[msg.sender];\r\n    userPurchasedData[msg.sender][n].ipfsHash = titleData[_title].ipfsHash;\r\n    userPurchasedData[msg.sender][n].publisher = titleData[_title].publisher;\r\n    userPurchasedData[msg.sender][n].title = titleData[_title].title;\r\n    userPurchasedData[msg.sender][n].popularity = titleData[_title].popularity;\r\n    userPurchasedData[msg.sender][n].time = titleData[_title].time;\r\n  }\r\n\r\n  function getIpfsAfterTitle(bytes32 _title) public constant onlyExistingUser returns (string) {\r\n    // Check if data exists for this entry\r\n    require (titleData[_title].time != 0);\r\n    // Or purchased work\r\n    for (uint256 i = 1; i <= userPurchasedCount[msg.sender]; i++) {\r\n      if (userPurchasedData[msg.sender][i].title == _title) {\r\n        return userPurchasedData[msg.sender][i].ipfsHash;\r\n      }\r\n    }\r\n    // Or own work\r\n    for (uint256 j = 1; j <= addressCount[msg.sender]; j++) {\r\n      if (addressData[msg.sender][j].title == _title) {\r\n        return addressData[msg.sender][j].ipfsHash;\r\n      }\r\n    }\r\n    // Not available in any\r\n    return \"NA\";\r\n  }\r\n\r\n  function votePopularity(bytes32 _title) public onlyExistingUser {\r\n    // Check if data exists for this entry\r\n    require (titleData[_title].time != 0);\r\n    // Can't increase your own popularity\r\n    require (titleData[_title].publisher != msg.sender);\r\n    // Make the transaction fee first\r\n    require (tokenContract.transfer(msg.sender, titleData[_title].publisher, popularityFee));\r\n\r\n    ++titleData[_title].popularity;\r\n  }\r\n\r\n\r\n\r\n  // ~~~Search after Title~~~\r\n\r\n  // ~~~Search after Address~~~\r\n\r\n  function getTitleAddress(uint256 _index) constant public onlyExistingUser returns (bytes32) {\r\n    require (addressData[msg.sender][_index].time != 0);\r\n    return addressData[msg.sender][_index].title;\r\n  }\r\n\r\n  // ~~~Search after Address~~~\r\n\r\n  function getTimestamp() internal view returns (uint256) {\r\n    return now;\r\n  }\r\n\r\n  function getBlockNumber() internal view returns (uint256) {\r\n    return block.number;\r\n  }\r\n\r\n  // ----------------    IPFS final part   ---------------- //\r\n\r\n  // ---------------- Aunthentication part ---------------- //\r\n\r\n  function login() public constant onlyExistingUser returns (bytes32) {\r\n    return (users[msg.sender].name);\r\n  }\r\n\r\n  // Precheck for user existance.\r\n  // constant -> do not modify the state of the contract (same as view).\r\n  function user(bytes32 name) public constant onlyValidName(name) returns (bytes32) {\r\n     if (users[msg.sender].name == 0x0) {\r\n        return \"null\";\r\n     }\r\n     return users[msg.sender].name;\r\n  }\r\n\r\n  function signup(bytes32 name) public payable onlyValidName(name) returns (bytes32) {\r\n    // Check if user exists\r\n    // If yes, return user name\r\n    // If no, check if name was sent\r\n    // If yes, create and return user\r\n    if (users[msg.sender].name == 0x0) {\r\n        users[msg.sender].name = name;\r\n        return (users[msg.sender].name);\r\n    }\r\n\r\n    return (users[msg.sender].name);\r\n  }\r\n\r\n  function update(bytes32 name) public payable onlyValidName(name) onlyExistingUser returns (bytes32) {\r\n    // Update user name\r\n    if (users[msg.sender].name != 0x0) {\r\n        users[msg.sender].name = name;\r\n        return (users[msg.sender].name);\r\n    }\r\n  }\r\n  // ---------------- Aunthentication part ---------------- //\r\n\r\n  // ----------------    IPFS test part    ---------------- //\r\n\r\n  // mapping (address => string) public datas;\r\n\r\n  // event Store(\r\n  //   address publisher,\r\n  //   string ipfsHash);\r\n\r\n  // function storeData(string _ipfsHash) public {\r\n  //   datas[msg.sender] = _ipfsHash;\r\n  //   emit Store(msg.sender, _ipfsHash);\r\n  // }\r\n\r\n  // function getData() public constant returns (string) {\r\n  //   return datas[msg.sender];\r\n  // }\r\n\r\n  // ----------------    IPFS test part    ---------------- //\r\n}",
  "sourcePath": "D:\\Thesis\\contracts\\EduScience.sol",
  "compiler": {
    "name": "solc",
    "version": "0.4.23+commit.124ca40d.Emscripten.clang"
  },
  "schemaVersion": "2.0.0",
  "updatedAt": "2018-06-17T16:13:01.579Z"
}