{
  "contractName": "ERC20Token",
  "abi": [
    {
      "constant": false,
      "inputs": [
        {
          "name": "newAccount",
          "type": "address"
        }
      ],
      "name": "grantAccess",
      "outputs": [],
      "payable": false,
      "stateMutability": "nonpayable",
      "type": "function"
    },
    {
      "constant": true,
      "inputs": [],
      "name": "numberOfAccounts",
      "outputs": [
        {
          "name": "",
          "type": "uint256"
        }
      ],
      "payable": false,
      "stateMutability": "view",
      "type": "function"
    },
    {
      "constant": true,
      "inputs": [],
      "name": "totalSupply",
      "outputs": [
        {
          "name": "",
          "type": "uint256"
        }
      ],
      "payable": false,
      "stateMutability": "view",
      "type": "function"
    },
    {
      "constant": false,
      "inputs": [],
      "name": "kill",
      "outputs": [],
      "payable": false,
      "stateMutability": "nonpayable",
      "type": "function"
    },
    {
      "constant": true,
      "inputs": [
        {
          "name": "",
          "type": "address"
        }
      ],
      "name": "balanceOf",
      "outputs": [
        {
          "name": "",
          "type": "uint256"
        }
      ],
      "payable": false,
      "stateMutability": "view",
      "type": "function"
    },
    {
      "constant": false,
      "inputs": [
        {
          "name": "removeAccount",
          "type": "address"
        }
      ],
      "name": "removeAccess",
      "outputs": [],
      "payable": false,
      "stateMutability": "nonpayable",
      "type": "function"
    },
    {
      "constant": true,
      "inputs": [],
      "name": "owner",
      "outputs": [
        {
          "name": "",
          "type": "address"
        }
      ],
      "payable": false,
      "stateMutability": "view",
      "type": "function"
    },
    {
      "constant": true,
      "inputs": [
        {
          "name": "",
          "type": "address"
        },
        {
          "name": "",
          "type": "address"
        }
      ],
      "name": "allowance",
      "outputs": [
        {
          "name": "",
          "type": "uint256"
        }
      ],
      "payable": false,
      "stateMutability": "view",
      "type": "function"
    },
    {
      "constant": true,
      "inputs": [
        {
          "name": "",
          "type": "address"
        }
      ],
      "name": "allowedAccounts",
      "outputs": [
        {
          "name": "",
          "type": "bool"
        }
      ],
      "payable": false,
      "stateMutability": "view",
      "type": "function"
    },
    {
      "constant": false,
      "inputs": [
        {
          "name": "newOwner",
          "type": "address"
        }
      ],
      "name": "transferOwnership",
      "outputs": [],
      "payable": false,
      "stateMutability": "nonpayable",
      "type": "function"
    },
    {
      "anonymous": false,
      "inputs": [
        {
          "indexed": false,
          "name": "newAccount",
          "type": "address"
        }
      ],
      "name": "AccessGranted",
      "type": "event"
    },
    {
      "anonymous": false,
      "inputs": [
        {
          "indexed": false,
          "name": "removedAccount",
          "type": "address"
        }
      ],
      "name": "AccessRemoved",
      "type": "event"
    },
    {
      "anonymous": false,
      "inputs": [
        {
          "indexed": true,
          "name": "_from",
          "type": "address"
        },
        {
          "indexed": true,
          "name": "_to",
          "type": "address"
        },
        {
          "indexed": false,
          "name": "_value",
          "type": "uint256"
        },
        {
          "indexed": false,
          "name": "_balance",
          "type": "uint256"
        }
      ],
      "name": "Transfer",
      "type": "event"
    },
    {
      "anonymous": false,
      "inputs": [
        {
          "indexed": true,
          "name": "_owner",
          "type": "address"
        },
        {
          "indexed": true,
          "name": "_spender",
          "type": "address"
        },
        {
          "indexed": false,
          "name": "_value",
          "type": "uint256"
        }
      ],
      "name": "Approval",
      "type": "event"
    },
    {
      "constant": false,
      "inputs": [
        {
          "name": "_to",
          "type": "address"
        },
        {
          "name": "_value",
          "type": "uint256"
        }
      ],
      "name": "transfer",
      "outputs": [
        {
          "name": "success",
          "type": "bool"
        }
      ],
      "payable": false,
      "stateMutability": "nonpayable",
      "type": "function"
    },
    {
      "constant": false,
      "inputs": [
        {
          "name": "_from",
          "type": "address"
        },
        {
          "name": "_to",
          "type": "address"
        },
        {
          "name": "_value",
          "type": "uint256"
        }
      ],
      "name": "transferFrom",
      "outputs": [
        {
          "name": "success",
          "type": "bool"
        }
      ],
      "payable": false,
      "stateMutability": "nonpayable",
      "type": "function"
    },
    {
      "constant": false,
      "inputs": [
        {
          "name": "_spender",
          "type": "address"
        },
        {
          "name": "_value",
          "type": "uint256"
        }
      ],
      "name": "approve",
      "outputs": [
        {
          "name": "success",
          "type": "bool"
        }
      ],
      "payable": false,
      "stateMutability": "nonpayable",
      "type": "function"
    }
  ],
  "bytecode": "0x6080604052336000806101000a81548173ffffffffffffffffffffffffffffffffffffffff021916908373ffffffffffffffffffffffffffffffffffffffff160217905550611185806100536000396000f3006080604052600436106100c5576000357c0100000000000000000000000000000000000000000000000000000000900463ffffffff168063095ea7b3146100ca5780630ae5e7391461012f5780630f03e4c31461017257806318160ddd1461019d57806323b872dd146101c857806341c0e1b51461024d57806370a08231146102645780638823da6c146102bb5780638da5cb5b146102fe578063a9059cbb14610355578063dd62ed3e146103ba578063e04610ed14610431578063f2fde38b1461048c575b600080fd5b3480156100d657600080fd5b50610115600480360381019080803573ffffffffffffffffffffffffffffffffffffffff169060200190929190803590602001909291905050506104cf565b604051808215151515815260200191505060405180910390f35b34801561013b57600080fd5b50610170600480360381019080803573ffffffffffffffffffffffffffffffffffffffff1690602001909291905050506105c1565b005b34801561017e57600080fd5b506101876107e2565b6040518082815260200191505060405180910390f35b3480156101a957600080fd5b506101b26107e8565b6040518082815260200191505060405180910390f35b3480156101d457600080fd5b50610233600480360381019080803573ffffffffffffffffffffffffffffffffffffffff169060200190929190803573ffffffffffffffffffffffffffffffffffffffff169060200190929190803590602001909291905050506107ee565b604051808215151515815260200191505060405180910390f35b34801561025957600080fd5b50610262610b02565b005b34801561027057600080fd5b506102a5600480360381019080803573ffffffffffffffffffffffffffffffffffffffff169060200190929190505050610b93565b6040518082815260200191505060405180910390f35b3480156102c757600080fd5b506102fc600480360381019080803573ffffffffffffffffffffffffffffffffffffffff169060200190929190505050610bab565b005b34801561030a57600080fd5b50610313610d93565b604051808273ffffffffffffffffffffffffffffffffffffffff1673ffffffffffffffffffffffffffffffffffffffff16815260200191505060405180910390f35b34801561036157600080fd5b506103a0600480360381019080803573ffffffffffffffffffffffffffffffffffffffff16906020019092919080359060200190929190505050610db8565b604051808215151515815260200191505060405180910390f35b3480156103c657600080fd5b5061041b600480360381019080803573ffffffffffffffffffffffffffffffffffffffff169060200190929190803573ffffffffffffffffffffffffffffffffffffffff169060200190929190505050611044565b6040518082815260200191505060405180910390f35b34801561043d57600080fd5b50610472600480360381019080803573ffffffffffffffffffffffffffffffffffffffff169060200190929190505050611069565b604051808215151515815260200191505060405180910390f35b34801561049857600080fd5b506104cd600480360381019080803573ffffffffffffffffffffffffffffffffffffffff169060200190929190505050611089565b005b600081600560003373ffffffffffffffffffffffffffffffffffffffff1673ffffffffffffffffffffffffffffffffffffffff16815260200190815260200160002060008573ffffffffffffffffffffffffffffffffffffffff1673ffffffffffffffffffffffffffffffffffffffff168152602001908152602001600020819055508273ffffffffffffffffffffffffffffffffffffffff163373ffffffffffffffffffffffffffffffffffffffff167f8c5be1e5ebec7d5bd14f71427d1e84f3dd0314c0f7b2291e5b200ac8c7c3b925846040518082815260200191505060405180910390a36001905092915050565b6000809054906101000a900473ffffffffffffffffffffffffffffffffffffffff1673ffffffffffffffffffffffffffffffffffffffff163373ffffffffffffffffffffffffffffffffffffffff1614806106655750600160003373ffffffffffffffffffffffffffffffffffffffff1673ffffffffffffffffffffffffffffffffffffffff16815260200190815260200160002060009054906101000a900460ff165b151561067057600080fd5b600073ffffffffffffffffffffffffffffffffffffffff168173ffffffffffffffffffffffffffffffffffffffff16141580156106f75750600160008273ffffffffffffffffffffffffffffffffffffffff1673ffffffffffffffffffffffffffffffffffffffff16815260200190815260200160002060009054906101000a900460ff16155b151561070257600080fd5b60018060008373ffffffffffffffffffffffffffffffffffffffff1673ffffffffffffffffffffffffffffffffffffffff16815260200190815260200160002060006101000a81548160ff021916908315150217905550600160026000828254019250508190555060006002541415151561077c57600080fd5b7fdeb5c31899474fe8c086c95ff9344480d19365676a6a1d22d37bb8e3e7c0ef1881604051808273ffffffffffffffffffffffffffffffffffffffff1673ffffffffffffffffffffffffffffffffffffffff16815260200191505060405180910390a150565b60025481565b60035481565b600081600460008673ffffffffffffffffffffffffffffffffffffffff1673ffffffffffffffffffffffffffffffffffffffff168152602001908152602001600020541015151561083e57600080fd5b81600560008673ffffffffffffffffffffffffffffffffffffffff1673ffffffffffffffffffffffffffffffffffffffff16815260200190815260200160002060003373ffffffffffffffffffffffffffffffffffffffff1673ffffffffffffffffffffffffffffffffffffffff16815260200190815260200160002054101515156108c957600080fd5b6000821115156108d857600080fd5b81600460008673ffffffffffffffffffffffffffffffffffffffff1673ffffffffffffffffffffffffffffffffffffffff1681526020019081526020016000206000828254039250508190555081600460008573ffffffffffffffffffffffffffffffffffffffff1673ffffffffffffffffffffffffffffffffffffffff168152602001908152602001600020600082825401925050819055506000600460008573ffffffffffffffffffffffffffffffffffffffff1673ffffffffffffffffffffffffffffffffffffffff16815260200190815260200160002054141515156109c157600080fd5b81600560008673ffffffffffffffffffffffffffffffffffffffff1673ffffffffffffffffffffffffffffffffffffffff16815260200190815260200160002060003373ffffffffffffffffffffffffffffffffffffffff1673ffffffffffffffffffffffffffffffffffffffff168152602001908152602001600020600082825403925050819055508273ffffffffffffffffffffffffffffffffffffffff168473ffffffffffffffffffffffffffffffffffffffff167f9ed053bb818ff08b8353cd46f78db1f0799f31c9e4458fdb425c10eccd2efc4484600460003373ffffffffffffffffffffffffffffffffffffffff1673ffffffffffffffffffffffffffffffffffffffff16815260200190815260200160002054604051808381526020018281526020019250505060405180910390a3600190509392505050565b6000809054906101000a900473ffffffffffffffffffffffffffffffffffffffff1673ffffffffffffffffffffffffffffffffffffffff163373ffffffffffffffffffffffffffffffffffffffff161415610b91576000809054906101000a900473ffffffffffffffffffffffffffffffffffffffff1673ffffffffffffffffffffffffffffffffffffffff16ff5b565b60046020528060005260406000206000915090505481565b6000809054906101000a900473ffffffffffffffffffffffffffffffffffffffff1673ffffffffffffffffffffffffffffffffffffffff163373ffffffffffffffffffffffffffffffffffffffff161480610c4f5750600160003373ffffffffffffffffffffffffffffffffffffffff1673ffffffffffffffffffffffffffffffffffffffff16815260200190815260200160002060009054906101000a900460ff165b1515610c5a57600080fd5b600160008273ffffffffffffffffffffffffffffffffffffffff1673ffffffffffffffffffffffffffffffffffffffff16815260200190815260200160002060009054906101000a900460ff161515610cb257600080fd5b600160025410151515610cc457600080fd5b6000600160008373ffffffffffffffffffffffffffffffffffffffff1673ffffffffffffffffffffffffffffffffffffffff16815260200190815260200160002060006101000a81548160ff02191690831515021790555060016002600082825403925050819055507f98a545f8b57e4017a42966cbf54a29f1c763b0c567482422ce13802069c5935181604051808273ffffffffffffffffffffffffffffffffffffffff1673ffffffffffffffffffffffffffffffffffffffff16815260200191505060405180910390a150565b6000809054906101000a900473ffffffffffffffffffffffffffffffffffffffff1681565b600081600460003373ffffffffffffffffffffffffffffffffffffffff1673ffffffffffffffffffffffffffffffffffffffff1681526020019081526020016000205410151515610e0857600080fd5b600082111515610e1757600080fd5b600460008473ffffffffffffffffffffffffffffffffffffffff1673ffffffffffffffffffffffffffffffffffffffff1681526020019081526020016000205482600460008673ffffffffffffffffffffffffffffffffffffffff1673ffffffffffffffffffffffffffffffffffffffff1681526020019081526020016000205401111515610ea557600080fd5b81600460003373ffffffffffffffffffffffffffffffffffffffff1673ffffffffffffffffffffffffffffffffffffffff1681526020019081526020016000206000828254039250508190555081600460008573ffffffffffffffffffffffffffffffffffffffff1673ffffffffffffffffffffffffffffffffffffffff168152602001908152602001600020600082825401925050819055506000600460008573ffffffffffffffffffffffffffffffffffffffff1673ffffffffffffffffffffffffffffffffffffffff1681526020019081526020016000205414151515610f8e57600080fd5b8273ffffffffffffffffffffffffffffffffffffffff163373ffffffffffffffffffffffffffffffffffffffff167f9ed053bb818ff08b8353cd46f78db1f0799f31c9e4458fdb425c10eccd2efc4484600460003373ffffffffffffffffffffffffffffffffffffffff1673ffffffffffffffffffffffffffffffffffffffff16815260200190815260200160002054604051808381526020018281526020019250505060405180910390a36001905092915050565b6005602052816000526040600020602052806000526040600020600091509150505481565b60016020528060005260406000206000915054906101000a900460ff1681565b6000809054906101000a900473ffffffffffffffffffffffffffffffffffffffff1673ffffffffffffffffffffffffffffffffffffffff163373ffffffffffffffffffffffffffffffffffffffff16141561115657600073ffffffffffffffffffffffffffffffffffffffff168173ffffffffffffffffffffffffffffffffffffffff1614151561115557806000806101000a81548173ffffffffffffffffffffffffffffffffffffffff021916908373ffffffffffffffffffffffffffffffffffffffff1602179055505b5b505600a165627a7a72305820eab72dcd08c41de9735d70c154d509240f48695818b79676012da399e3b9f3090029",
  "source": "pragma solidity ^0.4.17;\r\n\r\nimport \"./Token.sol\";\r\nimport \"./Accessible.sol\";\r\n\r\ncontract ERC20Token is Token, Accessible {\r\n\r\n\t// Since the modifier is public, Solidity already provides a getter function for the variable. \r\n\tuint256 public totalSupply;\r\n\r\n\t// Take the address of an owner and return the balance of that particular address.\r\n\tmapping (address => uint256) public balanceOf;\r\n\t\r\n\t// Allowance map. 'owner' as 1st key holds a map to all approvements with key 'spender' and value 'amount'.\r\n\tmapping (address => mapping (address => uint256)) public allowance;\r\n\r\n\t// function totalSupply() public constant returns (uint256 totalSupply) {\r\n\t// \treturn totalSupply;\r\n\t// }\r\n\r\n\t// function balanceOf(address _owner) public constant returns (uint256 balance) {\r\n \t//  return balanceOf[_owner];\r\n \t// }\r\n\r\n \t// Return true or throw an exception and revert the transfer.\r\n \t// In case of revert will consume gas till the point that not meets the requierements.\r\n\tfunction transfer(address _to, uint256 _value) public returns (bool success){\r\n\t\t// Have sufficient funds.\r\n\t\trequire (balanceOf[msg.sender] >= _value);\r\n\t\t// Transfer amount must be greater than 0.\r\n\t\trequire (_value > 0);\r\n\t\t// Overflow check.\r\n\t\trequire (balanceOf[_to] + _value > balanceOf[_to]);\r\n\t\t\r\n\t\tbalanceOf[msg.sender] -= _value;\r\n\t\tbalanceOf[_to] += _value;\r\n\r\n\t\trequire (balanceOf[_to] != 0);\r\n\r\n\t\temit Transfer(msg.sender, _to, _value, balanceOf[msg.sender]);\r\n\r\n\t\treturn true;\r\n\t}\r\n\r\n \t// Return true or throw an exception and revert the transferFrom.\r\n \t// In case of revert will consume gas till the point that not meets the requierements.\r\n\tfunction transferFrom(address _from, address _to, uint256 _value) public returns (bool success) {\r\n\t\t// Have sufficient funds.\r\n\t\trequire (balanceOf[_from] >= _value);\r\n\t\t// Have sufficient allowance.\r\n\t\trequire (allowance[_from][msg.sender] >= _value);\r\n\t\t// Transfer amount must be greater than 0.\r\n\t\trequire (_value > 0);\r\n\t\t\r\n\t\tbalanceOf[_from] -= _value;\r\n\t\tbalanceOf[_to] += _value;\r\n\r\n\t\trequire (balanceOf[_to] != 0);\r\n\t\tallowance[_from][msg.sender] -= _value;\r\n\r\n\t\temit Transfer(_from, _to, _value, balanceOf[msg.sender]);\r\n\r\n\t\treturn true;\r\n\t}\r\n\r\n\tfunction approve(address _spender, uint256 _value) public returns (bool success) {\r\n\t\tallowance[msg.sender][_spender] = _value;\r\n\r\n\t\temit Approval(msg.sender, _spender, _value);\r\n\r\n\t\treturn true;\r\n\t}\r\n\r\n    // function allowance(address _owner, address _spender) public constant returns (uint256 remaining) {}\r\n    //   return allowance[_owner][_spender];\r\n    // }\r\n\r\n}",
  "sourcePath": "D:\\Thesis\\contracts\\ERC20Token.sol",
  "compiler": {
    "name": "solc",
    "version": "0.4.23+commit.124ca40d.Emscripten.clang"
  },
  "schemaVersion": "2.0.0",
  "updatedAt": "2018-06-16T17:54:48.731Z"
}